:020000040000fa
:080000000002040000000000f2
:020000040000fa
:04000800fa020000f8
:020000040000fa
:04000c00fa020000f4
:020000040000fa
:04001000fa020000f0
:020000040000fa
:04001400fa020000ec
:020000040000fa
:04001800fa020000e8
:020000040000fa
:04001c00fa020000e4
:020000040000fa
:04002000fa020000e0
:020000040000fa
:04002400fa020000dc
:020000040000fa
:04002800fa020000d8
:020000040000fa
:04002c00fa020000d4
:020000040000fa
:04003000fa020000d0
:020000040000fa
:04003400fa020000cc
:020000040000fa
:04003800fa020000c8
:020000040000fa
:04003c00fa020000c4
:020000040000fa
:04004000fa020000c0
:020000040000fa
:04004400fa020000bc
:020000040000fa
:04004800fa020000b8
:020000040000fa
:04004c00fa020000b4
:020000040000fa
:04005000fa020000b0
:020000040000fa
:04005400fa020000ac
:020000040000fa
:04005800fa020000a8
:020000040000fa
:04005c00fa020000a4
:020000040000fa
:04006000fa020000a0
:020000040000fa
:04006400fa0200009c
:020000040000fa
:04006800fa02000098
:020000040000fa
:04006c00fa02000094
:020000040000fa
:04007000fa02000090
:020000040000fa
:04007400fa0200008c
:020000040000fa
:04007800fa02000088
:020000040000fa
:04007c00fa02000084
:020000040000fa
:04008000fa02000080
:020000040000fa
:04008400fa0200007c
:020000040000fa
:04008800fa02000078
:020000040000fa
:04008c00fa02000074
:020000040000fa
:04009000fa02000070
:020000040000fa
:04009400fa0200006c
:020000040000fa
:04009800fa02000068
:020000040000fa
:04009c00fa02000064
:020000040000fa
:0400a000fa02000060
:020000040000fa
:0400a400fa0200005c
:020000040000fa
:0400a800fa02000058
:020000040000fa
:0400ac00fa02000054
:020000040000fa
:0400b000fa02000050
:020000040000fa
:0400b400fa0200004c
:020000040000fa
:0400b800fa02000048
:020000040000fa
:0400bc00fa02000044
:020000040000fa
:0400c000fa02000040
:020000040000fa
:0400c400fa0200003c
:020000040000fa
:0400c800fa02000038
:020000040000fa
:0400cc00fa02000034
:020000040000fa
:0400d000fa02000030
:020000040000fa
:0400d400fa0200002c
:020000040000fa
:0400d800fa02000028
:020000040000fa
:0400dc00fa02000024
:020000040000fa
:0400e000fa02000020
:020000040000fa
:0400e400fa0200001c
:020000040000fa
:0400e800fa02000018
:020000040000fa
:0400ec00fa02000014
:020000040000fa
:0400f000fa02000010
:020000040000fa
:0400f400fa0200000c
:020000040000fa
:0400f800fa02000008
:020000040000fa
:0400fc00fa02000004
:020000040000fa
:04010000fa020000ff
:020000040000fa
:04010400fa020000fb
:020000040000fa
:04010800fa020000f7
:020000040000fa
:04010c00fa020000f3
:020000040000fa
:04011000fa020000ef
:020000040000fa
:04011400fa020000eb
:020000040000fa
:04011800fa020000e7
:020000040000fa
:04011c00fa020000e3
:020000040000fa
:04012000fa020000df
:020000040000fa
:04012400fa020000db
:020000040000fa
:04012800fa020000d7
:020000040000fa
:04012c00fa020000d3
:020000040000fa
:04013000fa020000cf
:020000040000fa
:04013400fa020000cb
:020000040000fa
:04013800fa020000c7
:020000040000fa
:04013c00fa020000c3
:020000040000fa
:04014000fa020000bf
:020000040000fa
:04014400fa020000bb
:020000040000fa
:04014800fa020000b7
:020000040000fa
:04014c00fa020000b3
:020000040000fa
:04015000fa020000af
:020000040000fa
:04015400fa020000ab
:020000040000fa
:04015800fa020000a7
:020000040000fa
:04015c00fa020000a3
:020000040000fa
:04016000fa0200009f
:020000040000fa
:04016400fa0200009b
:020000040000fa
:04016800fa02000097
:020000040000fa
:04016c00fa02000093
:020000040000fa
:04017000fa0200008f
:020000040000fa
:04017400fa0200008b
:020000040000fa
:04017800fa02000087
:020000040000fa
:04017c00fa02000083
:020000040000fa
:04018000fa0200007f
:020000040000fa
:04018400fa0200007b
:020000040000fa
:04018800fa02000077
:020000040000fa
:04018c00fa02000073
:020000040000fa
:04019000fa0200006f
:020000040000fa
:04019400fa0200006b
:020000040000fa
:04019800fa02000067
:020000040000fa
:04019c00fa02000063
:020000040000fa
:0401a000fa0200005f
:020000040000fa
:0401a400fa0200005b
:020000040000fa
:0401a800fa02000057
:020000040000fa
:0401ac00fa02000053
:020000040000fa
:0401b000fa0200004f
:020000040000fa
:0401b400fa0200004b
:020000040000fa
:0401b800fa02000047
:020000040000fa
:0401bc00fa02000043
:020000040000fa
:0401c000fa0200003f
:020000040000fa
:0401c400fa0200003b
:020000040000fa
:0401c800fa02000037
:020000040000fa
:0401cc00fa02000033
:020000040000fa
:0401d000fa0200002f
:020000040000fa
:0401d400fa0200002b
:020000040000fa
:0401d800fa02000027
:020000040000fa
:0401dc00fa02000023
:020000040000fa
:0401e000fa0200001f
:020000040000fa
:0401e400fa0200001b
:020000040000fa
:0401e800fa02000017
:020000040000fa
:0401ec00fa02000013
:020000040000fa
:0401f000fa0200000f
:020000040000fa
:0401f400fa0200000b
:020000040000fa
:0401f800fa02000007
:020000040000fa
:0401fc00fa02000003
:020000040000fa
:04020000fa020000fe
:020000040000fa
:04020400fa020000fa
:020000040000fa
:04020800fa020000f6
:020000040000fa
:04020c00fa020000f2
:020000040000fa
:04021000fa020000ee
:020000040000fa
:04021400fa020000ea
:020000040000fa
:04021800fa020000e6
:020000040000fa
:04021c00fa020000e2
:020000040000fa
:04022000fa020000de
:020000040000fa
:04022400fa020000da
:020000040000fa
:04022800fa020000d6
:020000040000fa
:04022c00fa020000d2
:020000040000fa
:04023000fa020000ce
:020000040000fa
:04023400fa020000ca
:020000040000fa
:04023800fa020000c6
:020000040000fa
:04023c00fa020000c2
:020000040000fa
:04024000fa020000be
:020000040000fa
:04024400fa020000ba
:020000040000fa
:04024800fa020000b6
:020000040000fa
:04024c00fa020000b2
:020000040000fa
:04025000fa020000ae
:020000040000fa
:04025400fa020000aa
:020000040000fa
:04025800fa020000a6
:020000040000fa
:04025c00fa020000a2
:020000040000fa
:04026000fa0200009e
:020000040000fa
:04026400fa0200009a
:020000040000fa
:100400008f0021000eff2d000e018800000000006b
:10041000000020000000e000020032000001200087
:100420002002880014000700740007000000e000ac
:1004300003003a00c0ea200001002000020037005b
:100440000000200001002000810f70000100320038
:100450000f000700000020000000e0000200320052
:100460000000020000000000540e02000000000026
:100470000040da000000fe00200020000000e00044
:1004800002003200100020009001880000000600e9
:10049000a1028800800478000000eb001f003700f4
:1004a000e284440054a0b4009905ba00e2844400f8
:1004b00054a0b4009906ba00e284440054a0b400e9
:1004c0000006eb00476fde00fd07b200ae018800ba
:1004d000636ce10003003a000ad801000000eb0061
:1004e0000e003700606ce10008003a00004deb00a0
:1004f0000a05e800020039003420ec000af0a000f0
:100500008b05e900f9ff3e00040037006168e10057
:10051000010032000086eb000b00070019c7ba008b
:100520001905ba000e04e00003003a000a00e000da
:10053000dbff3a0000000600fe07b200ae028800b2
:100540008a047800f5ff37000cd0a300e20f4d00bd
:100550001c00390089027800354dba000a05e80010
:10056000020039003420ec000af0a0008b05e900fd
:100570000f003200254dba000a05e80002003900dc
:100580003420ec000af0a0008b05e90008003200de
:100590000c00e0000600320015cdba000a05e800a4
:1005a000020039003420ec000af0a0008b05e900bd
:1005b0008984e80054a0b4000b00e000e2ff3a0098
:1005c000000006009902ba00055d78008b05e9007d
:1005d000f7ff3200c82ade00055d78008b05e900d0
:1005e000f3ff32000c00e000f1ff320019ddba0029
:1005f000eeff37000040da000000fe0000000500ba
:100600006022b800060220000000d0008180d200e5
:100610000482d2008582d2000000a00002025200b3
:1006200083825a00030031000202420083824a00a2
:100630000000a1000603e900f3ff3a0000000600f5
:10064000889fbe008a9fbe0030044200b0844a00ea
:1006500030054b0090854b006000b1000898be004b
:100660000a90be000440e10005c8e10006d0e100a8
:1006700007d8e10002003100680040001008e800df
:100680004f05be004f04be0000000600889fbe005c
:100690008a9fbe003004be002005be00041854002e
:1006a00005985c0006185d0007985d0011002000a9
:1006b0000440e10005c8e10006d0e10007d8e100f0
:1006c000010039008000eb00108810004f05be00cb
:1006d0004f04be00000006001200fa00889fbe0012
:1006e0008a9fbe008c9fbe00e0b79f00f1b79f00bd
:1006f00082bf9f0093bf9f000605be000404be009a
:100700000000eb00d0b79f00c0b79f00b0b79f00bc
:10071000a0b79f0090b79f000006eb005fb1970065
:10072000cfb09700820141003fb097000200e00087
:1007300004003d00370007007e805700c0ff07001f
:1007400003003700330007007e805700cfff07000b
:10075000dfb697000d00e0000c0035006fb2970087
:10076000ffb297000fbb97009fbb970010002000bf
:10077000010020006011b800000272008182720046
:1007800002037300838373001b0007000c06e8005c
:1007900001042000810f5600e0ff3a000d00e00048
:1007a00004003d000802be000a03be007e80570020
:1007b000a3ff07005fa897000000e00005003a00d3
:1007c0001fb29700afb297003fb39700cfb3970027
:1007d000090007006fb09700ffb097000fb99700ae
:1007e0009fb997004f06be004f05be004f04be00e4
:1007f0000080fa000000060001000700000006006b
:10080000a4b79f00b5b79f00c6b79f00d7b79f009a
:10081000000006004f09de0082817100b3b79f001f
:100820004f01de008180400082807000a1b79f00f0
:100830008fb097004f09de000000400002007000fa
:1008400090b79f007fa897004f01de008180400095
:100850008280700081b79f000d0007004f3ade00d4
:100860000000400004007000f0af9f000800070087
:100870000402420085824a0006034b0087834b0036
:10088000dfff07000802be000a03be0000000600ea
:100890002fb29700bfb297004fb39700dfb3970016
:1008a00000000600881f780018002000881f7800cc
:1008b00089ff07008f87e9004f04780000000600d9
:1008c000801feb0084ff07008f87e900000006000f
:1008d000889fbe008a9fbe00e00f5000e08f580046
:1008e000e00f5900e08f59000c003d006044b80053
:1008f0006055b8000000540081805c0002015d007a
:1009000083815d00180020001500070008003d00ed
:10091000180007000004eb00050037000004eb009e
:100920000f00070002003d00120007001800200021
:10093000dcff07000800e000060032006022b8007b
:100940006033b8000000520081805a0002015b0051
:1009500083815b004f05be004f04be00000006000f
:10096000e00f5200e08f5a00e00f5b00e08f5b0069
:10097000000006006044b8006055b800040254004e
:1009800085825c0006035d0087835d000000060031
:10099000889fbe008a9fbe008c1f7800e00f500029
:1009a000e08f5800e00f5900e08f59000d003d0026
:1009b0006044b8006055b8000000540081805c00bd
:1009c00002015d0083815d001c0020000820e10021
:1009d00009a8e1000ab0e1000bb8e1000d003d00fc
:1009e000080037000006eb00e00f5200e08f5a00cd
:1009f000e00f5b00e08f5b0006003d006044b80044
:100a00006055b8000402540085825c0006035d0056
:100a100087835d00aaff07000c00e000060032009b
:100a20006022b8006033b8000000520081805a0094
:100a300002015b0083815b004f0678004f05be001a
:100a40004f04be0000000600889fbe008a9fbe00c3
:100a50008c1f78000006eb00e00f5000e08f58007c
:100a6000e00f5900e08f590007003d006044b800d6
:100a70006055b8000000540081805c0002015d00f8
:100a800083815d001c002000e00f5200e08f5a00bf
:100a9000e00f5b00e08f5b0007003d006044b800a2
:100aa0006055b8000402540085825c0006035d00b6
:100ab00087835d000c00a2000c0007000c00e00022
:100ac000060032006022b8006033b8000000520017
:100ad00081805a0002015b0083815b004f06780031
:100ae0004f05be004f04be0000000600889fbe00f8
:100af0008a9fbe008c9fbe000404b8000506b800a3
:100b00008904460060854e000606b8000a054600c6
:100b1000e0854e000706b8008b054600040eb800bd
:100b2000890446000a854e00e0854d00050eb80098
:100b30000a0546008b854e00060eb8008b05460060
:100b40000416b8000a0546008b854e000516b8004d
:100b50008b054600041eb8008b0546000800be0049
:100b60000a01be004f06be004f05be004f04be0086
:040b7000000006007b
:020000040000fa
:100b74000200fa00004f7800114798001e80fb0025
:100b84006101b9000080eb008080eb0002004000ae
:100b9400838048000206200003002000820f5000da
:100ba400838f58006a023e00000601006c01370082
:100bb40069023700680237006702370066023700af
:100bc40065023700640237006302370062023700af
:100bd40087013700aa013700390237005e02370067
:100be400130237005c0237005b0237005a023700f9
:100bf40059023700580237005702370056023700af
:100c040055023700540237005302370052023700ae
:100c140051023700500237004f0237004e023700ae
:100c24004d0237004c02370041003700680037009e
:100c34008f003700b60037004702370046023700fe
:100c440045023700440237004302370042023700ae
:100c540041023700400237003f0237003e023700ae
:100c64003d0237003c0237003b0237003a023700ae
:100c740039023700380237003702370036023700ae
:100c840035023700340237003302370032023700ae
:100c940031023700300237002f0237002e023700ae
:100ca4002d0237002c0237002b0237002a023700ae
:100cb40029023700280237002702370026023700ae
:100cc40025023700240237002302370022023700ae
:100cd40021023700200237001f0237001e023700ae
:100ce4001d0237001c0237001b0237001a023700ae
:100cf40019023700180237001702370016023700ae
:100d0400150237001402370013023700a40137001c
:100d14007f013700100237000f0237000e02370040
:100d24000d023700ea003700a1003700c400370085
:100d34001e4090000080fb00e10f500010003200c4
:100d4400e10f500003003c000000e0000600320008
:100d54001d003700e20f50000f003200e30f500077
:100d640013003200180037001f0ea900190ea90045
:100d74001b0ea9001d0ea900110ea80013003700b8
:100d84001f0ea900190ea9001b0ea9001d0ea80014
:100d9400110ea8000d0037001f0ea900190ea9009e
:100da4001b0ea8001d0ea900110ea8000700370095
:100db4001f0ea900190ea9001b0ea9001d0ea900e3
:100dc400110ea9000100370000000000e301370004
:100dd4001e4090000080fb00e10f50001000320024
:100de400e10f500003003c000000e0000600320068
:100df4001d003700e20f50000f003200e30f5000d7
:100e040013003200180037001f2ea900192ea90064
:100e14001b2ea9001d2ea900112ea80013003700b7
:100e24001f2ea900192ea9001b2ea9001d2ea800f3
:100e3400112ea8000d0037001f2ea900192ea9009d
:100e44001b2ea8001d2ea900112ea8000700370094
:100e54001f2ea900192ea9001b2ea9001d2ea900c2
:100e6400112ea9000100370000000000bb0137006b
:100e74001e4090000080fb00e10f50001000320083
:100e8400e10f500003003c000000e00006003200c7
:100e94001d003700e20f50000f003200e30f500036
:100ea40013003200180037001f4ea900194ea90084
:100eb4001b4ea9001d4ea900114ea80013003700b7
:100ec4001f4ea900194ea9001b4ea9001d4ea800d3
:100ed400114ea8000d0037001f4ea900194ea9009d
:100ee4001b4ea8001d4ea900114ea8000700370094
:100ef4001f4ea900194ea9001b4ea9001d4ea900a2
:100f0400114ea900010037000000000093013700d2
:100f14001e4090000080fb00e10f500010003200e2
:100f2400e10f500003003c000000e0000600320026
:100f34001d003700e20f50000f003200e30f500095
:100f440013003200180037001f6ea900196ea900a3
:100f54001b6ea9001d6ea900116ea80013003700b6
:100f64001f6ea900196ea9001b6ea9001d6ea800b2
:100f7400116ea8000d0037001f6ea900196ea9009c
:100f84001b6ea8001d6ea900116ea8000700370093
:100f94001f6ea900196ea9001b6ea9001d6ea90081
:100fa400116ea90001003700000000006b0137003a
:100fb4001e4090000080fb00e10f50000f00320043
:100fc400e10f500003003c000000e0000600320086
:100fd40019003700e20f50000d003200e30f5000fb
:100fe4001000320014003700698ea9006b8ea9002e
:100ff4006d8ea900618ea80010003700698ea900cb
:101004006b8ea9006d8ea800618ea8000b003700be
:10101400698ea9006b8ea8006d8ea900618ea80050
:1010240006003700698ea9006b8ea9006d8ea90099
:10103400618ea9000100370000000000470137005d
:101044001e4090000080fb00e10f50000f003200b2
:10105400e10f500003003c000000e00006003200f5
:1010640019003700e20f50000d003200e30f50006a
:10107400100032001400370069aea9006baea9005d
:101084006daea90061aea8001000370069aea900da
:101094006baea9006daea80061aea8000b003700ce
:1010a40069aea9006baea8006daea90061aea80040
:1010b4000600370069aea9006baea9006daea900a9
:1010c40061aea900010037000000000023013700d1
:1010d4001e4090000080fb00e10f50000f00320022
:1010e400e10f500003003c000000e0000600320065
:1010f40019003700e20f50000d003200e30f5000da
:10110400100032001400370069cea9006bcea9008c
:101114006dcea90061cea8001000370069cea900e9
:101124006bcea9006dcea80061cea8000b003700dd
:1011340069cea9006bcea8006dcea90061cea8002f
:101144000600370069cea9006bcea9006dcea900b8
:1011540061cea9000100370000000000ff00370045
:101164001e4090000080fb00e10f50000f00320091
:10117400e10f500003003c000000e00006003200d4
:1011840019003700e20f50000d003200e30f500049
:10119400100032001400370069eea9006beea900bc
:1011a4006deea90061eea8001000370069eea900f9
:1011b4006beea9006deea80061eea8000b003700ed
:1011c40069eea9006beea8006deea90061eea8001f
:1011d4000600370069eea9006beea9006deea900c8
:1011e40061eea9000100370000000000db003700b9
:1011f4001e4090000080fb00e10f50000f00320001
:10120400e10f500003003c000000e0000600320043
:1012140019003700e20f50000d003200e30f5000b8
:10122400100032001400370068cea9006acea9006d
:101234006ccea90060cea8001000370068cea900cb
:101244006acea9006ccea80060cea8000b003700bf
:1012540068cea9006acea8006ccea90060cea80012
:101264000600370068cea9006acea9006ccea9009a
:1012740060cea9000100370000000000b70037006d
:101284001e4090000080fb00e10f50000f00320070
:10129400e10f500003003c000000e00006003200b3
:1012a40019003700e20f50000d003200e30f500028
:1012b400100032001400370068eea9006aeea9009d
:1012c4006ceea90060eea8001000370068eea900db
:1012d4006aeea9006ceea80060eea8000b003700cf
:1012e40068eea9006aeea8006ceea90060eea80002
:1012f4000600370068eea9006aeea9006ceea900aa
:1013040060eea900010037000000000093003700e0
:101314001e4090000080fb00e10f50000f003200df
:10132400e10f500003003c000000e0000600320022
:1013340019003700e20f50000d003200e30f500097
:101344001000320014003700680ea9006a0ea900cc
:101354006c0ea900600ea80010003700680ea900ea
:101364006a0ea9006c0ea800600ea8000b003700de
:10137400680ea9006a0ea8006c0ea900600ea800f1
:1013840006003700680ea9006a0ea9006c0ea900b9
:10139400600ea90001003700000000006f00370054
:1013a4001e4090000080fb00e10f50000f0032004f
:1013b400e10f500003003c000000e0000600320092
:1013c40019003700e20f50000d003200e30f500007
:1013d4001000320014003700682ea9006a2ea900fc
:1013e4006c2ea900602ea80010003700682ea900fa
:1013f4006a2ea9006c2ea800602ea8000b003700ee
:10140400682ea9006a2ea8006c2ea900602ea800e0
:1014140006003700682ea9006a2ea9006c2ea900c8
:10142400602ea90001003700000000004b003700c7
:101434001e4090000080fb00e10f50000f003200be
:10144400e10f500003003c000000e0000600320001
:1014540019003700e20f50000d003200e30f500076
:101464001000320014003700692ea9006b2ea90069
:101474006d2ea900612ea80010003700692ea90066
:101484006b2ea9006d2ea800612ea8000b0037005a
:10149400692ea9006b2ea8006d2ea900612ea8004c
:1014a40006003700692ea9006b2ea9006d2ea90035
:1014b400612ea9000100370000000000270037005a
:1014c4001e4090000080fb00e10f50000f0032002e
:1014d400e10f500003003c000000e0000600320071
:1014e40019003700e20f50000d003200e30f5000e6
:1014f4001000320014003700690ea9006b0ea90019
:101504006d0ea900610ea80010003700690ea90035
:101514006b0ea9006d0ea800610ea8000b00370029
:10152400690ea9006b0ea8006d0ea900610ea8003b
:1015340006003700690ea9006b0ea9006d0ea90004
:10154400610ea9000100370000000000030037000d
:101554000000000001003700000000000080fa00d5
:10156400000006000200fa00004f780011479800be
:101574001e80fb0011022000810f50001700320072
:1015840011022000810f500006003c00ec0f5000b7
:101594002700320001022000810f500008003200b1
:1015a4002a00370021022000810f5000120032006f
:1015b40031022000810f5000160032002300370052
:1015c4001e4090000004e00002003a00150ea9003d
:1015d4001e003700150ea8001c0037001e409000a6
:1015e4000004e00002003a00152ea900170037009d
:1015f400152ea800150037001e4090000004e000de
:1016040002003a00154ea90010003700154ea8003c
:101614000e0037001e4090000004e00002003a0073
:10162400156ea90009003700156ea80007003700e1
:101634001e4090000004e00002003a00650ea9007c
:1016440002003700650ea800000000000080fa00c8
:10165400000006000200fa00004f78001e80fb0024
:1016640011022000810f50001e00320011022000e0
:10167400810f500006003c00ec0f50004300320084
:1016840001022000810f5000080032004d00370095
:1016940021022000810f500020003200310220007e
:1016a400810f50002b0032004600370000c2b30007
:1016b400460007000080fb000000e9004f00de0048
:1016c400004078000080fb00610060004800dd00fd
:1016d400a17080000180a10001007000a07088004a
:1016e4003800370010c2b300380007000080fb0048
:1016f4000000e9004f00de00004078000080fb009d
:10170400610060004900dd00a17080000190a1002b
:1017140001007000a07088002a00370020c2b300c6
:101724002a0007000080fb000000e9004f00de00f3
:10173400004078000080fb00610060004a00dd008a
:10174400a170800001a0a10001007000a0708800b9
:101754001c00370030c2b3001c0007000080fb00ef
:101764000000e9004f00de00004078000080fb002c
:10177400610060004b00dd00a170800001b0a10099
:1017840001007000a07088000e003700c0c0b300d4
:101794000e0007000080fb000000e9004f00de009f
:1017a400004078000080fb00610060004800dd001c
:1017b400217380000180a100010070002073880063
:1017c400000000000080fa00000006000200fa0099
:1017d400004f78001e80fb006101b9000080eb001f
:1017e4008080eb0002004000838048000206200055
:1017f40003002000820f5000838f58009a003e009f
:10180400000601006c00370097003700960037008f
:10181400950037009400370093003700920037009a
:101824009100370090003700770037007a003700c6
:10183400890037008c003700830037008a003700a6
:10184400890037008800370087003700860037009a
:10185400850037008400370083003700820037009a
:1018640081003700800037007f0037007e0037009a
:101874007d0037007c0037007b0037007a0037009a
:101884005100370054003700570037005a00370022
:10189400750037007400370073003700720037009a
:1018a40071003700700037006f0037006e0037009a
:1018b4006d0037006c0037006b0037006a0037009a
:1018c400690037006800370067003700660037009a
:1018d400650037006400370063003700620037009a
:1018e40061003700600037005f0037005e0037009a
:1018f4005d0037005c0037005b0037005a0037009a
:101904005900370058003700570037005600370099
:101914005500370054003700530037005200370099
:1019240051003700500037004f0037004e00370099
:101934004d0037004c0037004b0037004a00370099
:101944004900370048003700470037004600370099
:101954004500370044003700430037004200370099
:1019640041003700340037002f0037003e003700b5
:101974003d0037003c0037003b0037000a003700c9
:101984000100370004003700107380004c00de00b3
:101994006140600035003700107380004d00de00a8
:1019a4006140600031003700107380004e00de009b
:1019b400614060002d003700107380004f00de008e
:1019c4000040780029003700907080004800de0055
:1019d4006140600025003700907080004900de00ff
:1019e4006140600021003700907080004a00de00f2
:1019f400614060001d003700907080004b00de00e5
:101a04006140600019003700107380004600de005a
:101a14006140600015003700107380004700de004d
:101a240061406000110037001073800000407800ae
:101a3400614060000d003700107380000000d10089
:101a44006140600009003700107380004900de0027
:101a54006140600005003700107380004800de001c
:101a640061406000010037000040eb000080fa0094
:101a7400000006000c00fa00004f780012079800de
:101a8400230798003407980045079800214f9800d1
:101a94000040eb000080fa00000006000000fa009d
:101aa4000080fa00000006001800fa0000579800b1
:101ab400120f9800230f98006157980005e1a900c0
:101ac4000421a90004c1a90021088000f0fc2f0012
:101ad400008060000050a000200888000021ef0072
:101ae4000080eb001008880001428000f0ff28000d
:101af40000806000004288000068a9002068a900f6
:101b040005e1a8000e5190004100210082487800b0
:101b14001e089000ae08900002402f001300200021
:101b2400b6fa07006011b800009fbe000297be001d
:101b34006e5090000080fb008000eb006011b80044
:101b44003e02be002e03be00befb0700440620007a
:101b5400050020006033b80051fb070040079800df
:101b64005107980062079800730798004e00900090
:101b7400008088009e007800008080000080500073
:101b84001080880031c0b3000e509000f8fb0700ad
:101b94000080fa00000006000200fa00000880003d
:101ba400000f780005d0bf000004e0000d003a00eb
:101bb400308080009e00100010808000808f5000d4
:101bc4001300350004d0bf0011c0b30065fe070048
:101bd400000880003080880010c0b30005f0b70012
:101be4000b003700308080009e00100000808000d1
:101bf400808f50000600350004d0bf008040eb0009
:101c040058fe070000088000308088000570ef004f
:101c14000080fa00000006001600fa00000f980089
:101c2400110f9800425798000e0890009e089000eb
:101c340002402f001300200070fa07006011b80062
:101c4400009fbe000297be004e5090000080fb0033
:101c54008000eb006011b8003e02be002e03be00ff
:101c640078fb070044062000050020006033b8001c
:101c74000bfb070040079800510798006207980083
:101c8400730798004e009000008088009e00780042
:101c94000080800000805000108088000080fa00de
:101ca400000006000600fa00701c2000303a88008c
:101cb400213a8000f0f32f00008060000070a00043
:101cc400203a8800213a800000fe2f000080600046
:101cd4000010a000203a88006000b800008fbe0009
:101ce40031c0b30002b023008385200000c2b300da
:101cf4006dff0700a8ff07001e00be00e00f5000a4
:101d0400e08f580008003a004e409000ce4090000a
:101d14008140e800414798000041780000b023006a
:101d240081852000bcff0700ce40900050c6b30060
:101d340080cf500002003a000040eb00404798007a
:101d440012002000030020001e0f41005e9749008e
:041d5400e8ff37006d
:020000040000fa
:101d580000100000080000008000000000000000e3
:020000040000fa
:0200000401f009
:04000c00fbff0000f6
:020000040000fa
:0200000401f009
:04001000feff0000ef
:00000001FF
