:020000040000fa
:080000000002040000000000f2
:020000040000fa
:04000800fa020000f8
:020000040000fa
:04000c00fa020000f4
:020000040000fa
:04001000fa020000f0
:020000040000fa
:04001400fa020000ec
:020000040000fa
:04001800fa020000e8
:020000040000fa
:04001c00fa020000e4
:020000040000fa
:04002000fa020000e0
:020000040000fa
:04002400fa020000dc
:020000040000fa
:04002800fa020000d8
:020000040000fa
:04002c00fa020000d4
:020000040000fa
:04003000fa020000d0
:020000040000fa
:04003400fa020000cc
:020000040000fa
:04003800fa020000c8
:020000040000fa
:04003c00fa020000c4
:020000040000fa
:04004000fa020000c0
:020000040000fa
:04004400fa020000bc
:020000040000fa
:04004800fa020000b8
:020000040000fa
:04004c00fa020000b4
:020000040000fa
:04005000fa020000b0
:020000040000fa
:04005400fa020000ac
:020000040000fa
:04005800fa020000a8
:020000040000fa
:04005c00fa020000a4
:020000040000fa
:04006000fa020000a0
:020000040000fa
:04006400fa0200009c
:020000040000fa
:04006800fa02000098
:020000040000fa
:04006c00fa02000094
:020000040000fa
:04007000fa02000090
:020000040000fa
:04007400fa0200008c
:020000040000fa
:04007800fa02000088
:020000040000fa
:04007c00fa02000084
:020000040000fa
:04008000fa02000080
:020000040000fa
:04008400fa0200007c
:020000040000fa
:04008800fa02000078
:020000040000fa
:04008c00fa02000074
:020000040000fa
:04009000fa02000070
:020000040000fa
:04009400fa0200006c
:020000040000fa
:04009800fa02000068
:020000040000fa
:04009c00fa02000064
:020000040000fa
:0400a000fa02000060
:020000040000fa
:0400a400fa0200005c
:020000040000fa
:0400a800fa02000058
:020000040000fa
:0400ac00fa02000054
:020000040000fa
:0400b000fa02000050
:020000040000fa
:0400b400fa0200004c
:020000040000fa
:0400b800fa02000048
:020000040000fa
:0400bc00fa02000044
:020000040000fa
:0400c000fa02000040
:020000040000fa
:0400c400fa0200003c
:020000040000fa
:0400c800fa02000038
:020000040000fa
:0400cc00fa02000034
:020000040000fa
:0400d000fa02000030
:020000040000fa
:0400d400fa0200002c
:020000040000fa
:0400d800fa02000028
:020000040000fa
:0400dc00fa02000024
:020000040000fa
:0400e000fa02000020
:020000040000fa
:0400e400fa0200001c
:020000040000fa
:0400e800fa02000018
:020000040000fa
:0400ec00fa02000014
:020000040000fa
:0400f000fa02000010
:020000040000fa
:0400f400fa0200000c
:020000040000fa
:0400f800fa02000008
:020000040000fa
:0400fc00fa02000004
:020000040000fa
:04010000fa020000ff
:020000040000fa
:04010400fa020000fb
:020000040000fa
:04010800fa020000f7
:020000040000fa
:04010c00fa020000f3
:020000040000fa
:04011000fa020000ef
:020000040000fa
:04011400fa020000eb
:020000040000fa
:04011800fa020000e7
:020000040000fa
:04011c00fa020000e3
:020000040000fa
:04012000fa020000df
:020000040000fa
:04012400fa020000db
:020000040000fa
:04012800fa020000d7
:020000040000fa
:04012c00fa020000d3
:020000040000fa
:04013000fa020000cf
:020000040000fa
:04013400fa020000cb
:020000040000fa
:04013800fa020000c7
:020000040000fa
:04013c00fa020000c3
:020000040000fa
:04014000fa020000bf
:020000040000fa
:04014400fa020000bb
:020000040000fa
:04014800fa020000b7
:020000040000fa
:04014c00fa020000b3
:020000040000fa
:04015000fa020000af
:020000040000fa
:04015400fa020000ab
:020000040000fa
:04015800fa020000a7
:020000040000fa
:04015c00fa020000a3
:020000040000fa
:04016000fa0200009f
:020000040000fa
:04016400fa0200009b
:020000040000fa
:04016800fa02000097
:020000040000fa
:04016c00fa02000093
:020000040000fa
:04017000fa0200008f
:020000040000fa
:04017400fa0200008b
:020000040000fa
:04017800fa02000087
:020000040000fa
:04017c00fa02000083
:020000040000fa
:04018000fa0200007f
:020000040000fa
:04018400fa0200007b
:020000040000fa
:04018800fa02000077
:020000040000fa
:04018c00fa02000073
:020000040000fa
:04019000fa0200006f
:020000040000fa
:04019400fa0200006b
:020000040000fa
:04019800fa02000067
:020000040000fa
:04019c00fa02000063
:020000040000fa
:0401a000fa0200005f
:020000040000fa
:0401a400fa0200005b
:020000040000fa
:0401a800fa02000057
:020000040000fa
:0401ac00fa02000053
:020000040000fa
:0401b000fa0200004f
:020000040000fa
:0401b400fa0200004b
:020000040000fa
:0401b800fa02000047
:020000040000fa
:0401bc00fa02000043
:020000040000fa
:0401c000fa0200003f
:020000040000fa
:0401c400fa0200003b
:020000040000fa
:0401c800fa02000037
:020000040000fa
:0401cc00fa02000033
:020000040000fa
:0401d000fa0200002f
:020000040000fa
:0401d400fa0200002b
:020000040000fa
:0401d800fa02000027
:020000040000fa
:0401dc00fa02000023
:020000040000fa
:0401e000fa0200001f
:020000040000fa
:0401e400fa0200001b
:020000040000fa
:0401e800fa02000017
:020000040000fa
:0401ec00fa02000013
:020000040000fa
:0401f000fa0200000f
:020000040000fa
:0401f400fa0200000b
:020000040000fa
:0401f800fa02000007
:020000040000fa
:0401fc00fa02000003
:020000040000fa
:04020000fa020000fe
:020000040000fa
:04020400fa020000fa
:020000040000fa
:04020800fa020000f6
:020000040000fa
:04020c00fa020000f2
:020000040000fa
:04021000fa020000ee
:020000040000fa
:04021400fa020000ea
:020000040000fa
:04021800fa020000e6
:020000040000fa
:04021c00fa020000e2
:020000040000fa
:04022000fa020000de
:020000040000fa
:04022400fa020000da
:020000040000fa
:04022800fa020000d6
:020000040000fa
:04022c00fa020000d2
:020000040000fa
:04023000fa020000ce
:020000040000fa
:04023400fa020000ca
:020000040000fa
:04023800fa020000c6
:020000040000fa
:04023c00fa020000c2
:020000040000fa
:04024000fa020000be
:020000040000fa
:04024400fa020000ba
:020000040000fa
:04024800fa020000b6
:020000040000fa
:04024c00fa020000b2
:020000040000fa
:04025000fa020000ae
:020000040000fa
:04025400fa020000aa
:020000040000fa
:04025800fa020000a6
:020000040000fa
:04025c00fa020000a2
:020000040000fa
:04026000fa0200009e
:020000040000fa
:04026400fa0200009a
:020000040000fa
:100400000f0021000eff2d000e01880000000000eb
:10041000000020000000e000020032000001200087
:100420002002880014000700740007000000e000ac
:1004300003003a0000002000010020000200370005
:100440000000200001002000810f70000100320038
:100450000f000700000020000000e0000200320052
:100460000000020000000000b20a020000000000cc
:100470000040da000000fe00200020000000e00044
:1004800002003200100020009001880000000600e9
:10049000a1028800800478000000eb001f003700f4
:1004a000e284440054a0b4009905ba00e2844400f8
:1004b00054a0b4009906ba00e284440054a0b400e9
:1004c0000006eb00476fde00fd07b200ae018800ba
:1004d000636ce10003003a000ad801000000eb0061
:1004e0000e003700606ce10008003a00004deb00a0
:1004f0000a05e800020039003420ec000af0a000f0
:100500008b05e900f9ff3e00040037006168e10057
:10051000010032000086eb000b00070019c7ba008b
:100520001905ba000e04e00003003a000a00e000da
:10053000dbff3a0000000600fe07b200ae028800b2
:100540008a047800f5ff37000cd0a300e20f4d00bd
:100550001c00390089027800354dba000a05e80010
:10056000020039003420ec000af0a0008b05e900fd
:100570000f003200254dba000a05e80002003900dc
:100580003420ec000af0a0008b05e90008003200de
:100590000c00e0000600320015cdba000a05e800a4
:1005a000020039003420ec000af0a0008b05e900bd
:1005b0008984e80054a0b4000b00e000e2ff3a0098
:1005c000000006009902ba00055d78008b05e9007d
:1005d000f7ff3200c82ade00055d78008b05e900d0
:1005e000f3ff32000c00e000f1ff320019ddba0029
:1005f000eeff37000040da000000fe0000000500ba
:020000040000fa
:100600000200fa00004f7800114798001e80fb009e
:100610006101b9000080eb008080eb000200400027
:10062000838048000206200003002000820f500053
:10063000838f58006a023e00000601006c013700fb
:100640006902370068023700670237006602370028
:100650006502370064023700630237006202370028
:1006600087013700aa013700390237005e023700e0
:10067000130237005c0237005b0237005a02370072
:100680005902370058023700570237005602370028
:100690005502370054023700530237005202370028
:1006a00051023700500237004f0237004e02370028
:1006b0004d0237004c023700410037006800370018
:1006c0008f003700b6003700470237004602370078
:1006d0004502370044023700430237004202370028
:1006e00041023700400237003f0237003e02370028
:1006f0003d0237003c0237003b0237003a02370028
:100700003902370038023700370237003602370027
:100710003502370034023700330237003202370027
:1007200031023700300237002f0237002e02370027
:100730002d0237002c0237002b0237002a02370027
:100740002902370028023700270237002602370027
:100750002502370024023700230237002202370027
:1007600021023700200237001f0237001e02370027
:100770001d0237001c0237001b0237001a02370027
:100780001902370018023700170237001602370027
:10079000150237001402370013023700a401370096
:1007a0007f013700100237000f0237000e023700ba
:1007b0000d023700ea003700a1003700c4003700ff
:1007c0001e4090000080fb00e10f5000100032003e
:1007d000e10f500003003c000000e0000600320082
:1007e0001d003700e20f50000f003200e30f5000f1
:1007f00013003200180037001f0ea900190ea900bf
:100800001b0ea9001d0ea900110ea8001300370031
:100810001f0ea900190ea9001b0ea9001d0ea8008d
:10082000110ea8000d0037001f0ea900190ea90017
:100830001b0ea8001d0ea900110ea800070037000e
:100840001f0ea900190ea9001b0ea9001d0ea9005c
:10085000110ea9000100370000000000e30137007d
:100860001e4090000080fb00e10f5000100032009d
:10087000e10f500003003c000000e00006003200e1
:100880001d003700e20f50000f003200e30f500050
:1008900013003200180037001f2ea900192ea900de
:1008a0001b2ea9001d2ea900112ea8001300370031
:1008b0001f2ea900192ea9001b2ea9001d2ea8006d
:1008c000112ea8000d0037001f2ea900192ea90017
:1008d0001b2ea8001d2ea900112ea800070037000e
:1008e0001f2ea900192ea9001b2ea9001d2ea9003c
:1008f000112ea9000100370000000000bb013700e5
:100900001e4090000080fb00e10f500010003200fc
:10091000e10f500003003c000000e0000600320040
:100920001d003700e20f50000f003200e30f5000af
:1009300013003200180037001f4ea900194ea900fd
:100940001b4ea9001d4ea900114ea8001300370030
:100950001f4ea900194ea9001b4ea9001d4ea8004c
:10096000114ea8000d0037001f4ea900194ea90016
:100970001b4ea8001d4ea900114ea800070037000d
:100980001f4ea900194ea9001b4ea9001d4ea9001b
:10099000114ea9000100370000000000930137004c
:1009a0001e4090000080fb00e10f5000100032005c
:1009b000e10f500003003c000000e00006003200a0
:1009c0001d003700e20f50000f003200e30f50000f
:1009d00013003200180037001f6ea900196ea9001d
:1009e0001b6ea9001d6ea900116ea8001300370030
:1009f0001f6ea900196ea9001b6ea9001d6ea8002c
:100a0000116ea8000d0037001f6ea900196ea90015
:100a10001b6ea8001d6ea900116ea800070037000c
:100a20001f6ea900196ea9001b6ea9001d6ea900fa
:100a3000116ea90001003700000000006b013700b3
:100a40001e4090000080fb00e10f50000f003200bc
:100a5000e10f500003003c000000e00006003200ff
:100a600019003700e20f50000d003200e30f500074
:100a70001000320014003700698ea9006b8ea900a7
:100a80006d8ea900618ea80010003700698ea90044
:100a90006b8ea9006d8ea800618ea8000b00370038
:100aa000698ea9006b8ea8006d8ea900618ea800ca
:100ab00006003700698ea9006b8ea9006d8ea90013
:100ac000618ea900010037000000000047013700d7
:100ad0001e4090000080fb00e10f50000f0032002c
:100ae000e10f500003003c000000e000060032006f
:100af00019003700e20f50000d003200e30f5000e4
:100b0000100032001400370069aea9006baea900d6
:100b10006daea90061aea8001000370069aea90053
:100b20006baea9006daea80061aea8000b00370047
:100b300069aea9006baea8006daea90061aea800b9
:100b40000600370069aea9006baea9006daea90022
:100b500061aea9000100370000000000230137004a
:100b60001e4090000080fb00e10f50000f0032009b
:100b7000e10f500003003c000000e00006003200de
:100b800019003700e20f50000d003200e30f500053
:100b9000100032001400370069cea9006bcea90006
:100ba0006dcea90061cea8001000370069cea90063
:100bb0006bcea9006dcea80061cea8000b00370057
:100bc00069cea9006bcea8006dcea90061cea800a9
:100bd0000600370069cea9006bcea9006dcea90032
:100be00061cea9000100370000000000ff003700bf
:100bf0001e4090000080fb00e10f50000f0032000b
:100c0000e10f500003003c000000e000060032004d
:100c100019003700e20f50000d003200e30f5000c2
:100c2000100032001400370069eea9006beea90035
:100c30006deea90061eea8001000370069eea90072
:100c40006beea9006deea80061eea8000b00370066
:100c500069eea9006beea8006deea90061eea80098
:100c60000600370069eea9006beea9006deea90041
:100c700061eea9000100370000000000db00370032
:100c80001e4090000080fb00e10f50000f0032007a
:100c9000e10f500003003c000000e00006003200bd
:100ca00019003700e20f50000d003200e30f500032
:100cb000100032001400370068cea9006acea900e7
:100cc0006ccea90060cea8001000370068cea90045
:100cd0006acea9006ccea80060cea8000b00370039
:100ce00068cea9006acea8006ccea90060cea8008c
:100cf0000600370068cea9006acea9006ccea90014
:100d000060cea9000100370000000000b7003700e6
:100d10001e4090000080fb00e10f50000f003200e9
:100d2000e10f500003003c000000e000060032002c
:100d300019003700e20f50000d003200e30f5000a1
:100d4000100032001400370068eea9006aeea90016
:100d50006ceea90060eea8001000370068eea90054
:100d60006aeea9006ceea80060eea8000b00370048
:100d700068eea9006aeea8006ceea90060eea8007b
:100d80000600370068eea9006aeea9006ceea90023
:100d900060eea9000100370000000000930037005a
:100da0001e4090000080fb00e10f50000f00320059
:100db000e10f500003003c000000e000060032009c
:100dc00019003700e20f50000d003200e30f500011
:100dd0001000320014003700680ea9006a0ea90046
:100de0006c0ea900600ea80010003700680ea90064
:100df0006a0ea9006c0ea800600ea8000b00370058
:100e0000680ea9006a0ea8006c0ea900600ea8006a
:100e100006003700680ea9006a0ea9006c0ea90032
:100e2000600ea90001003700000000006f003700cd
:100e30001e4090000080fb00e10f50000f003200c8
:100e4000e10f500003003c000000e000060032000b
:100e500019003700e20f50000d003200e30f500080
:100e60001000320014003700682ea9006a2ea90075
:100e70006c2ea900602ea80010003700682ea90073
:100e80006a2ea9006c2ea800602ea8000b00370067
:100e9000682ea9006a2ea8006c2ea900602ea8005a
:100ea00006003700682ea9006a2ea9006c2ea90042
:100eb000602ea90001003700000000004b00370041
:100ec0001e4090000080fb00e10f50000f00320038
:100ed000e10f500003003c000000e000060032007b
:100ee00019003700e20f50000d003200e30f5000f0
:100ef0001000320014003700692ea9006b2ea900e3
:100f00006d2ea900612ea80010003700692ea900df
:100f10006b2ea9006d2ea800612ea8000b003700d3
:100f2000692ea9006b2ea8006d2ea900612ea800c5
:100f300006003700692ea9006b2ea9006d2ea900ae
:100f4000612ea900010037000000000027003700d3
:100f50001e4090000080fb00e10f50000f003200a7
:100f6000e10f500003003c000000e00006003200ea
:100f700019003700e20f50000d003200e30f50005f
:100f80001000320014003700690ea9006b0ea90092
:100f90006d0ea900610ea80010003700690ea900af
:100fa0006b0ea9006d0ea800610ea8000b003700a3
:100fb000690ea9006b0ea8006d0ea900610ea800b5
:100fc00006003700690ea9006b0ea9006d0ea9007e
:100fd000610ea90001003700000000000300370087
:100fe0000000000001003700000000000080fa004f
:100ff000000006000200fa00004f78001147980038
:101000001e80fb0011022000810f500017003200eb
:1010100011022000810f500006003c00ec0f500030
:101020002700320001022000810f5000080032002a
:101030002a00370021022000810f500012003200e8
:1010400031022000810f50001600320023003700cb
:101050001e4090000004e00002003a00150ea900b6
:101060001e003700150ea8001c0037001e4090001f
:101070000004e00002003a00152ea9001700370016
:10108000152ea800150037001e4090000004e00057
:1010900002003a00154ea90010003700154ea800b6
:1010a0000e0037001e4090000004e00002003a00ed
:1010b000156ea90009003700156ea800070037005b
:1010c0001e4090000004e00002003a00650ea900f6
:1010d00002003700650ea800000000000080fa0042
:1010e000000006000200fa00004f78001e80fb009e
:1010f00011022000810f50001e003200110220005a
:10110000810f500006003c00ec0f500043003200fd
:1011100001022000810f5000080032004d0037000e
:1011200021022000810f50002000320031022000f7
:10113000810f50002b0032004600370000c2b30080
:10114000460007000080fb000000e9004f00de00c1
:10115000004078000080fb00610060004800dd0076
:10116000a17080000180a10001007000a0708800c3
:101170003800370010c2b300380007000080fb00c1
:101180000000e9004f00de00004078000080fb0016
:10119000610060004900dd00a17080000190a100a5
:1011a00001007000a07088002a00370020c2b30040
:1011b0002a0007000080fb000000e9004f00de006d
:1011c000004078000080fb00610060004a00dd0004
:1011d000a170800001a0a10001007000a070880033
:1011e0001c00370030c2b3001c0007000080fb0069
:1011f0000000e9004f00de00004078000080fb00a6
:10120000610060004b00dd00a170800001b0a10012
:1012100001007000a07088000e003700c0c0b3004d
:101220000e0007000080fb000000e9004f00de0018
:10123000004078000080fb00610060004800dd0095
:10124000217380000180a1000100700020738800dc
:10125000000000000080fa00000006000200fa0012
:10126000004f78001e80fb006101b9000080eb0098
:101270008080eb00020040008380480002062000ce
:1012800003002000820f5000838f58009a003e0018
:10129000000601006c003700970037009600370009
:1012a0009500370094003700930037009200370014
:1012b0009100370090003700770037007a00370040
:1012c000890037008c003700830037008a00370020
:1012d0008900370088003700870037008600370014
:1012e0008500370084003700830037008200370014
:1012f00081003700800037007f0037007e00370014
:101300007d0037007c0037007b0037007a00370013
:101310005100370054003700570037005a0037009b
:101320007500370074003700730037007200370013
:1013300071003700700037006f0037006e00370013
:101340006d0037006c0037006b0037006a00370013
:101350006900370068003700670037006600370013
:101360006500370064003700630037006200370013
:1013700061003700600037005f0037005e00370013
:101380005d0037005c0037005b0037005a00370013
:101390005900370058003700570037005600370013
:1013a0005500370054003700530037005200370013
:1013b00051003700500037004f0037004e00370013
:1013c0004d0037004c0037004b0037004a00370013
:1013d0004900370048003700470037004600370013
:1013e0004500370044003700430037004200370013
:1013f00041003700340037002f0037003e0037002f
:101400003d0037003c0037003b0037000a00370042
:101410000100370004003700107380004c00de002c
:101420006140600035003700107380004d00de0021
:101430006140600031003700107380004e00de0014
:10144000614060002d003700107380004f00de0007
:101450000040780029003700907080004800de00ce
:101460006140600025003700907080004900de0078
:101470006140600021003700907080004a00de006b
:10148000614060001d003700907080004b00de005e
:101490006140600019003700107380004600de00d4
:1014a0006140600015003700107380004700de00c7
:1014b0006140600011003700107380000040780028
:1014c000614060000d003700107380000000d10003
:1014d0006140600009003700107380004900de00a1
:1014e0006140600005003700107380004800de0096
:1014f00061406000010037000040eb000080fa000e
:10150000000006000400fa00100798000000eb003d
:10151000000f78000e0037000000eb00000f78008d
:101520000400370000000000000000000000000080
:101530001e0fe800a01420009e007800808f50004d
:10154000f8ff36001e0090000000e9001007980028
:101550001e0090000000e000efff3a000080fa005b
:10156000000006000000fa00701c2000303a8800dd
:10157000213a8000f0f32f00008060000070a0008e
:10158000203a8800213a800000fe2f000080600091
:101590000010a000203a880031c0b30000c2b300a0
:1015a00017fc070031c0b30010c2b30014fc0700e1
:1015b00031c0b30020c2b30011fc070031c0b3003a
:1015c00030c2b3000efc070021c0b30000c6b30058
:1015d0000bfc070021c0b30010c6b30008fc0700d5
:1015e00021c0b300f0c5b30005fc070021c0b30063
:1015f00010c0b30002fc070011c0b30000c2b3006a
:101600007cfe07008040eb0000c2b30079fe0700bb
:04161000f9ff3700a7
:020000040000fa
:0200000401f009
:04000c00fbff0000f6
:020000040000fa
:0200000401f009
:04001000feff0000ef
:00000001FF
