:020000040000fa
:080000000002040000000000f2
:020000040000fa
:04000800fa020000f8
:020000040000fa
:04000c00fa020000f4
:020000040000fa
:04001000fa020000f0
:020000040000fa
:04001400fa020000ec
:020000040000fa
:04001800fa020000e8
:020000040000fa
:04001c00fa020000e4
:020000040000fa
:04002000fa020000e0
:020000040000fa
:04002400fa020000dc
:020000040000fa
:04002800fa020000d8
:020000040000fa
:04002c00fa020000d4
:020000040000fa
:04003000fa020000d0
:020000040000fa
:040034009817000019
:020000040000fa
:04003800fa020000c8
:020000040000fa
:04003c00fa020000c4
:020000040000fa
:04004000fa020000c0
:020000040000fa
:04004400fa020000bc
:020000040000fa
:04004800fa020000b8
:020000040000fa
:04004c00fa020000b4
:020000040000fa
:04005000fa020000b0
:020000040000fa
:04005400fa020000ac
:020000040000fa
:04005800fa020000a8
:020000040000fa
:04005c00fa020000a4
:020000040000fa
:04006000fa020000a0
:020000040000fa
:04006400fa0200009c
:020000040000fa
:04006800fa02000098
:020000040000fa
:04006c00fa02000094
:020000040000fa
:04007000fa02000090
:020000040000fa
:04007400fa0200008c
:020000040000fa
:04007800fa02000088
:020000040000fa
:04007c00fa02000084
:020000040000fa
:04008000fa02000080
:020000040000fa
:04008400fa0200007c
:020000040000fa
:04008800fa02000078
:020000040000fa
:04008c00fa02000074
:020000040000fa
:04009000fa02000070
:020000040000fa
:04009400fa0200006c
:020000040000fa
:04009800fa02000068
:020000040000fa
:04009c00fa02000064
:020000040000fa
:0400a000fa02000060
:020000040000fa
:0400a400fa0200005c
:020000040000fa
:0400a800fa02000058
:020000040000fa
:0400ac00fa02000054
:020000040000fa
:0400b000fa02000050
:020000040000fa
:0400b400fa0200004c
:020000040000fa
:0400b800fa02000048
:020000040000fa
:0400bc00fa02000044
:020000040000fa
:0400c000fa02000040
:020000040000fa
:0400c400fa0200003c
:020000040000fa
:0400c800fa02000038
:020000040000fa
:0400cc00fa02000034
:020000040000fa
:0400d000fa02000030
:020000040000fa
:0400d400fa0200002c
:020000040000fa
:0400d800fa02000028
:020000040000fa
:0400dc00fa02000024
:020000040000fa
:0400e000fa02000020
:020000040000fa
:0400e400fa0200001c
:020000040000fa
:0400e800fa02000018
:020000040000fa
:0400ec00fa02000014
:020000040000fa
:0400f000fa02000010
:020000040000fa
:0400f400fa0200000c
:020000040000fa
:0400f800fa02000008
:020000040000fa
:0400fc00fa02000004
:020000040000fa
:04010000fa020000ff
:020000040000fa
:04010400fa020000fb
:020000040000fa
:04010800fa020000f7
:020000040000fa
:04010c00fa020000f3
:020000040000fa
:04011000fa020000ef
:020000040000fa
:04011400fa020000eb
:020000040000fa
:04011800fa020000e7
:020000040000fa
:04011c00fa020000e3
:020000040000fa
:04012000fa020000df
:020000040000fa
:04012400fa020000db
:020000040000fa
:04012800fa020000d7
:020000040000fa
:04012c00fa020000d3
:020000040000fa
:04013000fa020000cf
:020000040000fa
:04013400fa020000cb
:020000040000fa
:04013800fa020000c7
:020000040000fa
:04013c00fa020000c3
:020000040000fa
:04014000fa020000bf
:020000040000fa
:04014400fa020000bb
:020000040000fa
:04014800fa020000b7
:020000040000fa
:04014c00fa020000b3
:020000040000fa
:04015000fa020000af
:020000040000fa
:04015400fa020000ab
:020000040000fa
:04015800fa020000a7
:020000040000fa
:04015c00fa020000a3
:020000040000fa
:04016000fa0200009f
:020000040000fa
:04016400fa0200009b
:020000040000fa
:04016800fa02000097
:020000040000fa
:04016c00fa02000093
:020000040000fa
:04017000fa0200008f
:020000040000fa
:04017400fa0200008b
:020000040000fa
:04017800fa02000087
:020000040000fa
:04017c00fa02000083
:020000040000fa
:04018000fa0200007f
:020000040000fa
:04018400fa0200007b
:020000040000fa
:04018800fa02000077
:020000040000fa
:04018c00fa02000073
:020000040000fa
:04019000fa0200006f
:020000040000fa
:04019400fa0200006b
:020000040000fa
:04019800fa02000067
:020000040000fa
:04019c00fa02000063
:020000040000fa
:0401a000fa0200005f
:020000040000fa
:0401a400fa0200005b
:020000040000fa
:0401a800fa02000057
:020000040000fa
:0401ac00fa02000053
:020000040000fa
:0401b000fa0200004f
:020000040000fa
:0401b400fa0200004b
:020000040000fa
:0401b800fa02000047
:020000040000fa
:0401bc00fa02000043
:020000040000fa
:0401c000fa0200003f
:020000040000fa
:0401c400fa0200003b
:020000040000fa
:0401c800fa02000037
:020000040000fa
:0401cc00fa02000033
:020000040000fa
:0401d000fa0200002f
:020000040000fa
:0401d400fa0200002b
:020000040000fa
:0401d800fa02000027
:020000040000fa
:0401dc00fa02000023
:020000040000fa
:0401e000fa0200001f
:020000040000fa
:0401e400fa0200001b
:020000040000fa
:0401e800fa02000017
:020000040000fa
:0401ec00fa02000013
:020000040000fa
:0401f000fa0200000f
:020000040000fa
:0401f400fa0200000b
:020000040000fa
:0401f800fa02000007
:020000040000fa
:0401fc00fa02000003
:020000040000fa
:04020000fa020000fe
:020000040000fa
:04020400fa020000fa
:020000040000fa
:04020800fa020000f6
:020000040000fa
:04020c00fa020000f2
:020000040000fa
:04021000fa020000ee
:020000040000fa
:04021400fa020000ea
:020000040000fa
:04021800fa020000e6
:020000040000fa
:04021c00fa020000e2
:020000040000fa
:04022000fa020000de
:020000040000fa
:04022400fa020000da
:020000040000fa
:04022800fa020000d6
:020000040000fa
:04022c00fa020000d2
:020000040000fa
:04023000fa020000ce
:020000040000fa
:04023400fa020000ca
:020000040000fa
:04023800fa020000c6
:020000040000fa
:04023c00fa020000c2
:020000040000fa
:04024000fa020000be
:020000040000fa
:04024400fa020000ba
:020000040000fa
:04024800fa020000b6
:020000040000fa
:04024c00fa020000b2
:020000040000fa
:04025000fa020000ae
:020000040000fa
:04025400fa020000aa
:020000040000fa
:04025800fa020000a6
:020000040000fa
:04025c00fa020000a2
:020000040000fa
:04026000fa0200009e
:020000040000fa
:04026400fa0200009a
:020000040000fa
:100400004f0321000eff2d000e01880000000000a8
:10041000000020000000e000020032000001200087
:100420002002880014000700740007000000e000ac
:1004300003003a00e07b21000100200002003700a9
:100440000000200001002000810f70000100320038
:100450000f000700000020000000e0000200320052
:100460000000020000000000dc1602000000000096
:100470000040da000000fe00200020000000e00044
:1004800002003200100020009001880000000600e9
:10049000a1028800800478000000eb001f003700f4
:1004a000e284440054a0b4009905ba00e2844400f8
:1004b00054a0b4009906ba00e284440054a0b400e9
:1004c0000006eb00476fde00fd07b200ae018800ba
:1004d000636ce10003003a000ad801000000eb0061
:1004e0000e003700606ce10008003a00004deb00a0
:1004f0000a05e800020039003420ec000af0a000f0
:100500008b05e900f9ff3e00040037006168e10057
:10051000010032000086eb000b00070019c7ba008b
:100520001905ba000e04e00003003a000a00e000da
:10053000dbff3a0000000600fe07b200ae028800b2
:100540008a047800f5ff37000cd0a300e20f4d00bd
:100550001c00390089027800354dba000a05e80010
:10056000020039003420ec000af0a0008b05e900fd
:100570000f003200254dba000a05e80002003900dc
:100580003420ec000af0a0008b05e90008003200de
:100590000c00e0000600320015cdba000a05e800a4
:1005a000020039003420ec000af0a0008b05e900bd
:1005b0008984e80054a0b4000b00e000e2ff3a0098
:1005c000000006009902ba00055d78008b05e9007d
:1005d000f7ff3200c82ade00055d78008b05e900d0
:1005e000f3ff32000c00e000f1ff320019ddba0029
:1005f000eeff37000040da000000fe0000000500ba
:100600006022b800060220000000d0008180d200e5
:100610000482d2008582d2000000a00002025200b3
:1006200083825a00030031000202420083824a00a2
:100630000000a1000603e900f3ff3a0000000600f5
:10064000889fbe008a9fbe0030044200b0844a00ea
:1006500030054b0090854b006000b1000898be004b
:100660000a90be000440e10005c8e10006d0e100a8
:1006700007d8e10002003100680040001008e800df
:100680004f05be004f04be0000000600889fbe005c
:100690008a9fbe003004be002005be00041854002e
:1006a00005985c0006185d0007985d0011002000a9
:1006b0000440e10005c8e10006d0e10007d8e100f0
:1006c000010039008000eb00108810004f05be00cb
:1006d0004f04be00000006001200fa00889fbe0012
:1006e0008a9fbe008c9fbe00e0b79f00f1b79f00bd
:1006f00082bf9f0093bf9f000605be000404be009a
:100700000000eb00d0b79f00c0b79f00b0b79f00bc
:10071000a0b79f0090b79f000006eb005fb1970065
:10072000cfb09700820141003fb097000200e00087
:1007300004003d00370007007e805700c0ff07001f
:1007400003003700330007007e805700cfff07000b
:10075000dfb697000d00e0000c0035006fb2970087
:10076000ffb297000fbb97009fbb970010002000bf
:10077000010020006011b800000272008182720046
:1007800002037300838373001b0007000c06e8005c
:1007900001042000810f5600e0ff3a000d00e00048
:1007a00004003d000802be000a03be007e80570020
:1007b000a3ff07005fa897000000e00005003a00d3
:1007c0001fb29700afb297003fb39700cfb3970027
:1007d000090007006fb09700ffb097000fb99700ae
:1007e0009fb997004f06be004f05be004f04be00e4
:1007f0000080fa000000060001000700000006006b
:10080000a4b79f00b5b79f00c6b79f00d7b79f009a
:10081000000006004f09de0082817100b3b79f001f
:100820004f01de008180400082807000a1b79f00f0
:100830008fb097004f09de000000400002007000fa
:1008400090b79f007fa897004f01de008180400095
:100850008280700081b79f000d0007004f3ade00d4
:100860000000400004007000f0af9f000800070087
:100870000402420085824a0006034b0087834b0036
:10088000dfff07000802be000a03be0000000600ea
:100890002fb29700bfb297004fb39700dfb3970016
:1008a00000000600881f780018002000881f7800cc
:1008b00089ff07008f87e9004f04780000000600d9
:1008c000801feb0084ff07008f87e900000006000f
:1008d000889fbe008a9fbe00e00f5000e08f580046
:1008e000e00f5900e08f59000c003d006044b80053
:1008f0006055b8000000540081805c0002015d007a
:1009000083815d00180020001500070008003d00ed
:10091000180007000004eb00050037000004eb009e
:100920000f00070002003d00120007001800200021
:10093000dcff07000800e000060032006022b8007b
:100940006033b8000000520081805a0002015b0051
:1009500083815b004f05be004f04be00000006000f
:10096000e00f5200e08f5a00e00f5b00e08f5b0069
:10097000000006006044b8006055b800040254004e
:1009800085825c0006035d0087835d000000060031
:10099000889fbe008a9fbe008c1f7800e00f500029
:1009a000e08f5800e00f5900e08f59000d003d0026
:1009b0006044b8006055b8000000540081805c00bd
:1009c00002015d0083815d001c0020000820e10021
:1009d00009a8e1000ab0e1000bb8e1000d003d00fc
:1009e000080037000006eb00e00f5200e08f5a00cd
:1009f000e00f5b00e08f5b0006003d006044b80044
:100a00006055b8000402540085825c0006035d0056
:100a100087835d00aaff07000c00e000060032009b
:100a20006022b8006033b8000000520081805a0094
:100a300002015b0083815b004f0678004f05be001a
:100a40004f04be0000000600889fbe008a9fbe00c3
:100a50008c1f78000006eb00e00f5000e08f58007c
:100a6000e00f5900e08f590007003d006044b800d6
:100a70006055b8000000540081805c0002015d00f8
:100a800083815d001c002000e00f5200e08f5a00bf
:100a9000e00f5b00e08f5b0007003d006044b800a2
:100aa0006055b8000402540085825c0006035d00b6
:100ab00087835d000c00a2000c0007000c00e00022
:100ac000060032006022b8006033b8000000520017
:100ad00081805a0002015b0083815b004f06780031
:100ae0004f05be004f04be0000000600889fbe00f8
:100af0008a9fbe008c9fbe000404b8000506b800a3
:100b00008904460060854e000606b8000a054600c6
:100b1000e0854e000706b8008b054600040eb800bd
:100b2000890446000a854e00e0854d00050eb80098
:100b30000a0546008b854e00060eb8008b05460060
:100b40000416b8000a0546008b854e000516b8004d
:100b50008b054600041eb8008b0546000800be0049
:100b60000a01be004f06be004f05be004f04be0086
:040b7000000006007b
:020000040000fa
:100b74000c00fa00004f7800120798002307980031
:100b84003407980045079800214f98000040eb0077
:100b94000080fa00000006000000fa000080fa005d
:100ba400000006001800fa0000579800120f980081
:100bb400230f98006157980005e1a9000421a900ba
:100bc40004c1a90021088000f0fc2f00008060000f
:100bd4000050a000200888000021ef000080eb00f6
:100be4001008880001428000f0ff280000806000a7
:100bf400004288000068a9002068a90005e1a80057
:100c04000e519000c1022100824878001e08900015
:100c1400ae08900002402f001300200077fe07006a
:100c24006011b800009fbe000297be006e50900095
:100c34000080fb008000eb006011b8003e02be00a3
:100c44002e03be007fff070044062000050020009d
:100c54006033b80012ff070040079800510798005e
:100c640062079800730798004e0090004081880046
:100c74009e007800408180000080500050818800f0
:100c84000080fa00000006000200fa00000880005c
:100c9400000f78002dd0bf000004e0000d003a00e2
:100ca400708180009e00100050818000808f500071
:100cb400130035002cd0bf0011c0b3003706070065
:100cc400000880007081880010c0b3002df0b700c8
:100cd4000b003700708180009e001000408180006e
:100ce400808f5000060035002cd0bf008040eb0000
:100cf4002a06070000088000708188002d70ef002c
:100d04000080fa00000006001600fa00000f9800a8
:100d1400110f9800425798000e0890009e0890000a
:100d240002402f001300200034fe07006011b800b9
:100d3400009fbe000297be004e5090000080fb0052
:100d44008000eb006011b8003e02be002e03be001e
:100d54003cff070044062000050020006033b80073
:100d6400cffe0700400798005107980062079800db
:100d7400730798004e009000408188009e00780020
:100d84004081800000805000508188000080fa007b
:100d9400000006000800fa00004f78001147980090
:100da40022479800334798004447980055479800d5
:100db40066479800774798001e80fb00e50f5000b7
:100dc40019013200e50f50000c003c00e20f500006
:100dd4005a003200e20f500003003c00e10f5000c3
:100de4000f00320044023700e30f5000920032003b
:100df400e40f5000cd0032003f023700e70f5000ef
:100e040085013200e70f500044013500e80f50001f
:100e1400bd013200e90f5000fa01320036023700fa
:100e240005e1a9001e409000614060000080fb00c5
:100e3400610060004d00dd002108800001d0a100a8
:100e440001007000200888002e409000614060007e
:100e54000080fb00610060004600dd002108800086
:100e64000160a10001007000200888003e4090004d
:100e7400634060000080fb00630060004400dd000c
:100e840022088000f1fc2f00810061000100700045
:100e9400200888004e409000614060000080fb0004
:100ea400610060004200dd00210880000120a100f3
:100eb40001007000200888005e40900061406000de
:100ec4000080fb00610060000000400021088000f9
:100ed4000110a10001007000200888007e409000ed
:100ee400674060000080fb00670060004c00dd008c
:100ef40002428000f1ff28008100610001007000bf
:100f0400004288000068a9006e40900061406000c3
:100f14000080fb00610060004300dd0001418000af
:100f24000130a10001007000004188000021ef00a1
:100f34000080eb0010088800ef01370011e1a900e0
:100f44001e409000614060000080fb006100600072
:100f54004d00dd008108800001d0a1000100700077
:100f6400800888002e409000614060000080fb00f3
:100f7400610060004600dd00810880000160a1007e
:100f840001007000800888003e40900063406000cb
:100f94000080fb00630060004400dd0082088000e4
:100fa400f1fc2f00810061000100700080088800be
:100fb4005e409000614060000080fb0061006000c2
:100fc40000004000810880000110a10001007000b1
:100fd400800888001061a9007e409000674060008e
:100fe4000080fb00670060004c00dd0012428000be
:100ff400f1ff2800810061000100700010428800a8
:1010040000e8a9006e409000614060000080fb0091
:10101400610060004700dd00014180000170a10013
:1010240001007000004188000621ef000080eb0001
:1010340060088800b001370013e1a9001e40900049
:10104400614060000080fb00610060004d00dd0035
:101054009108800001d0a100010070009008880070
:101064002e409000614060000080fb006100600041
:101074004600dd00910880000160a10001007000bd
:10108400900888003e409000634060000080fb00b0
:10109400630060004400dd0092088000f1fc2f0032
:1010a4008100610001007000900888005e4090009b
:1010b400614060000080fb006100600000004000af
:1010c400910880000110a1000100700090088800c0
:1010d4007e409000674060000080fb006700600075
:1010e4002242800081ff2f00810061000100700016
:1010f400204288000108a9006e4090006140600011
:101104000080fb00610060004800dd0001418000b8
:101114000180a10001007000004188000a21ef0055
:101124000080eb0070088800730137001fe1a900fc
:101134001e409000614060000080fb006100600080
:101144004d00dd00f108800001d0a1000100700015
:10115400f00888002e409000614060000080fb0091
:10116400610060004600dd00f10880000160a1001c
:1011740001007000f00888003e4090006340600069
:101184000080fb00630060004400dd00f208800082
:10119400f1fc2f008100610001007000f00888005c
:1011a4005e409000614060000080fb0061006000d0
:1011b40000004000f10880000110a100010070004f
:1011c400f00888001e61a9007e409000674060001e
:1011d4000080fb00670060004c00dd00624280007c
:1011e400f1ff280081006100010070006042880066
:1011f4000368a9006e409000614060000080fb001d
:10120400610060004b00dd001141800001b0a100cd
:1012140001007000104188001421ef000080eb00f1
:10122400d00888003401370021e1a9001e40900055
:10123400614060000080fb00610060004d00dd0043
:101244000109800001d0a10001007000000988009c
:101254002e409000614060000080fb00610060004f
:101264004600dd00010980000160a100010070005a
:10127400000988003e409000634060000080fb004d
:10128400630060004400dd0002098000f1fc2f00cf
:101294008100610001007000000988005e40900038
:1012a400614060000080fb006100600000004000bd
:1012b400010980000110a1000100700000098800ec
:1012c4007e409000674060000080fb006700600083
:1012d4007242800081ff2f008100610001007000d4
:1012e400704288000388a9006e409000614060004d
:1012f4000080fb00610060004c00dd0011418000b3
:1013040001c0a10001007000104188001821ef0005
:101314000080eb00e0088800f70037002de1a90009
:101324001e409000614060000080fb00610060008e
:101334004d00dd006109800001d0a10001007000b2
:10134400600988002e409000614060000080fb002e
:10135400610060004600dd00610980000160a100b9
:1013640001007000600988003e4090006340600006
:101374000080fb00630060004400dd00620980001f
:10138400f1fc2f00810061000100700060098800f9
:101394005e409000614060000080fb0061006000de
:1013a40000004000610980000110a10001007000ec
:1013b400600988002c61a9007e40900067406000ad
:1013c4000080fb00670060004c00dd00b24280003a
:1013d400f1ff28008100610001007000b042880024
:1013e40005e8a9006e409000614060000080fb00a9
:1013f4004f00dd0022418000f1ff270081006100e1
:1014040001007000204188002221ef000080eb00e1
:1014140040098800b80037002fe1a9001e40900061
:10142400614060000080fb00610060004d00dd0051
:101434007109800001d0a1000100700070098800ca
:101444002e409000614060000080fb00610060005d
:101454004600dd00710980000160a10001007000f8
:10146400700988003e409000634060000080fb00eb
:10147400630060004400dd0072098000f1fc2f006d
:101484008100610001007000700988005e409000d6
:10149400614060000080fb006100600000004000cb
:1014a400710980000110a10001007000700988001a
:1014b4007e409000674060000080fb006700600091
:1014c400c242800081ff2f00810061000100700092
:1014d400c04288000608a9006e4090006140600088
:1014e4000080fb0061006000314180000100a10028
:1014f40001007000304188002621ef000080eb00dd
:10150400500988007c0037003be1a9001e40900090
:10151400614060000080fb00610060004d00dd0060
:10152400d109800001d0a10001007000d009880019
:101534002e409000614060000080fb00610060006c
:101544004600dd00d10980000160a10001007000a7
:10155400d00988003e409000634060000080fb009a
:10156400630060004400dd00d2098000f1fc2f001c
:101574008100610001007000d00988005e40900085
:10158400614060000080fb006100600000004000da
:10159400d10980000110a10001007000d009880069
:1015a4003a61a9007e409000674060000080fb0023
:1015b400670060004c00dd00c2428000f1ff28009b
:1015c4008100610001007000c04288000668a90023
:1015d4006e409000614060000080fb00610060008c
:1015e4004300dd00314180000130a10001007000a2
:1015f400304188003021ef000080eb00b009880002
:101604003d0037003de1a9001e40900061406000ac
:101614000080fb00610060004d00dd00e1098000f6
:1016240001d0a10001007000e00988002e40900064
:10163400614060000080fb00610060004600dd0046
:10164400e10980000160a10001007000e009880048
:101654003e409000634060000080fb006300600037
:101664004400dd00e2098000f1fc2f0081006100ec
:1016740001007000e00988005e4090006140600055
:101684000080fb006100600000004000e109800070
:101694000110a10001007000e00988007e40900064
:1016a400674060000080fb0067006000d242800059
:1016b40081ff2f008100610001007000d04288008a
:1016c4000688a9006e409000614060000080fb0025
:1016d400610060004400dd00314180000140a10050
:1016e40001007000304188003421ef000080eb00dd
:1016f400c0098800000000000080fa000000060015
:101704000200fa00004f78001e80fb00e50f500035
:101714001f003200e50f50000c003c00e20f5000a7
:1017240015003200e20f500003003c00e10f5000ae
:101734000f00320020003700e30f50001000320089
:10174400e40f5000100032001b003700e70f500078
:1017540013003200e70f50000f003500e80f50006f
:1017640011003200e90f500011003200120037005e
:1017740005e1a8001000370011e1a8000e003700b1
:1017840013e1a8000c0037001fe1a8000a0037008d
:1017940021e1a800080037002de1a8000600370069
:1017a4002fe1a800040037003be1a8000200370045
:1017b4003de1a800000000000080fa0000000600df
:1017c4000200fa00004f78001e80fb00e50f500075
:1017d4001f003200e50f50000c003c00e20f5000e7
:1017e40015003200e20f500003003c00e10f5000ee
:1017f4000f00320020003700e30f500010003200c9
:10180400e40f5000100032001b003700e70f5000b7
:1018140013003200e70f50000f003500e80f5000ae
:1018240011003200e90f500011003200120037009d
:1018340005e1a9001000370011e1a9000e003700ee
:1018440013e1a9000c0037001fe1a9000a003700ca
:1018540021e1a900080037002de1a90006003700a6
:101864002fe1a900040037003be1a9000200370082
:101874003de1a900000000000080fa00000006001d
:101884000400fa00004f7800110798001e80fb0046
:10189400e50f500023003200e50f50000c003c001f
:1018a400e20f500016003200e20f500003003c002b
:1018b400e10f50000f00320029003700e30f500001
:1018c40012003200e40f50001300320024003700ed
:1018d400e70f500019003200e70f500014003500e4
:1018e400e80f500018003200e90f500019003200d0
:1018f4001b0037009e009000110888001800370074
:101904009e00900061088800150037009e0090003a
:1019140071088800120037009e009000d1088800ea
:101924000f0037009e009000e10888000c0037008b
:101934009e00900041098800090037009e00900035
:1019440051098800060037009e009000b109880004
:10195400030037009e009000c109880000000000c9
:101964000080fa00000006000200fa00004f780030
:101974001e80fb00e50f50001f003200e50f5000f1
:101984000c003c00e20f500015003200e20f500042
:1019940003003c00e10f50000f003200200037002c
:1019a400e30f500010003200e40f5000100032002a
:1019b4001b003700e70f500013003200e70f500000
:1019c4000f003500e80f500011003200e90f5000fd
:1019d40011003200120037002068a90010003700ff
:1019e40020e8a9000e0037002108a9000c003700e8
:1019f4002368a9000a0037002388a90008003700db
:101a040025e8a900060037002608a90004003700cd
:101a14002668a900020037002688a90000000000fb
:101a24000080fa00000006000200fa00004f78006f
:101a34001e80fb00e50f50001f003200e50f500030
:101a44000c003c00e20f500015003200e20f500081
:101a540003003c00e10f50000f003200200037006b
:101a6400e30f500010003200e40f50001000320069
:101a74001b003700e70f500013003200e70f50003f
:101a84000f003500e80f500011003200e90f50003c
:101a940011003200120037002068a800100037003f
:101aa40020e8a8000e0037002108a8000c00370029
:101ab4002368a8000a0037002388a800080037001c
:101ac40025e8a800060037002608a800040037000f
:101ad4002668a800020037002688a800000000003d
:101ae4000080fa00000006000200fa00004f7800af
:101af4001e80fb00e50f50001f003200e50f500070
:101b04000c003c00e20f500015003200e20f5000c0
:101b140003003c00e10f50000f00320020003700aa
:101b2400e30f500010003200e40f500010003200a8
:101b34001b003700e70f500013003200e70f50007e
:101b44000f003500e80f500011003200e90f50007b
:101b540011003200120037000068a900100037009d
:101b640000e8a9000e0037000108a9000c003700a6
:101b74000368a9000a0037000388a9000800370099
:101b840005e8a900060037000608a900040037008c
:101b94000668a900020037000688a90000000000ba
:101ba4000080fa00000006000200fa00004f7800ee
:101bb400114798001e80fb006101b9000080eb0012
:101bc4008080eb0002004000838048000206200071
:101bd40003002000820f5000838f58006a023e00e9
:101be400000601006c013700690237006802370003
:101bf4006702370066023700650237006402370067
:101c0400630237006202370087013700aa013700f8
:101c1400390237005e023700130237005c023700d6
:101c24005b0237005a023700590237005802370066
:101c34005702370056023700550237005402370066
:101c44005302370052023700510237005002370066
:101c54004f0237004e0237004d0237004c02370066
:101c640041003700680037008f003700b6003700a6
:101c74004702370046023700450237004402370066
:101c84004302370042023700410237004002370066
:101c94003f0237003e0237003d0237003c02370066
:101ca4003b0237003a023700390237003802370066
:101cb4003702370036023700350237003402370066
:101cc4003302370032023700310237003002370066
:101cd4002f0237002e0237002d0237002c02370066
:101ce4002b0237002a023700290237002802370066
:101cf4002702370026023700250237002402370066
:101d04002302370022023700210237002002370065
:101d14001f0237001e0237001d0237001c02370065
:101d24001b0237001a023700190237001802370065
:101d34001702370016023700150237001402370065
:101d440013023700a40137007f0137001002370067
:101d54000f0237000e0237000d023700ea00370089
:101d6400a1003700c40037001e4090000080fb0033
:101d7400e10f500010003200e10f500003003c005e
:101d84000000e000060032001d003700e20f5000a2
:101d94000f003200e30f5000130032001800370028
:101da4001f0ea900190ea9001b0ea9001d0ea900e3
:101db400110ea800130037001f0ea900190ea90068
:101dc4001b0ea9001d0ea800110ea8000d0037005f
:101dd4001f0ea900190ea9001b0ea8001d0ea900b4
:101de400110ea800070037001f0ea900190ea90044
:101df4001b0ea9001d0ea900110ea9000100370039
:101e040000000000e30137001e4090000080fb004a
:101e1400e10f500010003200e10f500003003c00bd
:101e24000000e000060032001d003700e20f500001
:101e34000f003200e30f5000130032001800370087
:101e44001f2ea900192ea9001b2ea9001d2ea900c2
:101e5400112ea800130037001f2ea900192ea90067
:101e64001b2ea9001d2ea800112ea8000d0037005e
:101e74001f2ea900192ea9001b2ea8001d2ea90093
:101e8400112ea800070037001f2ea900192ea90043
:101e94001b2ea9001d2ea900112ea9000100370038
:101ea40000000000bb0137001e4090000080fb00d2
:101eb400e10f500010003200e10f500003003c001d
:101ec4000000e000060032001d003700e20f500061
:101ed4000f003200e30f50001300320018003700e7
:101ee4001f4ea900194ea9001b4ea9001d4ea900a2
:101ef400114ea800130037001f4ea900194ea90067
:101f04001b4ea9001d4ea800114ea8000d0037005d
:101f14001f4ea900194ea9001b4ea8001d4ea90072
:101f2400114ea800070037001f4ea900194ea90042
:101f34001b4ea9001d4ea900114ea9000100370037
:101f440000000000930137001e4090000080fb0059
:101f5400e10f500010003200e10f500003003c007c
:101f64000000e000060032001d003700e20f5000c0
:101f74000f003200e30f5000130032001800370046
:101f84001f6ea900196ea9001b6ea9001d6ea90081
:101f9400116ea800130037001f6ea900196ea90066
:101fa4001b6ea9001d6ea800116ea8000d0037005d
:101fb4001f6ea900196ea9001b6ea8001d6ea90052
:101fc400116ea800070037001f6ea900196ea90042
:101fd4001b6ea9001d6ea900116ea9000100370037
:101fe400000000006b0137001e4090000080fb00e1
:101ff400e10f50000f003200e10f500003003c00dd
:102004000000e0000600320019003700e20f500023
:102014000d003200e30f50001000320014003700ae
:10202400698ea9006b8ea9006d8ea900618ea8002f
:1020340010003700698ea9006b8ea9006d8ea80070
:10204400618ea8000b003700698ea9006b8ea80072
:102054006d8ea900618ea80006003700698ea90064
:102064006b8ea9006d8ea900618ea9000100370056
:1020740000000000470137001e4090000080fb0074
:10208400e10f50000f003200e10f500003003c004c
:102094000000e0000600320019003700e20f500093
:1020a4000d003200e30f500010003200140037001e
:1020b40069aea9006baea9006daea90061aea8001f
:1020c4001000370069aea9006baea9006daea80080
:1020d40061aea8000b00370069aea9006baea80082
:1020e4006daea90061aea8000600370069aea90074
:1020f4006baea9006daea90061aea9000100370066
:1021040000000000230137001e4090000080fb0007
:10211400e10f50000f003200e10f500003003c00bb
:102124000000e0000600320019003700e20f500002
:102134000d003200e30f500010003200140037008d
:1021440069cea9006bcea9006dcea90061cea8000e
:102154001000370069cea9006bcea9006dcea8008f
:1021640061cea8000b00370069cea9006bcea80091
:102174006dcea90061cea8000600370069cea90083
:102184006bcea9006dcea90061cea9000100370075
:1021940000000000ff0037001e4090000080fb009c
:1021a400e10f50000f003200e10f500003003c002b
:1021b4000000e0000600320019003700e20f500072
:1021c4000d003200e30f50001000320014003700fd
:1021d40069eea9006beea9006deea90061eea800fe
:1021e4001000370069eea9006beea9006deea8009f
:1021f40061eea8000b00370069eea9006beea800a1
:102204006deea90061eea8000600370069eea90092
:102214006beea9006deea90061eea9000100370084
:1022240000000000db0037001e4090000080fb002f
:10223400e10f50000f003200e10f500003003c009a
:102244000000e0000600320019003700e20f5000e1
:102254000d003200e30f500010003200140037006c
:1022640068cea9006acea9006ccea90060cea800f1
:102274001000370068cea9006acea9006ccea80071
:1022840060cea8000b00370068cea9006acea80073
:102294006ccea90060cea8000600370068cea90065
:1022a4006acea9006ccea90060cea9000100370057
:1022b40000000000b70037001e4090000080fb00c3
:1022c400e10f50000f003200e10f500003003c000a
:1022d4000000e0000600320019003700e20f500051
:1022e4000d003200e30f50001000320014003700dc
:1022f40068eea9006aeea9006ceea90060eea800e1
:102304001000370068eea9006aeea9006ceea80080
:1023140060eea8000b00370068eea9006aeea80082
:102324006ceea90060eea8000600370068eea90074
:102334006aeea9006ceea90060eea9000100370066
:1023440000000000930037001e4090000080fb0056
:10235400e10f50000f003200e10f500003003c0079
:102364000000e0000600320019003700e20f5000c0
:102374000d003200e30f500010003200140037004b
:10238400680ea9006a0ea9006c0ea900600ea800d0
:1023940010003700680ea9006a0ea9006c0ea80090
:1023a400600ea8000b003700680ea9006a0ea80092
:1023b4006c0ea900600ea80006003700680ea90084
:1023c4006a0ea9006c0ea900600ea9000100370076
:1023d400000000006f0037001e4090000080fb00ea
:1023e400e10f50000f003200e10f500003003c00e9
:1023f4000000e0000600320019003700e20f500030
:102404000d003200e30f50001000320014003700ba
:10241400682ea9006a2ea9006c2ea900602ea800bf
:1024240010003700682ea9006a2ea9006c2ea8009f
:10243400602ea8000b003700682ea9006a2ea800a1
:102444006c2ea900602ea80006003700682ea90093
:102454006a2ea9006c2ea900602ea9000100370085
:10246400000000004b0037001e4090000080fb007d
:10247400e10f50000f003200e10f500003003c0058
:102484000000e0000600320019003700e20f50009f
:102494000d003200e30f500010003200140037002a
:1024a400692ea9006b2ea9006d2ea900612ea8002b
:1024b40010003700692ea9006b2ea9006d2ea8000c
:1024c400612ea8000b003700692ea9006b2ea8000e
:1024d4006d2ea900612ea80006003700692ea90000
:1024e4006b2ea9006d2ea900612ea90001003700f2
:1024f40000000000270037001e4090000080fb0011
:10250400e10f50000f003200e10f500003003c00c7
:102514000000e0000600320019003700e20f50000e
:102524000d003200e30f5000100032001400370099
:10253400690ea9006b0ea9006d0ea900610ea8001a
:1025440010003700690ea9006b0ea9006d0ea800db
:10255400610ea8000b003700690ea9006b0ea800dd
:102564006d0ea900610ea80006003700690ea900cf
:102574006b0ea9006d0ea900610ea90001003700c1
:1025840000000000030037000000000001003700d5
:10259400000000000080fa00000006000200fa00bb
:1025a400004f7800114798001e80fb0011022000a4
:1025b400810f50001700320011022000810f5000db
:1025c40006003c00ec0f50002700320001022000fe
:1025d400810f5000080032002a0037002102200039
:1025e400810f50001200320031022000810f500090
:1025f40016003200230037001e4090000004e00063
:1026040002003a00150ea9001e003700150ea8009e
:102614001c0037001e4090000004e00002003a0055
:10262400152ea90017003700152ea8001500370035
:102634001e4090000004e00002003a00154ea9007c
:1026440010003700154ea8000e0037001e40900001
:102654000004e00002003a00156ea90009003700ea
:10266400156ea800070037001e4090000004e0002b
:1026740002003a00650ea90002003700650ea800aa
:10268400000000000080fa00000006000200fa00ca
:10269400004f78001e80fb0011022000810f5000c3
:1026a4001e00320011022000810f500006003c0081
:1026b400ec0f50004300320001022000810f500053
:1026c400080032004d00370021022000810f500025
:1026d4002000320031022000810f50002b00320014
:1026e4004600370000c2b300460007000080fb002c
:1026f4000000e9004f00de00004078000080fb008d
:10270400610060004800dd00a17080000180a1002c
:1027140001007000a07088003800370010c2b300b8
:10272400380007000080fb000000e9004f00de00d5
:10273400004078000080fb00610060004900dd007b
:10274400a17080000190a10001007000a0708800b9
:102754002a00370020c2b3002a0007000080fb00d3
:102764000000e9004f00de00004078000080fb001c
:10277400610060004a00dd00a170800001a0a1009a
:1027840001007000a07088001c00370030c2b30044
:102794001c0007000080fb000000e9004f00de0081
:1027a400004078000080fb00610060004b00dd0009
:1027b400a170800001b0a10001007000a070880029
:1027c4000e003700c0c0b3000e0007000080fb00fd
:1027d4000000e9004f00de00004078000080fb00ac
:1027e400610060004800dd00217380000180a100c9
:1027f4000100700020738800000000000080fa00cf
:10280400000006000200fa00004f78001e80fb0062
:102814006101b9000080eb008080eb000200400001
:10282400838048000206200003002000820f50002d
:10283400838f58009a003e00000601006c003700a8
:102844009700370096003700950037009400370052
:102854009300370092003700910037009000370052
:10286400770037007a003700890037008c00370082
:10287400830037008a00370089003700880037005a
:102884008700370086003700850037008400370052
:102894008300370082003700810037008000370052
:1028a4007f0037007e0037007d0037007c00370052
:1028b4007b0037007a00370051003700540037009e
:1028c400570037005a00370075003700740037008e
:1028d4007300370072003700710037007000370052
:1028e4006f0037006e0037006d0037006c00370052
:1028f4006b0037006a003700690037006800370052
:102904006700370066003700650037006400370051
:102914006300370062003700610037006000370051
:102924005f0037005e0037005d0037005c00370051
:102934005b0037005a003700590037005800370051
:102944005700370056003700550037005400370051
:102954005300370052003700510037005000370051
:102964004f0037004e0037004d0037004c00370051
:102974004b0037004a003700490037004800370051
:102984004700370046003700450037004400370051
:10299400430037004200370041003700340037005d
:1029a4002f0037003e0037003d0037003c00370061
:1029b4003b0037000a0037000100370004003700ed
:1029c400107380004c00de00614060003500370069
:1029d400107380004d00de0061406000310037005c
:1029e400107380004e00de00614060002d0037004f
:1029f400107380004f00de0000407800290037008b
:102a0400907080004800de006140600025003700bf
:102a1400907080004900de006140600021003700b2
:102a2400907080004a00de00614060001d003700a5
:102a3400907080004b00de00614060001900370098
:102a4400107380004600de0061406000150037000e
:102a5400107380004700de00614060001100370001
:102a64001073800000407800614060000d00370062
:102a7400107380000000d10061406000090037003d
:102a8400107380004900de006140600005003700db
:102a9400107380004800de006140600001003700d0
:102aa4000040eb000080fa00000006000200fa007b
:102ab400000f7800b08080000000e800b08088003b
:102ac400b08080009e0f5000030039001630ef00e4
:102ad40000c2b300edfe07000080fa00000006000b
:102ae4000200fa00000f7800a08080000000e800d7
:102af400a0808800a08080009e0f50000300390051
:102b04001430ef0010c2b300e0fe07000080fa00aa
:102b1400000006000200fa00000f78009080800098
:102b24000000e80090808800908080009e0f500094
:102b3400030039001230ef0020c2b300d3fe0700b7
:102b44000080fa00000006000200fa00000f78007e
:102b5400808080000000e800808088008080800001
:102b64009e0f5000030039001030ef0030c2b30054
:102b7400c6fe07000080fa00000006000000fa000c
:102b840000c6b3001fff07000004e00006003a007f
:102b94000cd0bf000004e00003003a000e30ef0048
:102ba40010c0b3000cf0b7000cd0bf00e14f5000d0
:102bb40008003a00708080000000e80070808800ff
:102bc40000c6b3000fff0700e14f500001003a00b8
:102bd4000c70ef00708080000080fa000000060096
:102be4000000fa0010c6b30006ff07000004e0006e
:102bf40006003a0008d0bf000004e00003003a00d9
:102c04000a30ef0010c0b30008f0b70008d0bf00ce
:102c1400e14f500008003a00508080000000e800b6
:102c24005080880010c6b300f6fe0700e14f500044
:102c340001003a000870ef00508080000080fa0024
:102c4400000006000000fa00f0c5b300edfe070026
:102c54000004e00006003a0004d0bf000004e000d5
:102c640003003a000630ef0010c0b30004f0b700d0
:102c740004d0bf00e14f500008003a0030808000cb
:102c84000000e80030808800f0c5b300ddfe0700d6
:102c9400e14f500001003a000470ef0030808000e2
:102ca4000080fa00000006000000fa0010c0b30023
:102cb400d4fe07000004e00006003a0000d0bf0084
:102cc4000004e00003003a000230ef0010c0b3003b
:102cd40000f0b70000d0bf00e14f500008003a00f8
:102ce400108080000000e8001080880010c0b3004d
:102cf400c4fe0700e14f500001003a000070ef00ed
:102d0400108080000080fa00000006000000fa0035
:102d140040042000303a8800213a8000f0f32f006c
:102d240000806000203a8800213a800000fe2f00d5
:102d340000806000203a88003200200080072000d4
:102d4400a10920003374200080497800814978006b
:102d540082497800103a8000000178000200a00047
:102d6400600420007105200023742000804978004d
:102d7400814978008249780000000000113a8000ff
:102d8400000027008080600000002300808f500036
:102d9400faff3a0000000000113a8000000220000f
:102da400008060000000e000fbff32000080fa00b9
:102db400000006000000fa00d4ff070031c0b30091
:102dc40000c2b30078fb070031c0b30010c2b300e7
:102dd40075fb070031c0b30020c2b30072fb0700cb
:102de40031c0b30030c2b3006ffb070021c0b30091
:102df40000c6b3006cfb070021c0b30010c6b300cb
:102e040069fb070021c0b300f0c5b30066fb0700ef
:102e140021c0b30010c0b30063fb07001700070014
:102e240056ff070021ff07006dff07002cff070076
:102e340084ff070037ff07009bff070042ff0700de
:102e4400808180009181800061004000e080480022
:102e54008081880091818800000000001d00070027
:102e64000001be008081800091818000800f5100ac
:102e7400818f5900f9ff3900e9ff37000000fa009b
:102e840005e1a9000421a90004c1a90021088000ca
:102e9400f0fc2f00008060000040a00020088800a3
:102ea4000021ef00d0222200100888000142800097
:102eb400f0ff28000080600000c0a00000428800ed
:102ec4000068a9002068a80005e1a8000080fa00b5
:102ed400000006000400fa006000b800008fbe0085
:102ee40010c0b3001cf0b700c2808000d380800003
:102ef400028fbe001c70ef001dd0bf00e14f5000d8
:102f040004003a001d70ef002281800033818000ac
:102f1400028fbe001e01be0022818800338188001a
:102f24001e00be000080fa0000000600809fbe0064
:102f34000000fa00c0808000d18080006100400061
:102f4400e0804800c0808800d18088001cd0bf0089
:102f5400e14f500003003a0010c0b3001df0b70069
:102f6400010037001d70ef000068a9000080fa001e
:082f74004f00be000040060002
:020000040000fa
:102f7c00281000000800000080000000181000005d
:102f8c001000000080000000301000000400000061
:102f9c0080000000001000001800000080000000fd
:042fac000000000021
:020000040000fa
:0200000401f009
:04000c007bff000076
:020000040000fa
:0200000401f009
:040010007dff000070
:00000001FF
