:020000040000fa
:080000000002040000000000f2
:020000040000fa
:04000800fa020000f8
:020000040000fa
:04000c00fa020000f4
:020000040000fa
:04001000fa020000f0
:020000040000fa
:04001400fa020000ec
:020000040000fa
:04001800fa020000e8
:020000040000fa
:04001c00fa020000e4
:020000040000fa
:04002000fa020000e0
:020000040000fa
:04002400fa020000dc
:020000040000fa
:04002800fa020000d8
:020000040000fa
:04002c00fa020000d4
:020000040000fa
:04003000fa020000d0
:020000040000fa
:04003400fa020000cc
:020000040000fa
:04003800fa020000c8
:020000040000fa
:04003c00fa020000c4
:020000040000fa
:04004000fa020000c0
:020000040000fa
:04004400fa020000bc
:020000040000fa
:04004800fa020000b8
:020000040000fa
:04004c00fa020000b4
:020000040000fa
:04005000fa020000b0
:020000040000fa
:04005400fa020000ac
:020000040000fa
:04005800fa020000a8
:020000040000fa
:04005c00fa020000a4
:020000040000fa
:04006000fa020000a0
:020000040000fa
:04006400fa0200009c
:020000040000fa
:04006800fa02000098
:020000040000fa
:04006c00fa02000094
:020000040000fa
:04007000fa02000090
:020000040000fa
:04007400fa0200008c
:020000040000fa
:04007800fa02000088
:020000040000fa
:04007c00fa02000084
:020000040000fa
:04008000fa02000080
:020000040000fa
:04008400fa0200007c
:020000040000fa
:04008800fa02000078
:020000040000fa
:04008c00fa02000074
:020000040000fa
:04009000fa02000070
:020000040000fa
:04009400fa0200006c
:020000040000fa
:04009800fa02000068
:020000040000fa
:04009c00fa02000064
:020000040000fa
:0400a000fa02000060
:020000040000fa
:0400a400fa0200005c
:020000040000fa
:0400a800fa02000058
:020000040000fa
:0400ac00fa02000054
:020000040000fa
:0400b000fa02000050
:020000040000fa
:0400b400fa0200004c
:020000040000fa
:0400b800fa02000048
:020000040000fa
:0400bc00fa02000044
:020000040000fa
:0400c000fa02000040
:020000040000fa
:0400c400fa0200003c
:020000040000fa
:0400c800fa02000038
:020000040000fa
:0400cc00fa02000034
:020000040000fa
:0400d000fa02000030
:020000040000fa
:0400d400fa0200002c
:020000040000fa
:0400d800fa02000028
:020000040000fa
:0400dc00fa02000024
:020000040000fa
:0400e000fa02000020
:020000040000fa
:0400e400fa0200001c
:020000040000fa
:0400e800fa02000018
:020000040000fa
:0400ec00fa02000014
:020000040000fa
:0400f000fa02000010
:020000040000fa
:0400f400fa0200000c
:020000040000fa
:0400f800fa02000008
:020000040000fa
:0400fc00fa02000004
:020000040000fa
:04010000fa020000ff
:020000040000fa
:04010400fa020000fb
:020000040000fa
:04010800fa020000f7
:020000040000fa
:04010c00fa020000f3
:020000040000fa
:04011000fa020000ef
:020000040000fa
:04011400fa020000eb
:020000040000fa
:04011800fa020000e7
:020000040000fa
:04011c00fa020000e3
:020000040000fa
:04012000fa020000df
:020000040000fa
:04012400fa020000db
:020000040000fa
:04012800fa020000d7
:020000040000fa
:04012c00fa020000d3
:020000040000fa
:04013000fa020000cf
:020000040000fa
:04013400fa020000cb
:020000040000fa
:04013800fa020000c7
:020000040000fa
:04013c00fa020000c3
:020000040000fa
:04014000fa020000bf
:020000040000fa
:04014400fa020000bb
:020000040000fa
:04014800fa020000b7
:020000040000fa
:04014c00fa020000b3
:020000040000fa
:04015000fa020000af
:020000040000fa
:04015400fa020000ab
:020000040000fa
:04015800fa020000a7
:020000040000fa
:04015c00fa020000a3
:020000040000fa
:04016000fa0200009f
:020000040000fa
:04016400fa0200009b
:020000040000fa
:04016800fa02000097
:020000040000fa
:04016c00fa02000093
:020000040000fa
:04017000fa0200008f
:020000040000fa
:04017400fa0200008b
:020000040000fa
:04017800fa02000087
:020000040000fa
:04017c00fa02000083
:020000040000fa
:04018000fa0200007f
:020000040000fa
:04018400fa0200007b
:020000040000fa
:04018800fa02000077
:020000040000fa
:04018c00fa02000073
:020000040000fa
:04019000fa0200006f
:020000040000fa
:04019400fa0200006b
:020000040000fa
:04019800fa02000067
:020000040000fa
:04019c00fa02000063
:020000040000fa
:0401a000fa0200005f
:020000040000fa
:0401a400fa0200005b
:020000040000fa
:0401a800fa02000057
:020000040000fa
:0401ac00fa02000053
:020000040000fa
:0401b000fa0200004f
:020000040000fa
:0401b400fa0200004b
:020000040000fa
:0401b800fa02000047
:020000040000fa
:0401bc00fa02000043
:020000040000fa
:0401c000fa0200003f
:020000040000fa
:0401c400fa0200003b
:020000040000fa
:0401c800fa02000037
:020000040000fa
:0401cc00fa02000033
:020000040000fa
:0401d000fa0200002f
:020000040000fa
:0401d400fa0200002b
:020000040000fa
:0401d800fa02000027
:020000040000fa
:0401dc00fa02000023
:020000040000fa
:0401e000fa0200001f
:020000040000fa
:0401e400fa0200001b
:020000040000fa
:0401e800fa02000017
:020000040000fa
:0401ec00fa02000013
:020000040000fa
:0401f000fa0200000f
:020000040000fa
:0401f400fa0200000b
:020000040000fa
:0401f800fa02000007
:020000040000fa
:0401fc00fa02000003
:020000040000fa
:04020000fa020000fe
:020000040000fa
:04020400fa020000fa
:020000040000fa
:04020800fa020000f6
:020000040000fa
:04020c00fa020000f2
:020000040000fa
:04021000fa020000ee
:020000040000fa
:04021400fa020000ea
:020000040000fa
:04021800fa020000e6
:020000040000fa
:04021c00fa020000e2
:020000040000fa
:04022000fa020000de
:020000040000fa
:04022400fa020000da
:020000040000fa
:04022800fa020000d6
:020000040000fa
:04022c00fa020000d2
:020000040000fa
:04023000fa020000ce
:020000040000fa
:04023400fa020000ca
:020000040000fa
:04023800fa020000c6
:020000040000fa
:04023c00fa020000c2
:020000040000fa
:04024000fa020000be
:020000040000fa
:04024400fa020000ba
:020000040000fa
:04024800fa020000b6
:020000040000fa
:04024c00fa020000b2
:020000040000fa
:04025000fa020000ae
:020000040000fa
:04025400fa020000aa
:020000040000fa
:04025800fa020000a6
:020000040000fa
:04025c00fa020000a2
:020000040000fa
:04026000fa0200009e
:020000040000fa
:04026400fa0200009a
:020000040000fa
:100400000f0021000eff2d000e01880000000000eb
:10041000000020000000e000020032000001200087
:100420002002880014000700740007000000e000ac
:1004300003003a0000002000010020000200370005
:100440000000200001002000810f70000100320038
:100450000f000700000020000000e0000200320052
:100460000000020000000000c808020000000000b8
:100470000040da000000fe00200020000000e00044
:1004800002003200100020009001880000000600e9
:10049000a1028800800478000000eb001f003700f4
:1004a000e284440054a0b4009905ba00e2844400f8
:1004b00054a0b4009906ba00e284440054a0b400e9
:1004c0000006eb00476fde00fd07b200ae018800ba
:1004d000636ce10003003a000ad801000000eb0061
:1004e0000e003700606ce10008003a00004deb00a0
:1004f0000a05e800020039003420ec000af0a000f0
:100500008b05e900f9ff3e00040037006168e10057
:10051000010032000086eb000b00070019c7ba008b
:100520001905ba000e04e00003003a000a00e000da
:10053000dbff3a0000000600fe07b200ae028800b2
:100540008a047800f5ff37000cd0a300e20f4d00bd
:100550001c00390089027800354dba000a05e80010
:10056000020039003420ec000af0a0008b05e900fd
:100570000f003200254dba000a05e80002003900dc
:100580003420ec000af0a0008b05e90008003200de
:100590000c00e0000600320015cdba000a05e800a4
:1005a000020039003420ec000af0a0008b05e900bd
:1005b0008984e80054a0b4000b00e000e2ff3a0098
:1005c000000006009902ba00055d78008b05e9007d
:1005d000f7ff3200c82ade00055d78008b05e900d0
:1005e000f3ff32000c00e000f1ff320019ddba0029
:1005f000eeff37000040da000000fe0000000500ba
:020000040000fa
:100600000200fa00004f7800114798001e80fb009e
:100610006101b9000080eb008080eb000200400027
:10062000838048000206200003002000820f500053
:10063000838f58009e013e00000601003001370004
:100640009d0137009c0137009b0137009a0137005c
:10065000990137009801370097013700960137005c
:100660004b0137006e0137009301370092013700cc
:1006700091013700900137008f0137008e0137005c
:100680008d0137008c0137008b0137008a0137005c
:10069000890137008801370087013700860137005c
:1006a000850137008401370083013700820137005c
:1006b00081013700800137004100370059003700c1
:1006c00071003700890037007b0137007a0137005d
:1006d000790137007801370077013700760137005c
:1006e000750137007401370073013700720137005c
:1006f00071013700700137006f0137006e0137005c
:100700006d0137006c0137006b0137006a0137005b
:10071000690137006801370067013700660137005b
:10072000650137006401370063013700620137005b
:1007300061013700600137005f0137005e0137005b
:100740005d0137005c0137005b0137005a0137005b
:10075000590137005801370057013700560137005b
:10076000550137005401370053013700520137005b
:1007700051013700500137004f0137004e0137005b
:100780004d0137004c0137004b0137004a0137005b
:10079000490137004801370047013700460137005b
:1007a000450137004401370043013700420137005b
:1007b00041013700ae003700650037008800370080
:1007c0001e4090000080fb00e10f50000b00320043
:1007d000e10f500003003c000000e0000600320082
:1007e0000e003700e20f500005003200e30f50000a
:1007f0000400320009003700090037000800370004
:10080000070037001f0ea900190ea9001b0ea90032
:100810001d0ea900110ea900010037000000000004
:10082000260137001e4090000080fb00e10f5000c1
:100830000b003200e10f500003003c000000e0001c
:10084000060032000e003700e20f500005003200b3
:10085000e30f5000040032000900370009003700a0
:1008600008003700070037001f2ea900192ea90025
:100870001b2ea9001d2ea900112ea9000100370072
:10088000000000000d0137001e4090000080fb00ba
:10089000e10f50000b003200e10f500003003c005c
:1008a0000000e000060032000e003700e20f5000aa
:1008b00005003200e30f5000040032000900370049
:1008c0000900370008003700070037001f4ea90055
:1008d000194ea9001b4ea9001d4ea900114ea900da
:1008e0000100370000000000f40037001e409000b7
:1008f0000080fb00e10f50000b003200e10f5000c0
:1009000003003c000000e000060032000e0037004b
:10091000e20f500005003200e30f500004003200e7
:1009200009003700090037000800370007003700ca
:100930001f6ea900196ea9001b6ea9001d6ea900eb
:10094000116ea9000100370000000000db00370035
:100950001e4090000080fb00e10f50000f003200ad
:10096000e10f500003003c000000e00006003200f0
:1009700019003700e20f50000d003200e30f500065
:100980001000320014003700698ea9006b8ea90098
:100990006d8ea900618ea80010003700698ea90035
:1009a0006b8ea9006d8ea800618ea8000b00370029
:1009b000698ea9006b8ea8006d8ea900618ea800bb
:1009c00006003700698ea9006b8ea9006d8ea90004
:1009d000618ea9000100370000000000b700370059
:1009e0001e4090000080fb00e10f50000f0032001d
:1009f000e10f500003003c000000e0000600320060
:100a000019003700e20f50000d003200e30f5000d4
:100a1000100032001400370069aea9006baea900c7
:100a20006daea90061aea8001000370069aea90044
:100a30006baea9006daea80061aea8000b00370038
:100a400069aea9006baea8006daea90061aea800aa
:100a50000600370069aea9006baea9006daea90013
:100a600061aea900010037000000000093003700cc
:100a70001e4090000080fb00e10f50000f0032008c
:100a8000e10f500003003c000000e00006003200cf
:100a900019003700e20f50000d003200e30f500044
:100aa000100032001400370069cea9006bcea900f7
:100ab0006dcea90061cea8001000370069cea90054
:100ac0006bcea9006dcea80061cea8000b00370048
:100ad00069cea9006bcea8006dcea90061cea8009a
:100ae0000600370069cea9006bcea9006dcea90023
:100af00061cea90001003700000000006f00370040
:100b00001e4090000080fb00e10f50000f003200fb
:100b1000e10f500003003c000000e000060032003e
:100b200019003700e20f50000d003200e30f5000b3
:100b3000100032001400370069eea9006beea90026
:100b40006deea90061eea8001000370069eea90063
:100b50006beea9006deea80061eea8000b00370057
:100b600069eea9006beea8006deea90061eea80089
:100b70000600370069eea9006beea9006deea90032
:100b800061eea90001003700000000004b003700b3
:100b90001e4090000080fb00e10f50000f0032006b
:100ba000e10f500003003c000000e00006003200ae
:100bb00019003700e20f50000d003200e30f500023
:100bc000100032001400370068cea9006acea900d8
:100bd0006ccea90060cea8001000370068cea90036
:100be0006acea9006ccea80060cea8000b0037002a
:100bf00068cea9006acea8006ccea90060cea8007d
:100c00000600370068cea9006acea9006ccea90004
:100c100060cea90001003700000000002700370067
:100c20001e4090000080fb00e10f50000f003200da
:100c3000e10f500003003c000000e000060032001d
:100c400019003700e20f50000d003200e30f500092
:100c5000100032001400370068eea9006aeea90007
:100c60006ceea90060eea8001000370068eea90045
:100c70006aeea9006ceea80060eea8000b00370039
:100c800068eea9006aeea8006ceea90060eea8006c
:100c90000600370068eea9006aeea9006ceea90014
:100ca00060eea900010037000000000003003700db
:100cb0000000000001003700000000000080fa0082
:100cc000000006000200fa00004f7800114798006b
:100cd0001e80fb0011022000810f50001500320021
:100ce00011022000810f500004003c00010220008e
:100cf000810f50000800320023003700210220003d
:100d0000810f50001200320031022000810f50008c
:100d1000160032001c0037001e4090000004e00066
:100d200002003a00150ea90017003700150ea800a2
:100d3000150037001e4090000004e00002003a0059
:100d4000152ea90010003700152ea8000e00370040
:100d50001e4090000004e00002003a00154ea90079
:100d600009003700154ea800070037001e4090000c
:100d70000004e00002003a00156ea90002003700ee
:100d8000156ea800000000000080fa0000000600b8
:100d90000200fa00004f78001e80fb0011022000c4
:100da000810f50001c00320011022000810f500002
:100db00004003c0001022000810f500008003200b6
:100dc0003f00370021022000810f50002000320038
:100dd00031022000810f50002b0032003800370014
:100de00000c2b300380007000080fb000000e900eb
:100df0004f00de00004078000080fb0061006000d2
:100e00004800dd00a17080000180a1000100700099
:100e1000a07088002a00370010c2b3002a00070023
:100e20000080fb000000e9004f00de000040780079
:100e30000080fb00610060004900dd00a1708000bf
:100e40000190a10001007000a07088001c00370014
:100e500020c2b3001c0007000080fb000000e90076
:100e60004f00de00004078000080fb006100600061
:100e70004a00dd00a170800001a0a1000100700007
:100e8000a07088000e00370030c2b3000e000700cb
:100e90000080fb000000e9004f00de000040780009
:100ea0000080fb00610060004b00dd00a17080004d
:100eb00001b0a10001007000a070880000000000d7
:100ec0000080fa00000006000200fa00004f7800df
:100ed0001e80fb006101b9000080eb008080eb0008
:100ee000020040008380480002062000030020002a
:100ef000820f5000838f58008a003e0000060100d8
:100f00006c00370087003700860037008500370007
:100f100084003700830037008200370081003700eb
:100f200080003700770037007a0037007d003700f7
:100f30007c0037007b0037007a00370079003700eb
:100f400078003700770037007600370075003700eb
:100f500074003700730037007200370071003700eb
:100f6000700037006f0037006e0037006d003700eb
:100f70006c0037006b0037006a0037005100370003
:100f800054003700570037005a003700650037001b
:100f900064003700630037006200370061003700eb
:100fa000600037005f0037005e0037005d003700eb
:100fb0005c0037005b0037005a00370059003700eb
:100fc00058003700570037005600370055003700eb
:100fd00054003700530037005200370051003700eb
:100fe000500037004f0037004e0037004d003700eb
:100ff0004c0037004b0037004a00370049003700eb
:1010000048003700470037004600370045003700ea
:1010100044003700430037004200370041003700ea
:10102000400037003f0037003e0037003d003700ea
:101030003c0037003b0037003a00370039003700ea
:1010400038003700370037003600370035003700ea
:1010500034003700330037003200370031003700ea
:10106000300037002f0037002e0037002d003700ea
:101070002c0037002b0037000a0037000100370032
:1010800004003700107380004c00de0061406000f7
:1010900025003700107380004d00de0061406000c5
:1010a00021003700107380004e00de0061406000b8
:1010b0001d003700107380004f00de0000407800f4
:1010c00019003700907080004800de006140600029
:1010d00015003700907080004900de00614060001c
:1010e00011003700907080004a00de00614060000f
:1010f0000d003700907080004b00de006140600002
:1011000009003700107380004600de006140600077
:1011100005003700107380004700de00614060006a
:10112000010037000040eb000080fa0000000600dc
:101130000400fa00100798000000eb00000f780090
:101140000e0037000000eb00000f780004003700ad
:101150000000000000000000000000001e0fe8007a
:10116000a01420009e007800808f5000f8ff360009
:101170001e0090000000e900100798001e0090007b
:101180000000e000efff3a000080fa0000000600d7
:101190000000fa00701c2000303a8800213a8000dc
:1011a000f0f32f00008060000070a000203a88005b
:1011b000213a800000fe2f00008060000010a00097
:1011c000203a880031c0b30000c2b3000cfd070014
:1011d00031c0b30010c2b30009fd070031c0b30035
:1011e00020c2b30006fd070031c0b30030c2b30017
:1011f00003fd070021c0b30000c6b30000fd0700d7
:1012000021c0b30010c6b300fdfc070021c0b3002d
:10121000f0c5b300fafc070021c0b30010c0b30052
:10122000f7fc070011c0b30000c2b300a5fe070021
:101230008040eb0000c2b300a2fe0700f9ff3700b8
:020000040000fa
:0200000401f009
:04000c00fbff0000f6
:020000040000fa
:0200000401f009
:04001000feff0000ef
:00000001FF
