:020000040000fa
:080000000002040000000000f2
:020000040000fa
:04000800fa020000f8
:020000040000fa
:04000c00fa020000f4
:020000040000fa
:04001000fa020000f0
:020000040000fa
:04001400fa020000ec
:020000040000fa
:04001800fa020000e8
:020000040000fa
:04001c00fa020000e4
:020000040000fa
:04002000fa020000e0
:020000040000fa
:04002400fa020000dc
:020000040000fa
:04002800fa020000d8
:020000040000fa
:04002c00fa020000d4
:020000040000fa
:04003000fa020000d0
:020000040000fa
:04003400d4300000c4
:020000040000fa
:04003800fa020000c8
:020000040000fa
:04003c00fa020000c4
:020000040000fa
:04004000fa020000c0
:020000040000fa
:04004400fa020000bc
:020000040000fa
:04004800fa020000b8
:020000040000fa
:04004c00fa020000b4
:020000040000fa
:04005000fa020000b0
:020000040000fa
:04005400fa020000ac
:020000040000fa
:04005800fa020000a8
:020000040000fa
:04005c00fa020000a4
:020000040000fa
:04006000fa020000a0
:020000040000fa
:04006400fa0200009c
:020000040000fa
:04006800fa02000098
:020000040000fa
:04006c00fa02000094
:020000040000fa
:04007000fa02000090
:020000040000fa
:04007400fa0200008c
:020000040000fa
:04007800fa02000088
:020000040000fa
:04007c00fa02000084
:020000040000fa
:04008000fa02000080
:020000040000fa
:04008400fa0200007c
:020000040000fa
:04008800fa02000078
:020000040000fa
:04008c00fa02000074
:020000040000fa
:04009000fa02000070
:020000040000fa
:04009400fa0200006c
:020000040000fa
:04009800fa02000068
:020000040000fa
:04009c00fa02000064
:020000040000fa
:0400a000fa02000060
:020000040000fa
:0400a400fa0200005c
:020000040000fa
:0400a800fa02000058
:020000040000fa
:0400ac00fa02000054
:020000040000fa
:0400b000fa02000050
:020000040000fa
:0400b400fa0200004c
:020000040000fa
:0400b800fa02000048
:020000040000fa
:0400bc00fa02000044
:020000040000fa
:0400c000fa02000040
:020000040000fa
:0400c400fa0200003c
:020000040000fa
:0400c800fa02000038
:020000040000fa
:0400cc00fa02000034
:020000040000fa
:0400d000fa02000030
:020000040000fa
:0400d400fa0200002c
:020000040000fa
:0400d800fa02000028
:020000040000fa
:0400dc00fa02000024
:020000040000fa
:0400e000fa02000020
:020000040000fa
:0400e400fa0200001c
:020000040000fa
:0400e800fa02000018
:020000040000fa
:0400ec00fa02000014
:020000040000fa
:0400f000fa02000010
:020000040000fa
:0400f400fa0200000c
:020000040000fa
:0400f800fa02000008
:020000040000fa
:0400fc00fa02000004
:020000040000fa
:04010000fa020000ff
:020000040000fa
:04010400fa020000fb
:020000040000fa
:04010800fa020000f7
:020000040000fa
:04010c00fa020000f3
:020000040000fa
:04011000fa020000ef
:020000040000fa
:04011400fa020000eb
:020000040000fa
:04011800fa020000e7
:020000040000fa
:04011c00fa020000e3
:020000040000fa
:04012000fa020000df
:020000040000fa
:04012400fa020000db
:020000040000fa
:04012800fa020000d7
:020000040000fa
:04012c00fa020000d3
:020000040000fa
:04013000fa020000cf
:020000040000fa
:04013400fa020000cb
:020000040000fa
:04013800fa020000c7
:020000040000fa
:04013c00fa020000c3
:020000040000fa
:04014000fa020000bf
:020000040000fa
:04014400fa020000bb
:020000040000fa
:04014800fa020000b7
:020000040000fa
:04014c00fa020000b3
:020000040000fa
:04015000fa020000af
:020000040000fa
:04015400fa020000ab
:020000040000fa
:04015800fa020000a7
:020000040000fa
:04015c00fa020000a3
:020000040000fa
:04016000fa0200009f
:020000040000fa
:04016400fa0200009b
:020000040000fa
:04016800fa02000097
:020000040000fa
:04016c00fa02000093
:020000040000fa
:04017000fa0200008f
:020000040000fa
:04017400fa0200008b
:020000040000fa
:04017800fa02000087
:020000040000fa
:04017c00fa02000083
:020000040000fa
:04018000fa0200007f
:020000040000fa
:04018400fa0200007b
:020000040000fa
:04018800fa02000077
:020000040000fa
:04018c00fa02000073
:020000040000fa
:04019000fa0200006f
:020000040000fa
:04019400fa0200006b
:020000040000fa
:04019800fa02000067
:020000040000fa
:04019c00fa02000063
:020000040000fa
:0401a000fa0200005f
:020000040000fa
:0401a400fa0200005b
:020000040000fa
:0401a800fa02000057
:020000040000fa
:0401ac00fa02000053
:020000040000fa
:0401b000fa0200004f
:020000040000fa
:0401b400fa0200004b
:020000040000fa
:0401b800fa02000047
:020000040000fa
:0401bc00fa02000043
:020000040000fa
:0401c000fa0200003f
:020000040000fa
:0401c400fa0200003b
:020000040000fa
:0401c800fa02000037
:020000040000fa
:0401cc00fa02000033
:020000040000fa
:0401d000fa0200002f
:020000040000fa
:0401d400fa0200002b
:020000040000fa
:0401d800fa02000027
:020000040000fa
:0401dc00fa02000023
:020000040000fa
:0401e000fa0200001f
:020000040000fa
:0401e400fa0200001b
:020000040000fa
:0401e800fa02000017
:020000040000fa
:0401ec00fa02000013
:020000040000fa
:0401f000fa0200000f
:020000040000fa
:0401f400fa0200000b
:020000040000fa
:0401f800fa02000007
:020000040000fa
:0401fc00fa02000003
:020000040000fa
:04020000fa020000fe
:020000040000fa
:04020400fa020000fa
:020000040000fa
:04020800fa020000f6
:020000040000fa
:04020c00fa020000f2
:020000040000fa
:04021000fa020000ee
:020000040000fa
:04021400fa020000ea
:020000040000fa
:04021800fa020000e6
:020000040000fa
:04021c00fa020000e2
:020000040000fa
:04022000fa020000de
:020000040000fa
:04022400fa020000da
:020000040000fa
:04022800fa020000d6
:020000040000fa
:04022c00fa020000d2
:020000040000fa
:04023000fa020000ce
:020000040000fa
:04023400fa020000ca
:020000040000fa
:04023800fa020000c6
:020000040000fa
:04023c00fa020000c2
:020000040000fa
:04024000fa020000be
:020000040000fa
:04024400fa020000ba
:020000040000fa
:04024800fa020000b6
:020000040000fa
:04024c00fa020000b2
:020000040000fa
:04025000fa020000ae
:020000040000fa
:04025400fa020000aa
:020000040000fa
:04025800fa020000a6
:020000040000fa
:04025c00fa020000a2
:020000040000fa
:04026000fa0200009e
:020000040000fa
:04026400fa0200009a
:020000040000fa
:10040000af0621000eff27000e018800000000004b
:10041000000020000000e000020032000001200087
:100420002002880014000700740007000000e000ac
:1004300003003a00201423000100200002003700ce
:100440000000200001002000810f70000100320038
:100450000f000700000020000000e0000200320052
:100460000000020000000000cc2f0200000000008d
:100470000040da000000fe00000220000000e00062
:1004800002003200002020009001880000000600d9
:10049000a1028800800478000000eb001f003700f4
:1004a000e284440054a0b4009905ba00e2844400f8
:1004b00054a0b4009906ba00e284440054a0b400e9
:1004c0000006eb00476fde00fd07b200ae018800ba
:1004d000636ce10003003a000ad801000000eb0061
:1004e0000e003700606ce10008003a00004deb00a0
:1004f0000a05e800020039003420ec000af0a000f0
:100500008b05e900f9ff3e00040037006168e10057
:10051000010032000086eb000b00070019c7ba008b
:100520001905ba000e04e00003003a000a00e000da
:10053000dbff3a0000000600fe07b200ae028800b2
:100540008a047800f5ff37000cd0a300e20f4d00bd
:100550001c00390089027800354dba000a05e80010
:10056000020039003420ec000af0a0008b05e900fd
:100570000f003200254dba000a05e80002003900dc
:100580003420ec000af0a0008b05e90008003200de
:100590000c00e0000600320015cdba000a05e800a4
:1005a000020039003420ec000af0a0008b05e900bd
:1005b0008984e80054a0b4000b00e000e2ff3a0098
:1005c000000006009902ba00055d78008b05e9007d
:1005d000f7ff3200c82ade00055d78008b05e900d0
:1005e000f3ff32000c00e000f1ff320019ddba0029
:1005f000eeff37000040da000000fe0000000500ba
:100600006022b800060220000000d0008180d200e5
:100610000482d2008582d2000000a00002025200b3
:1006200083825a00030031000202420083824a00a2
:100630000000a1000603e900f3ff3a0000000600f5
:10064000889fbe008a9fbe0030044200b0844a00ea
:1006500030054b0090854b006000b1000898be004b
:100660000a90be000440e10005c8e10006d0e100a8
:1006700007d8e10002003100680040001008e800df
:100680004f05be004f04be0000000600889fbe005c
:100690008a9fbe003004be002005be00041854002e
:1006a00005985c0006185d0007985d0011002000a9
:1006b0000440e10005c8e10006d0e10007d8e100f0
:1006c000010039008000eb00108810004f05be00cb
:1006d0004f04be00000006001200fa00889fbe0012
:1006e0008a9fbe008c9fbe00e0b79f00f1b79f00bd
:1006f00082bf9f0093bf9f000605be000404be009a
:100700000000eb00d0b79f00c0b79f00b0b79f00bc
:10071000a0b79f0090b79f000006eb005fb1970065
:10072000cfb09700820141003fb097000200e00087
:1007300004003d00370007007e805700c0ff07001f
:1007400003003700330007007e805700cfff07000b
:10075000dfb697000d00e0000c0035006fb2970087
:10076000ffb297000fbb97009fbb970010002000bf
:10077000010020006011b800000272008182720046
:1007800002037300838373001b0007000c06e8005c
:1007900001042000810f5600e0ff3a000d00e00048
:1007a00004003d000802be000a03be007e80570020
:1007b000a3ff07005fa897000000e00005003a00d3
:1007c0001fb29700afb297003fb39700cfb3970027
:1007d000090007006fb09700ffb097000fb99700ae
:1007e0009fb997004f06be004f05be004f04be00e4
:1007f0000080fa000000060001000700000006006b
:10080000a4b79f00b5b79f00c6b79f00d7b79f009a
:10081000000006004f09de0082817100b3b79f001f
:100820004f01de008180400082807000a1b79f00f0
:100830008fb097004f09de000000400002007000fa
:1008400090b79f007fa897004f01de008180400095
:100850008280700081b79f000d0007004f3ade00d4
:100860000000400004007000f0af9f000800070087
:100870000402420085824a0006034b0087834b0036
:10088000dfff07000802be000a03be0000000600ea
:100890002fb29700bfb297004fb39700dfb3970016
:1008a00000000600881f780018002000881f7800cc
:1008b00089ff07008f87e9004f04780000000600d9
:1008c000801feb0084ff07008f87e900000006000f
:1008d000889fbe008a9fbe00e00f5000e08f580046
:1008e000e00f5900e08f59000c003d006044b80053
:1008f0006055b8000000540081805c0002015d007a
:1009000083815d00180020001500070008003d00ed
:10091000180007000004eb00050037000004eb009e
:100920000f00070002003d00120007001800200021
:10093000dcff07000800e000060032006022b8007b
:100940006033b8000000520081805a0002015b0051
:1009500083815b004f05be004f04be00000006000f
:10096000e00f5200e08f5a00e00f5b00e08f5b0069
:10097000000006006044b8006055b800040254004e
:1009800085825c0006035d0087835d000000060031
:10099000889fbe008a9fbe008c1f7800e00f500029
:1009a000e08f5800e00f5900e08f59000d003d0026
:1009b0006044b8006055b8000000540081805c00bd
:1009c00002015d0083815d001c0020000820e10021
:1009d00009a8e1000ab0e1000bb8e1000d003d00fc
:1009e000080037000006eb00e00f5200e08f5a00cd
:1009f000e00f5b00e08f5b0006003d006044b80044
:100a00006055b8000402540085825c0006035d0056
:100a100087835d00aaff07000c00e000060032009b
:100a20006022b8006033b8000000520081805a0094
:100a300002015b0083815b004f0678004f05be001a
:100a40004f04be0000000600889fbe008a9fbe00c3
:100a50008c1f78000006eb00e00f5000e08f58007c
:100a6000e00f5900e08f590007003d006044b800d6
:100a70006055b8000000540081805c0002015d00f8
:100a800083815d001c002000e00f5200e08f5a00bf
:100a9000e00f5b00e08f5b0007003d006044b800a2
:100aa0006055b8000402540085825c0006035d00b6
:100ab00087835d000c00a2000c0007000c00e00022
:100ac000060032006022b8006033b8000000520017
:100ad00081805a0002015b0083815b004f06780031
:100ae0004f05be004f04be0000000600889fbe00f8
:100af0008a9fbe008c9fbe000404b8000506b800a3
:100b00008904460060854e000606b8000a054600c6
:100b1000e0854e000706b8008b054600040eb800bd
:100b2000890446000a854e00e0854d00050eb80098
:100b30000a0546008b854e00060eb8008b05460060
:100b40000416b8000a0546008b854e000516b8004d
:100b50008b054600041eb8008b0546000800be0049
:100b60000a01be004f06be004f05be004f04be0086
:040b7000000006007b
:020000040000fa
:100b7400414200004344000045460000474800004d
:100b8400494a00004b4c00004d4e00004f500000fd
:100b94000061000062630000646500006667000095
:100ba400686900006a6b00006c000000010000002e
:020000040000fa
:100bb4000c00fa00204f9800314f98002e48900006
:100bc400ea010700000f78002e4890008206070013
:100bd400100798002e489000c507070020079800ca
:100be4002e48900008090700300798002e4890000e
:100bf4004b0a0700400798003e4890000080fb0025
:100c0400e10f500048003200e10f500003003c00a7
:100c14000000e0000600320081003700e20f5000bf
:100c240022003200e30f50005e0032007c003700e7
:100c34002e489000b20007000041eb00804078008d
:100c44004e009000560b07002e489000ac000700a1
:100c540012c0b300804078001e007800500b0700db
:100c64002e489000a60007000041eb008040780069
:100c74001e0090004a0b07002e489000a0000700b9
:100c84000041eb00804078002e009000440b0700e8
:100c94002e4890009a0007000041eb008040780045
:100ca4003e0090003e0b07005d0037002e48900088
:100cb400930007000041eb00804078004e00900054
:100cc400370b07002e4890008d00070012c0b300b8
:100cd400804078001e007800310b07002e489000f9
:100ce400870007000041eb00804078001e00900060
:100cf4002b0b07002e4890008100070012c0b300a0
:100d0400804078002e009000250b07002e489000ac
:100d14007b0007000041eb00804078003e0090001b
:100d24001f0b07003e0037002e4890007400070098
:100d34000041eb00804078004e009000180b070043
:100d44002e4890006e00070012c0b3008040780067
:100d54001e007800120b07002e4890006800070060
:100d64000041eb00804078001e0090000c0b07004f
:100d74002e489000620007000041eb00804078009c
:100d84002e009000060b07002e4890005c00070020
:100d940012c0b300804078003e009000000b0700b2
:100da4001f0037002e489000550007000041eb005b
:100db400804078004e009000f90a07002e48900009
:100dc4004f0007000041eb00804078001e007800cf
:100dd400f30a07002e489000490007000041eb0089
:100de400804078001e009000ed0a07002e48900015
:100df400430007000041eb00804078002e00900083
:100e0400e70a07002e4890003d0007000041eb0070
:100e1400804078003e009000e10a070000000000d6
:100e24000080fa00000006000200fa00881f780023
:100e3400004f7800114798001e4090000004e00025
:100e4400090032001e4078002d000700004478009d
:100e54001e407800d103070012c0b3008840780018
:100e6400cf0a0700080037001e407800240007005e
:100e7400004478001e407800c80307000041eb00de
:100e840088407800c60a07004f0478000080fa0002
:100e9400000006000200fa00004f78001e407800af
:100ea400090007000080fb000000e9004f00de009d
:100eb40000407800804078001e407800daff070088
:100ec4000080fa00000006000200fa00881f780083
:100ed400004f78001e4078000900070000447800a5
:100ee4001e407800670207001000780088407800f0
:100ef400ce0a07004f0478000080fa0000000600c4
:100f04000200fa00004f78001e80fb006101b90066
:100f14000080eb008080eb000200400083804800ea
:100f24003206200003002000820f5000838f5800f7
:100f34000b013e00000601000701370008013700dd
:100f4400d3003700d4003700d500370096003700af
:100f5400970037009800370099003700f0003700f9
:100f6400f1003700f2003700fd003700f2003700cf
:100f7400fb003700fa00370053003700ca0037007f
:100f8400cb003700720037006f0037006c00370069
:100f94006900370066003700630037006e003700d1
:100fa4006f0037005800370059003700ec00370055
:100fb400eb0037006c0037006d0037006e0037001f
:100fc4006f003700e6003700e500370040003700c7
:100fd400c9003700c60037006b0037006c003700cb
:100fe4006d0037006e003700dd003700dc0037008d
:100ff400990037009a003700b7003700b80037006f
:10100400b3003700b0003700b7003700d400370012
:10101400d3003700c0003700bd0037002e00370072
:101024002f0037003000370031003700cc00370084
:10103400650037006a003700c90037003600370002
:101044003700370078003700790037007a0037001e
:101054007b003700640037005d0037005e00370016
:10106400bf003700620037006300370064003700b8
:1010740075003700760037006300370064003700de
:101084006500370066003700b5003700b40037004c
:10109400890037008a0037009b003700980037002a
:1010a40015003700160037006f0037007000370056
:1010b400a7003700a2003700a30037006e003700f6
:1010c4006f003700700037000040eb00a5003700c8
:1010d40010c0b300a300370020c0b300a100370044
:1010e40030c0b3009f00370040c0b3009d003700fc
:1010f40050c0b3009b00370060c0b30099003700b4
:1011040070c0b3009700370090c0b300950037005b
:10111400a0c0b30093003700e0c0b30091003700d3
:10112400f0c0b3008f0037000040eb008d003700a3
:1011340010c0b3008b00370020c0b3008900370013
:1011440030c0b3008700370040c0b30085003700cb
:1011540050c0b3008300370060c0b3008100370083
:1011640070c0b3007f00370080c0b3007d0037003b
:1011740090c0b3007b003700a0c0b30079003700f3
:10118400b0c0b30077003700c0c0b30075003700ab
:10119400d0c0b30073003700e0c0b3007100370063
:1011a400f0c0b3006f00370010c0b3006d0037000b
:1011b40020c0b3006b00370030c0b30069003700b3
:1011c40040c0b30067003700c0c0b30065003700fb
:1011d400d0c0b30063003700e0c0b3006100370043
:1011e400f0c0b3005f0037000040eb005d00370043
:1011f40010c0b3005b00370020c0b30059003700b3
:1012040030c0b3005700370040c0b300550037006a
:1012140050c0b3005300370060c0b3005100370022
:1012240070c0b3004f00370080c0b3004d003700da
:1012340090c0b3004b003700a0c0b3004900370092
:10124400b0c0b30047003700c0c0b300450037004a
:10125400d0c0b30043003700e0c0b3004100370002
:10126400f0c0b3003f0037000040eb003d00370002
:1012740010c0b3003b00370020c0b3003900370072
:1012840030c0b3003700370040c0b300350037002a
:1012940050c0b3003300370060c0b30031003700e2
:1012a40070c0b3002f00370080c0b3002d0037009a
:1012b40090c0b3002b0037000040eb00290037003a
:1012c40010c0b3002700370020c0b300250037004a
:1012d40030c0b3002300370040c0b3002100370002
:1012e40050c0b3001f00370080c0b3001d0037009a
:1012f400c0c0b3001b003700d0c0b30019003700d2
:101304000040eb001700370010c0b3001500370091
:1013140020c0b3001300370030c0b3001100370001
:1013240060c0b3000f00370070c0b3000d00370079
:1013340080c0b3000b00370090c0b3000900370031
:10134400c0c0b30007003700d0c0b30005003700a9
:10135400e0c0b30003003700f0c0b3000100370061
:101364000040eb000080fa00000006000200fa00d2
:10137400004f78001e407800f14f50002a003200e0
:1013840060c2b3009e40780080cf50002600320037
:10139400a0c3b3009e40780080cf500022003200ea
:1013a400b0c3b3009e40780080cf50001e003200ce
:1013b400c0c3b3009e40780080cf50001a003200b2
:1013c400d0c3b3009e40780080cf50001600320096
:1013d400b0c5b3009e40780080cf500012003200a8
:1013e400c0c5b3009e40780080cf50000e0032008c
:1013f4001e407800fc4f50000b0032001e40780065
:10140400fd4f50000800320020c4b3009e40780015
:1014140080cf50000400320030c4b3009e407800f6
:1014240080cf500002003a0000e020001301370092
:101434001e407800f94f5000350032001e407800fd
:10144400f84f5000320032001e407800f74f500031
:101454002f0032001e407800f64f50002c0032005e
:101464001e407800f54f5000290032001e407800dd
:10147400f44f5000260032001e407800fa4f50000e
:10148400230032001e407800fb4f50002000320041
:1014940000c2b3009e40780080cf50001c00320090
:1014a40010c2b3009e40780080cf50001800320074
:1014b40020c2b3009e40780080cf50001400320058
:1014c40030c2b3009e40780080cf5000100032003c
:1014d40090c2b3009e40780080cf50000c003200d0
:1014e400a0c2b3009e40780080cf500008003200b4
:1014f400b0c2b3009e40780080cf50000400320098
:10150400c0c2b3009e40780080cf500002003a0071
:1015140000e12000d90037001e407800e64f50005b
:10152400190032001e407800e74f500016003200c8
:101534001e407800e84f5000130032001e4078002f
:10154400e94f500010003200f0c3b3009e40780011
:1015540080cf50000c00320090c4b3009e4078004d
:1015640080cf500008003200a0c4b3009e40780031
:1015740080cf50000400320000c4b3009e407800c5
:1015840080cf500002003a0000e22000bb00370088
:1015940080c4b3009e40780080cf50003c003200ed
:1015a400c0c4b3009e40780080cf500038003200a1
:1015b400d0c4b3009e40780080cf50003400320085
:1015c400e0c4b3009e40780080cf50003000320069
:1015d40010c5b3009e40780080cf50002c0032002c
:1015e40020c5b3009e40780080cf50002800320010
:1015f40030c5b3009e40780080cf500024003200f4
:1016040040c5b3009e40780080cf500020003200d7
:1016140040c4b3009e40780080cf50001c003200cc
:1016240050c4b3009e40780080cf500018003200b0
:1016340060c4b3009e40780080cf50001400320094
:1016440070c4b3009e40780080cf50001000320078
:10165400f0c4b3009e40780080cf50000c003200ec
:1016640000c5b3009e40780080cf500008003200cf
:10167400f0c2b3009e40780080cf500004003200d6
:1016840000c3b3009e40780080cf500002003a00af
:1016940000e3200079003700d0c5b3009e407800f5
:1016a40080cf50001f003200e0c5b3009e40780098
:1016b40080cf50001b00320020c6b3009e4078004b
:1016c40080cf50001700320030c6b3009e4078002f
:1016d40080cf50001300320040c6b3009e40780013
:1016e40080cf50000f0032001e407800e34f5000be
:1016f4000c0032001e407800e44f50000900320014
:101704001e407800e54f5000060032001e4078006d
:10171400f24f5000030032001e407800f34f500097
:1017240002003a0000e420005400370070c5b30002
:101734009e40780080cf50002000320080c5b30066
:101744009e40780080cf50001c00320040c3b3009c
:101754009e40780080cf50001800320030c3b300a0
:101764009e40780080cf50001400320010c3b300b4
:101774009e40780080cf50001000320020c3b30098
:101784009e40780080cf50000c00320050c3b3005c
:101794009e40780080cf50000800320080c2b30021
:1017a4009e40780080cf50000400320070c2b30025
:1017b4009e40780080cf500002003a0000e52000ef
:1017c4002e003700a0c5b3009e40780080cf5000a3
:1017d4002700320090c5b3009e40780080cf5000af
:1017e4002300320090c3b3009e40780080cf5000a5
:1017f4001f00320080c3b3009e40780080cf5000a9
:101804001b0032001e407800ea4f500018003200de
:101814001e407800eb4f5000150032001e40780047
:10182400ec4f5000120032001e407800ee4f500082
:101834000f00320000c6b3009e40780080cf5000f5
:101844000b00320010c6b3009e40780080cf5000d9
:1018540007003200f0c5b3009e40780080cf5000ee
:10186400030032001e407800e14f500002003a00ad
:1018740000e62000010037000000eb000080fa00c1
:10188400000006000200fa00004f78001e407800b5
:10189400f14f50002a00320060c2b3009e4078002d
:1018a40080cf500026003200a0c3b3009e407800d1
:1018b40080cf500022003200b0c3b3009e407800b5
:1018c40080cf50001e003200c0c3b3009e40780099
:1018d40080cf50001a003200d0c3b3009e4078007d
:1018e40080cf500016003200b0c5b3009e4078008f
:1018f40080cf500012003200c0c5b3009e40780073
:1019040080cf50000e0032001e407800fc4f500083
:101914000b0032001e407800fd4f500008003200da
:1019240020c4b3009e40780080cf500004003200f1
:1019340030c4b3009e40780080cf500002003a00cb
:1019440020e02000130137001e407800f94f5000ba
:10195400350032001e407800f84f5000320032004b
:101964001e407800f74f50002f0032001e407800d0
:10197400f64f50002c0032001e407800f54f500006
:10198400290032001e407800f44f50002600320037
:101994001e407800fa4f5000230032001e407800a9
:1019a400fb4f50002000320000c2b3009e4078007c
:1019b40080cf50001c00320010c2b3009e4078005b
:1019c40080cf50001800320020c2b3009e4078003f
:1019d40080cf50001400320030c2b3009e40780023
:1019e40080cf50001000320090c2b3009e407800b7
:1019f40080cf50000c003200a0c2b3009e4078009b
:101a040080cf500008003200b0c2b3009e4078007e
:101a140080cf500004003200c0c2b3009e40780062
:101a240080cf500002003a0020e12000d9003700a6
:101a34001e407800e64f5000190032001e40780026
:101a4400e74f5000160032001e407800e84f500067
:101a5400130032001e407800e94f5000100032009d
:101a6400f0c3b3009e40780080cf50000c003200d9
:101a740090c4b3009e40780080cf5000080032002c
:101a8400a0c4b3009e40780080cf50000400320010
:101a940000c4b3009e40780080cf500002003a009a
:101aa40020e22000bb00370080c4b3009e407800d1
:101ab40080cf50003c003200c0c4b3009e40780088
:101ac40080cf500038003200d0c4b3009e4078006c
:101ad40080cf500034003200e0c4b3009e40780050
:101ae40080cf50003000320010c5b3009e40780013
:101af40080cf50002c00320020c5b3009e407800f7
:101b040080cf50002800320030c5b3009e407800da
:101b140080cf50002400320040c5b3009e407800be
:101b240080cf50002000320040c4b3009e407800b3
:101b340080cf50001c00320050c4b3009e40780097
:101b440080cf50001800320060c4b3009e4078007b
:101b540080cf50001400320070c4b3009e4078005f
:101b640080cf500010003200f0c4b3009e407800d3
:101b740080cf50000c00320000c5b3009e407800b6
:101b840080cf500008003200f0c2b3009e407800bd
:101b940080cf50000400320000c3b3009e407800a0
:101ba40080cf500002003a0020e320007900370083
:101bb400d0c5b3009e40780080cf50001f00320093
:101bc400e0c5b3009e40780080cf50001b00320077
:101bd40020c6b3009e40780080cf5000170032002a
:101be40030c6b3009e40780080cf5000130032000e
:101bf40040c6b3009e40780080cf50000f003200f2
:101c04001e407800e34f50000c0032001e40780064
:101c1400e44f5000090032001e407800e54f5000a8
:101c2400060032001e407800f24f500003003200dc
:101c34001e407800f34f500002003a0020e42000d8
:101c44005400370070c5b3009e40780080cf500028
:101c54002000320080c5b3009e40780080cf500041
:101c64001c00320040c3b3009e40780080cf500077
:101c74001800320030c3b3009e40780080cf50007b
:101c84001400320010c3b3009e40780080cf50008f
:101c94001000320020c3b3009e40780080cf500073
:101ca4000c00320050c3b3009e40780080cf500037
:101cb4000800320080c2b3009e40780080cf5000fc
:101cc4000400320070c2b3009e40780080cf500000
:101cd40002003a0020e520002e003700a0c5b30022
:101ce4009e40780080cf50002700320090c5b3009a
:101cf4009e40780080cf50002300320090c3b30090
:101d04009e40780080cf50001f00320080c3b30093
:101d14009e40780080cf50001b0032001e407800a7
:101d2400ea4f5000180032001e407800eb4f50007c
:101d3400150032001e407800ec4f500012003200b3
:101d44001e407800ee4f50000f00320000c6b30072
:101d54009e40780080cf50000b00320010c6b300c4
:101d64009e40780080cf500007003200f0c5b300d9
:101d74009e40780080cf5000030032001e4078005f
:101d8400e14f500002003a0020e620000100370035
:101d94000000eb000080fa00000006000200fa00d8
:101da400004f78001e407800f14f50002a003200a6
:101db40060c2b3009e40780080cf500026003200fd
:101dc400a0c3b3009e40780080cf500022003200b0
:101dd400b0c3b3009e40780080cf50001e00320094
:101de400c0c3b3009e40780080cf50001a00320078
:101df400d0c3b3009e40780080cf5000160032005c
:101e0400b0c5b3009e40780080cf5000120032006d
:101e1400c0c5b3009e40780080cf50000e00320051
:101e24001e407800fc4f50000b0032001e4078002a
:101e3400fd4f50000800320020c4b3009e407800db
:101e440080cf50000400320030c4b3009e407800bc
:101e540080cf500002003a0040e020001301370018
:101e64001e407800f94f5000350032001e407800c3
:101e7400f84f5000320032001e407800f74f5000f7
:101e84002f0032001e407800f64f50002c00320024
:101e94001e407800f54f5000290032001e407800a3
:101ea400f44f5000260032001e407800fa4f5000d4
:101eb400230032001e407800fb4f50002000320007
:101ec40000c2b3009e40780080cf50001c00320056
:101ed40010c2b3009e40780080cf5000180032003a
:101ee40020c2b3009e40780080cf5000140032001e
:101ef40030c2b3009e40780080cf50001000320002
:101f040090c2b3009e40780080cf50000c00320095
:101f1400a0c2b3009e40780080cf50000800320079
:101f2400b0c2b3009e40780080cf5000040032005d
:101f3400c0c2b3009e40780080cf500002003a0037
:101f440040e12000d90037001e407800e64f5000e1
:101f5400190032001e407800e74f5000160032008e
:101f64001e407800e84f5000130032001e407800f5
:101f7400e94f500010003200f0c3b3009e407800d7
:101f840080cf50000c00320090c4b3009e40780013
:101f940080cf500008003200a0c4b3009e407800f7
:101fa40080cf50000400320000c4b3009e4078008b
:101fb40080cf500002003a0040e22000bb0037000e
:101fc40080c4b3009e40780080cf50003c003200b3
:101fd400c0c4b3009e40780080cf50003800320067
:101fe400d0c4b3009e40780080cf5000340032004b
:101ff400e0c4b3009e40780080cf5000300032002f
:1020040010c5b3009e40780080cf50002c003200f1
:1020140020c5b3009e40780080cf500028003200d5
:1020240030c5b3009e40780080cf500024003200b9
:1020340040c5b3009e40780080cf5000200032009d
:1020440040c4b3009e40780080cf50001c00320092
:1020540050c4b3009e40780080cf50001800320076
:1020640060c4b3009e40780080cf5000140032005a
:1020740070c4b3009e40780080cf5000100032003e
:10208400f0c4b3009e40780080cf50000c003200b2
:1020940000c5b3009e40780080cf50000800320095
:1020a400f0c2b3009e40780080cf5000040032009c
:1020b40000c3b3009e40780080cf500002003a0075
:1020c40040e3200079003700d0c5b3009e4078007b
:1020d40080cf50001f003200e0c5b3009e4078005e
:1020e40080cf50001b00320020c6b3009e40780011
:1020f40080cf50001700320030c6b3009e407800f5
:1021040080cf50001300320040c6b3009e407800d8
:1021140080cf50000f0032001e407800e34f500083
:102124000c0032001e407800e44f500009003200d9
:102134001e407800e54f5000060032001e40780033
:10214400f24f5000030032001e407800f34f50005d
:1021540002003a0040e420005400370070c5b30088
:102164009e40780080cf50002000320080c5b3002c
:102174009e40780080cf50001c00320040c3b30062
:102184009e40780080cf50001800320030c3b30066
:102194009e40780080cf50001400320010c3b3007a
:1021a4009e40780080cf50001000320020c3b3005e
:1021b4009e40780080cf50000c00320050c3b30022
:1021c4009e40780080cf50000800320080c2b300e7
:1021d4009e40780080cf50000400320070c2b300eb
:1021e4009e40780080cf500002003a0040e5200075
:1021f4002e003700a0c5b3009e40780080cf500069
:102204002700320090c5b3009e40780080cf500074
:102214002300320090c3b3009e40780080cf50006a
:102224001f00320080c3b3009e40780080cf50006e
:102234001b0032001e407800ea4f500018003200a4
:102244001e407800eb4f5000150032001e4078000d
:10225400ec4f5000120032001e407800ee4f500048
:102264000f00320000c6b3009e40780080cf5000bb
:102274000b00320010c6b3009e40780080cf50009f
:1022840007003200f0c5b3009e40780080cf5000b4
:10229400030032001e407800e14f500002003a0073
:1022a40040e62000010037000000eb000080fa0047
:1022b400000006000200fa00004f78001e4078007b
:1022c400f14f50002a00320060c2b3009e407800f3
:1022d40080cf500026003200a0c3b3009e40780097
:1022e40080cf500022003200b0c3b3009e4078007b
:1022f40080cf50001e003200c0c3b3009e4078005f
:1023040080cf50001a003200d0c3b3009e40780042
:1023140080cf500016003200b0c5b3009e40780054
:1023240080cf500012003200c0c5b3009e40780038
:1023340080cf50000e0032001e407800fc4f500049
:102344000b0032001e407800fd4f500008003200a0
:1023540020c4b3009e40780080cf500004003200b7
:1023640030c4b3009e40780080cf500002003a0091
:1023740060e020009600370080c4b3009e407800df
:1023840080cf50003c003200c0c4b3009e407800af
:1023940080cf500038003200d0c4b3009e40780093
:1023a40080cf500034003200e0c4b3009e40780077
:1023b40080cf50003000320010c5b3009e4078003a
:1023c40080cf50002c00320020c5b3009e4078001e
:1023d40080cf50002800320030c5b3009e40780002
:1023e40080cf50002400320040c5b3009e407800e6
:1023f40080cf50002000320040c4b3009e407800db
:1024040080cf50001c00320050c4b3009e407800be
:1024140080cf50001800320060c4b3009e407800a2
:1024240080cf50001400320070c4b3009e40780086
:1024340080cf500010003200f0c4b3009e407800fa
:1024440080cf50000c00320000c5b3009e407800dd
:1024540080cf500008003200f0c2b3009e407800e4
:1024640080cf50000400320000c3b3009e407800c7
:1024740080cf500002003a0060e32000540037008f
:1024840070c5b3009e40780080cf50002000320019
:1024940080c5b3009e40780080cf50001c003200fd
:1024a40040c3b3009e40780080cf50001800320033
:1024b40030c3b3009e40780080cf50001400320037
:1024c40010c3b3009e40780080cf5000100032004b
:1024d40020c3b3009e40780080cf50000c0032002f
:1024e40050c3b3009e40780080cf500008003200f3
:1024f40080c2b3009e40780080cf500004003200b8
:1025040070c2b3009e40780080cf500002003a00b1
:1025140060e520002e003700a0c5b3009e4078007f
:1025240080cf50002700320090c5b3009e40780051
:1025340080cf50002300320090c3b3009e40780047
:1025440080cf50001f00320080c3b3009e4078004b
:1025540080cf50001b0032001e407800ea4f50002c
:10256400180032001e407800eb4f50001500320076
:102574001e407800ec4f5000120032001e407800dc
:10258400ee4f50000f00320000c6b3009e407800aa
:1025940080cf50000b00320010c6b3009e4078007c
:1025a40080cf500007003200f0c5b3009e40780091
:1025b40080cf5000030032001e407800e14f5000ed
:1025c40002003a0060e62000010037000000eb0042
:1025d4000080fa00000006000200fa00004f7800b4
:1025e4001e407800f14f50002a00320060c2b30050
:1025f4009e40780080cf500026003200a0c3b30074
:102604009e40780080cf500022003200b0c3b30057
:102614009e40780080cf50001e003200c0c3b3003b
:102624009e40780080cf50001a003200d0c3b3001f
:102634009e40780080cf500016003200b0c5b30031
:102644009e40780080cf500012003200c0c5b30015
:102654009e40780080cf50000e0032001e4078006b
:10266400fc4f50000b0032001e407800fd4f50001c
:102674000800320020c4b3009e40780080cf500090
:102684000400320030c4b3009e40780080cf500074
:1026940002003a0080e02000130137001e40780059
:1026a400f94f5000350032001e407800f84f5000ba
:1026b400320032001e407800f74f50002f003200e5
:1026c4001e407800f64f50002c0032001e40780067
:1026d400f54f5000290032001e407800f44f50009e
:1026e400260032001e407800fa4f500023003200ca
:1026f4001e407800fb4f50002000320000c2b3009f
:102704009e40780080cf50001c00320010c2b300fd
:102714009e40780080cf50001800320020c2b300e1
:102724009e40780080cf50001400320030c2b300c5
:102734009e40780080cf50001000320090c2b30059
:102744009e40780080cf50000c003200a0c2b3003d
:102754009e40780080cf500008003200b0c2b30021
:102764009e40780080cf500004003200c0c2b30005
:102774009e40780080cf500002003a0080e12000a3
:10278400d90037001e407800e64f5000190032008f
:102794001e407800e74f5000160032001e407800bb
:1027a400e84f5000130032001e407800e94f5000fb
:1027b40010003200f0c3b3009e40780080cf500078
:1027c4000c00320090c4b3009e40780080cf5000cb
:1027d40008003200a0c4b3009e40780080cf5000af
:1027e4000400320000c4b3009e40780080cf500043
:1027f40002003a0080e22000bb00370080c4b3002e
:102804009e40780080cf50003c003200c0c4b3002a
:102814009e40780080cf500038003200d0c4b3000e
:102824009e40780080cf500034003200e0c4b300f2
:102834009e40780080cf50003000320010c5b300b5
:102844009e40780080cf50002c00320020c5b30099
:102854009e40780080cf50002800320030c5b3007d
:102864009e40780080cf50002400320040c5b30061
:102874009e40780080cf50002000320040c4b30056
:102884009e40780080cf50001c00320050c4b3003a
:102894009e40780080cf50001800320060c4b3001e
:1028a4009e40780080cf50001400320070c4b30002
:1028b4009e40780080cf500010003200f0c4b30076
:1028c4009e40780080cf50000c00320000c5b30059
:1028d4009e40780080cf500008003200f0c2b30060
:1028e4009e40780080cf50000400320000c3b30043
:1028f4009e40780080cf500002003a0080e3200020
:1029040079003700d0c5b3009e40780080cf5000d6
:102914001f003200e0c5b3009e40780080cf500015
:102924001b00320020c6b3009e40780080cf5000c8
:102934001700320030c6b3009e40780080cf5000ac
:102944001300320040c6b3009e40780080cf500090
:102954000f0032001e407800e34f50000c0032009c
:102964001e407800e44f5000090032001e407800f9
:10297400e54f5000060032001e407800f24f500030
:10298400030032001e407800f34f500002003a006a
:1029940080e420005400370070c5b3009e407800e6
:1029a40080cf50002000320080c5b3009e407800e4
:1029b40080cf50001c00320040c3b3009e4078001a
:1029c40080cf50001800320030c3b3009e4078001e
:1029d40080cf50001400320010c3b3009e40780032
:1029e40080cf50001000320020c3b3009e40780016
:1029f40080cf50000c00320050c3b3009e407800da
:102a040080cf50000800320080c2b3009e4078009e
:102a140080cf50000400320070c2b3009e407800a2
:102a240080cf500002003a0080e520002e003700dd
:102a3400a0c5b3009e40780080cf5000270032002c
:102a440090c5b3009e40780080cf50002300320030
:102a540090c3b3009e40780080cf50001f00320026
:102a640080c3b3009e40780080cf50001b0032002a
:102a74001e407800ea4f5000180032001e407800d3
:102a8400eb4f5000150032001e407800ec4f500010
:102a9400120032001e407800ee4f50000f0032004a
:102aa40000c6b3009e40780080cf50000b00320077
:102ab40010c6b3009e40780080cf5000070032005b
:102ac400f0c5b3009e40780080cf50000300320070
:102ad4001e407800e14f500002003a0080e62000da
:102ae400010037000000eb000080fa00000006003f
:102af4000200fa00004f78001e407800f14f5000a9
:102b04002a00320060c2b3009e40780080cf50009b
:102b140026003200a0c3b3009e40780080cf50004e
:102b240022003200b0c3b3009e40780080cf500032
:102b34001e003200c0c3b3009e40780080cf500016
:102b44001a003200d0c3b3009e40780080cf5000fa
:102b540016003200b0c5b3009e40780080cf50000c
:102b640012003200c0c5b3009e40780080cf5000f0
:102b74000e0032001e407800fc4f50000b00320063
:102b84001e407800fd4f50000800320020c4b300fe
:102b94009e40780080cf50000400320030c4b3005f
:102ba4009e40780080cf500002003a00a0e0200050
:102bb400130137001e407800f94f500035003200f1
:102bc4001e407800f84f5000320032001e4078005a
:102bd400f74f50002f0032001e407800f64f50008f
:102be4002c0032001e407800f54f500029003200be
:102bf4001e407800f44f5000260032001e4078003a
:102c0400fa4f5000230032001e407800fb4f500062
:102c14002000320000c2b3009e40780080cf5000f4
:102c24001c00320010c2b3009e40780080cf5000d8
:102c34001800320020c2b3009e40780080cf5000bc
:102c44001400320030c2b3009e40780080cf5000a0
:102c54001000320090c2b3009e40780080cf500034
:102c64000c003200a0c2b3009e40780080cf500018
:102c740008003200b0c2b3009e40780080cf5000fc
:102c840004003200c0c2b3009e40780080cf5000e0
:102c940002003a00a0e12000d90037001e4078006d
:102ca400e64f5000190032001e407800e74f5000f4
:102cb400160032001e407800e84f50001300320026
:102cc4001e407800e94f500010003200f0c3b300fa
:102cd4009e40780080cf50000c00320090c4b300b6
:102ce4009e40780080cf500008003200a0c4b3009a
:102cf4009e40780080cf50000400320000c4b3002e
:102d04009e40780080cf500002003a00a0e22000ec
:102d1400bb00370080c4b3009e40780080cf5000d1
:102d24003c003200c0c4b3009e40780080cf500005
:102d340038003200d0c4b3009e40780080cf5000e9
:102d440034003200e0c4b3009e40780080cf5000cd
:102d54003000320010c5b3009e40780080cf500090
:102d64002c00320020c5b3009e40780080cf500074
:102d74002800320030c5b3009e40780080cf500058
:102d84002400320040c5b3009e40780080cf50003c
:102d94002000320040c4b3009e40780080cf500031
:102da4001c00320050c4b3009e40780080cf500015
:102db4001800320060c4b3009e40780080cf5000f9
:102dc4001400320070c4b3009e40780080cf5000dd
:102dd40010003200f0c4b3009e40780080cf500051
:102de4000c00320000c5b3009e40780080cf500034
:102df40008003200f0c2b3009e40780080cf50003b
:102e04000400320000c3b3009e40780080cf50001d
:102e140002003a00a0e3200079003700d0c5b300d7
:102e24009e40780080cf50001f003200e0c5b30000
:102e34009e40780080cf50001b00320020c6b300b3
:102e44009e40780080cf50001700320030c6b30097
:102e54009e40780080cf50001300320040c6b3007b
:102e64009e40780080cf50000f0032001e40780052
:102e7400e34f50000c0032001e407800e44f500035
:102e8400090032001e407800e54f50000600320071
:102e94001e407800f24f5000030032001e407800bc
:102ea400f34f500002003a00a0e420005400370021
:102eb40070c5b3009e40780080cf500020003200df
:102ec40080c5b3009e40780080cf50001c003200c3
:102ed40040c3b3009e40780080cf500018003200f9
:102ee40030c3b3009e40780080cf500014003200fd
:102ef40010c3b3009e40780080cf50001000320011
:102f040020c3b3009e40780080cf50000c003200f4
:102f140050c3b3009e40780080cf500008003200b8
:102f240080c2b3009e40780080cf5000040032007d
:102f340070c2b3009e40780080cf500002003a0077
:102f4400a0e520002e003700a0c5b3009e40780005
:102f540080cf50002700320090c5b3009e40780017
:102f640080cf50002300320090c3b3009e4078000d
:102f740080cf50001f00320080c3b3009e40780011
:102f840080cf50001b0032001e407800ea4f5000f2
:102f9400180032001e407800eb4f5000150032003c
:102fa4001e407800ec4f5000120032001e407800a2
:102fb400ee4f50000f00320000c6b3009e40780070
:102fc40080cf50000b00320010c6b3009e40780042
:102fd40080cf500007003200f0c5b3009e40780057
:102fe40080cf5000030032001e407800e14f5000b3
:102ff40002003a00a0e62000010037000000eb00c8
:103004000080fa00000006000200fa00004f780079
:103014001e407800f14f50002a00320060c2b30015
:103024009e40780080cf500026003200a0c3b30039
:103034009e40780080cf500022003200b0c3b3001d
:103044009e40780080cf50001e003200c0c3b30001
:103054009e40780080cf50001a003200d0c3b300e5
:103064009e40780080cf500016003200b0c5b300f7
:103074009e40780080cf500012003200c0c5b300db
:103084009e40780080cf50000e0032001e40780031
:10309400fc4f50000b0032001e407800fd4f5000e2
:1030a4000800320020c4b3009e40780080cf500056
:1030b4000400320030c4b3009e40780080cf50003a
:1030c40002003a00c0e02000130137001e407800df
:1030d400f94f5000350032001e407800f84f500080
:1030e400320032001e407800f74f50002f003200ab
:1030f4001e407800f64f50002c0032001e4078002d
:10310400f54f5000290032001e407800f44f500063
:10311400260032001e407800fa4f5000230032008f
:103124001e407800fb4f50002000320000c2b30064
:103134009e40780080cf50001c00320010c2b300c3
:103144009e40780080cf50001800320020c2b300a7
:103154009e40780080cf50001400320030c2b3008b
:103164009e40780080cf50001000320090c2b3001f
:103174009e40780080cf50000c003200a0c2b30003
:103184009e40780080cf500008003200b0c2b300e7
:103194009e40780080cf500004003200c0c2b300cb
:1031a4009e40780080cf500002003a00c0e1200029
:1031b400d90037001e407800e64f50001900320055
:1031c4001e407800e74f5000160032001e40780081
:1031d400e84f5000130032001e407800e94f5000c1
:1031e40010003200f0c3b3009e40780080cf50003e
:1031f4000c00320090c4b3009e40780080cf500091
:1032040008003200a0c4b3009e40780080cf500074
:103214000400320000c4b3009e40780080cf500008
:1032240002003a00c0e22000bb00370080c4b300b3
:103234009e40780080cf50003c003200c0c4b300f0
:103244009e40780080cf500038003200d0c4b300d4
:103254009e40780080cf500034003200e0c4b300b8
:103264009e40780080cf50003000320010c5b3007b
:103274009e40780080cf50002c00320020c5b3005f
:103284009e40780080cf50002800320030c5b30043
:103294009e40780080cf50002400320040c5b30027
:1032a4009e40780080cf50002000320040c4b3001c
:1032b4009e40780080cf50001c00320050c4b30000
:1032c4009e40780080cf50001800320060c4b300e4
:1032d4009e40780080cf50001400320070c4b300c8
:1032e4009e40780080cf500010003200f0c4b3003c
:1032f4009e40780080cf50000c00320000c5b3001f
:103304009e40780080cf500008003200f0c2b30025
:103314009e40780080cf50000400320000c3b30008
:103324009e40780080cf500002003a00c0e32000a5
:1033340079003700d0c5b3009e40780080cf50009c
:103344001f003200e0c5b3009e40780080cf5000db
:103354001b00320020c6b3009e40780080cf50008e
:103364001700320030c6b3009e40780080cf500072
:103374001300320040c6b3009e40780080cf500056
:103384000f0032001e407800e34f50000c00320062
:103394001e407800e44f5000090032001e407800bf
:1033a400e54f5000060032001e407800f24f5000f6
:1033b400030032001e407800f34f500002003a0030
:1033c400c0e420005400370070c5b3009e4078006c
:1033d40080cf50002000320080c5b3009e407800aa
:1033e40080cf50001c00320040c3b3009e407800e0
:1033f40080cf50001800320030c3b3009e407800e4
:1034040080cf50001400320010c3b3009e407800f7
:1034140080cf50001000320020c3b3009e407800db
:1034240080cf50000c00320050c3b3009e4078009f
:1034340080cf50000800320080c2b3009e40780064
:1034440080cf50000400320070c2b3009e40780068
:1034540080cf500002003a00c0e520002e00370063
:10346400a0c5b3009e40780080cf500027003200f2
:1034740090c5b3009e40780080cf500023003200f6
:1034840090c3b3009e40780080cf50001f003200ec
:1034940080c3b3009e40780080cf50001b003200f0
:1034a4001e407800ea4f5000180032001e40780099
:1034b400eb4f5000150032001e407800ec4f5000d6
:1034c400120032001e407800ee4f50000f00320010
:1034d40000c6b3009e40780080cf50000b0032003d
:1034e40010c6b3009e40780080cf50000700320021
:1034f400f0c5b3009e40780080cf50000300320036
:103504001e407800e14f500002003a00c0e620005f
:10351400010037000000eb000080fa000000060004
:103524000200fa00004f78001e407800f14f50006e
:103534002a00320060c2b3009e40780080cf500061
:1035440026003200a0c3b3009e40780080cf500014
:1035540022003200b0c3b3009e40780080cf5000f8
:103564001e003200c0c3b3009e40780080cf5000dc
:103574001a003200d0c3b3009e40780080cf5000c0
:1035840016003200b0c5b3009e40780080cf5000d2
:1035940012003200c0c5b3009e40780080cf5000b6
:1035a4000e0032001e407800fc4f50000b00320029
:1035b4001e407800fd4f50000800320020c4b300c4
:1035c4009e40780080cf50000400320030c4b30025
:1035d4009e40780080cf500002003a00e0e02000d6
:1035e400ed0037001e407800f94f500035003200de
:1035f4001e407800f84f5000320032001e40780020
:10360400f74f50002f0032001e407800f64f500054
:103614002c0032001e407800f54f50002900320083
:103624001e407800f44f5000260032001e407800ff
:10363400fa4f5000230032001e407800fb4f500028
:103644002000320000c2b3009e40780080cf5000ba
:103654001c00320010c2b3009e40780080cf50009e
:103664001800320020c2b3009e40780080cf500082
:103674001400320030c2b3009e40780080cf500066
:103684001000320090c2b3009e40780080cf5000fa
:103694000c003200a0c2b3009e40780080cf5000de
:1036a40008003200b0c2b3009e40780080cf5000c2
:1036b40004003200c0c2b3009e40780080cf5000a6
:1036c40002003a00e0e12000b30037001e40780019
:1036d400e64f5000190032001e407800e74f5000ba
:1036e400160032001e407800e84f500013003200ec
:1036f4001e407800e94f500010003200f0c3b300c0
:103704009e40780080cf50000c00320090c4b3007b
:103714009e40780080cf500008003200a0c4b3005f
:103724009e40780080cf50000400320000c4b300f3
:103734009e40780080cf500002003a00e0e2200072
:103744009500370080c4b3009e40780080cf5000bd
:103754003c003200c0c4b3009e40780080cf5000cb
:1037640038003200d0c4b3009e40780080cf5000af
:1037740034003200e0c4b3009e40780080cf500093
:103784003000320010c5b3009e40780080cf500056
:103794002c00320020c5b3009e40780080cf50003a
:1037a4002800320030c5b3009e40780080cf50001e
:1037b4002400320040c5b3009e40780080cf500002
:1037c4002000320040c4b3009e40780080cf5000f7
:1037d4001c00320050c4b3009e40780080cf5000db
:1037e4001800320060c4b3009e40780080cf5000bf
:1037f4001400320070c4b3009e40780080cf5000a3
:1038040010003200f0c4b3009e40780080cf500016
:103814000c00320000c5b3009e40780080cf5000f9
:1038240008003200f0c2b3009e40780080cf500000
:103834000400320000c3b3009e40780080cf5000e3
:1038440002003a00e0e3200053003700d0c5b30083
:103854009e40780080cf50001f003200e0c5b300c6
:103864009e40780080cf50001b00320020c6b30079
:103874009e40780080cf50001700320030c6b3005d
:103884009e40780080cf50001300320040c6b30041
:103894009e40780080cf50000f0032001e40780018
:1038a400e34f50000c0032001e407800e44f5000fb
:1038b400090032001e407800e54f50000600320037
:1038c4001e407800f24f5000030032001e40780082
:1038d400f34f500002003a00e0e420002e003700cd
:1038e400a0c5b3009e40780080cf5000270032006e
:1038f40090c5b3009e40780080cf50002300320072
:1039040090c3b3009e40780080cf50001f00320067
:1039140080c3b3009e40780080cf50001b0032006b
:103924001e407800ea4f5000180032001e40780014
:10393400eb4f5000150032001e407800ec4f500051
:10394400120032001e407800ee4f50000f0032008b
:1039540000c6b3009e40780080cf50000b003200b8
:1039640010c6b3009e40780080cf5000070032009c
:10397400f0c5b3009e40780080cf500003003200b1
:103984001e407800e14f500002003a00e0e62000bb
:10399400010037000000eb000080fa000000060080
:1039a4000400fa00000f780021479800324798007d
:1039b4002e409000ef4f50001a003e003e40900011
:1039c400e14f500017003e003e4090000004e0002c
:1039d4000a0032001e007800900078002e4090000b
:1039e4000080fb00120020000010dd008100700048
:1039f4001e007800010878000a0037001e007800d5
:103a0400900078002e4090000080fb0012002000ff
:103a14000010dd000080ea00808060001e00780055
:103a2400010878000080fa00000006000400fa0093
:103a3400000f7800214798002e4090000080fb0082
:103a4400110020000008dd009e0060002e40900060
:103a54000080fb000008de00004078000080fa00cf
:103a6400000006000200fa0010c0b300004f780006
:103a740032d0bf000080fb00e10f50001400320080
:103a8400e10f500003003c000000e000060032009b
:103a940047003700e20f500024003200e30f5000cb
:103aa4002c0032004200370000c6b30006f50700c0
:103ab4000004e00003003a0010c0b30032f0b70085
:103ac4003430ef0010c0b300004f78003c003700e2
:103ad400a08180000000e800a081880000c6b30037
:103ae400f9f407000004e0000c003a00a181800012
:103af400c02e8400808f50000500390020c0b30020
:103b040032f0b7000040eb00004f78002c00370083
:103b140010c0b300004f7800290037003270ef0066
:103b240010c0b300004f78002500370000c6b30072
:103b3400e5f40700e14f500003003a0030c0b30041
:103b440032f0b7003430ef000040eb00004f780053
:103b54001b003700a08180000000e800a0818800dd
:103b640000c6b300d8f40700e14f50000b003a0040
:103b7400a1818000c02e8400808f50000400390091
:103b84003270ef0010c0b300004f78000c00370013
:103b94000040eb00004f78000900370020c0b3005c
:103ba40032f0b7000040eb00004f7800040037000b
:103bb4003270ef0010c0b300004f78000000000026
:103bc4001e4078000080fa00000006000400fa009d
:103bd4002047980010c0b300004f78002ed0bf00db
:103be4000080fb00e10f500014003200e10f500090
:103bf40003003c000000e0000600320047003700ec
:103c0400e20f500024003200e30f50002c00320079
:103c1400420037002e409000abf407000004e0009f
:103c240003003a0010c0b3002ef0b7003030ef00ac
:103c340010c0b300004f78003c0037008081800042
:103c44000000e800808188002e4090009ef4070068
:103c54000004e0000c003a0081818000c02e840042
:103c6400808f50000500390020c0b3002ef0b7004b
:103c74000040eb00004f78002c00370010c0b30068
:103c8400004f7800290037002e70ef0010c0b300f9
:103c9400004f7800250037002e4090008af407007a
:103ca400e14f500003003a0030c0b3002ef0b700db
:103cb4003030ef000040eb00004f78001b0037006d
:103cc400808180000000e800808188002e40900000
:103cd4007df40700e14f50000b003a008181800021
:103ce400c02e8400808f5000040039002e70ef0035
:103cf40010c0b300004f78000c0037000040eb0008
:103d0400004f78000900370020c0b3002ef0b70040
:103d14000040eb00004f7800040037002e70ef00e5
:103d240010c0b300004f7800000000001e4078006f
:103d34000080fa00000006000200fa000040eb00d8
:103d4400004f78002cd0bf000080fb00e10f500032
:103d54001c003200e10f500003003c000000e000b2
:103d6400060032006a003700e20f500032003200d1
:103d7400e30f50004d00320065003700a0c5b300ca
:103d840051f40700e14f500005003a0010c0b300a1
:103d94002cf0b70010c0b3002df0b7005c00370062
:103da40090c5b30048f40700e14f500051003a00b9
:103db40020c0b3002cf0b70000c0eb002df0b7001a
:103dc40053003700a0c5b3003ff407000004e0002f
:103dd4000a003a002c70ef002dd0bf00e14f4000e4
:103de40004003a0000c0eb00004f78002d70ef0093
:103df400470037002d70ef004500370090c5b30031
:103e040031f40700e14f50003c003a0030c0b300e9
:103e14002cf0b7002dd0bf00e14f500004003a0051
:103e240010c0b300004f78002d70ef003800370049
:103e34002d70ef0036003700a0c5b30022f4070050
:103e4400e14f50000b003a0030c0b3002cf0b70033
:103e54002dd0bf00e14f400004003a0000c0eb0049
:103e6400004f78002d70ef00290037002d70ef000f
:103e74002700370090c5b30013f407000004e000e6
:103e840020003a002c70ef002dd0bf00e14f50000d
:103e940004003a0010c0b300004f78002d70ef000a
:103ea4001b0037002d70ef0019003700a0c5b300c8
:103eb40005f407000004e00005003a0020c0b30048
:103ec4002cf0b70010c0b3002df0b700100037007d
:103ed40090c5b300fcf307000004e0000b003a00b7
:103ee40010c0b3002cf0b70000c0eb002df0b700f9
:103ef4000700370000000000050037000000000044
:103f0400030037000000000001003700000000003b
:103f14001e4078000080fa00000006000c00fa0041
:103f2400004f780012079800230798003407980080
:103f340045079800214f98000040eb000080fa00ec
:103f4400000006000000fa000080fa0000000600ed
:103f54001800fa0000579800120f9800230f9800d9
:103f64006157980005e1a9000421a90004c1a90032
:103f740021088000f0fc2f00008060000050a000a9
:103f8400200888000021ef000080eb001008880062
:103f940001428000f0ff2800008060000042880099
:103fa4000068a9002068a90005e1a8000e5190004e
:103fb400a1032100824878001e089000ae089000fa
:103fc40002402f00130020008cf107006011b8009c
:103fd400009fbe000297be006e5090000080fb0060
:103fe4008000eb006011b8003e02be002e03be004c
:103ff40094f2070044062000050020006033b80056
:1040040027f20700400798005107980062079800bc
:10401400730798004e009000b08188009e007800dd
:10402400b081800000805000c08188000080fa00c8
:10403400000006000200fa0000088000000f78006b
:104044003bd0bf000004e0000d003a00e081800096
:104054009e001000c0818000808f50001300350046
:104064003ad0bf0011c0b3006ff30700000880000e
:10407400e081880010c0b3003bf0b7000b003700ac
:10408400e08180009e001000b0818000808f50008d
:10409400060035003ad0bf008040eb0062f3070011
:1040a40000088000e08188003b70ef000080fa0087
:1040b400000006001600fa00000f9800110f980087
:1040c400425798000e0890009e08900002402f006e
:1040d4001300200049f107006011b800009fbe00e2
:1040e4000297be004e5090000080fb008000eb0061
:1040f4006011b8003e02be002e03be0051f207005c
:1041040044062000050020006033b800e4f10700f5
:1041140040079800510798006207980073079800b9
:104124004e009000b08188009e007800b08180002d
:1041340000805000c08188000080fa000000060062
:104144000800fa00004f78001147980022479800b1
:1041540033479800444798005547980066479800ad
:10416400774798001e80fb00e50f500019013200cc
:10417400e50f50000c003c00e20f50005a003200e2
:10418400e20f500003003c00e10f50000f0032002a
:1041940044023700e30f500092003200e40f500055
:1041a400cd0032003f023700e70f50008501320096
:1041b400e70f500044013500e80f5000bd01320004
:1041c400e90f5000fa0132003602370005e1a90078
:1041d4001e409000614060000080fb0061006000b0
:1041e4004d00dd002108800001d0a1000100700015
:1041f400200888002e409000614060000080fb0091
:10420400610060004600dd00210880000160a1001b
:1042140001007000200888003e4090006340600068
:104224000080fb00630060004400dd002208800081
:10423400f1fc2f008100610001007000200888005b
:104244004e409000614060000080fb00610060000f
:104254004200dd00210880000120a100010070005f
:10426400200888005e409000614060000080fb00f0
:104274006100600000004000210880000110a100de
:1042840001007000200888007e40900067406000b4
:104294000080fb00670060004c00dd0002428000eb
:1042a400f1ff2800810061000100700000428800d5
:1042b4000068a9006e409000614060000080fb002f
:1042c400610060004300dd00014180000130a10075
:1042d40001007000004188000021ef000080eb0025
:1042e40010088800ef01370011e1a9001e4090007a
:1042f400614060000080fb00610060004d00dd0053
:104304008108800001d0a1000100700080088800ad
:104314002e409000614060000080fb00610060005e
:104324004600dd00810880000160a10001007000ea
:10433400800888003e409000634060000080fb00dd
:10434400630060004400dd0082088000f1fc2f005f
:104354008100610001007000800888005e409000c8
:10436400614060000080fb006100600000004000cc
:10437400810880000110a1000100700080088800fd
:104384001061a9007e409000674060000080fb003f
:10439400670060004c00dd0012428000f1ff28003d
:1043a40081006100010070001042880000e8a9004b
:1043b4006e409000614060000080fb00610060007e
:1043c4004700dd00014180000170a1000100700080
:1043d400004188000621ef000080eb00600888009f
:1043e400b001370013e1a9001e4090006140600055
:1043f4000080fb00610060004d00dd00910880003a
:1044040001d0a10001007000900888002e409000a7
:10441400614060000080fb00610060004600dd0038
:10442400910880000160a1000100700090088800dc
:104434003e409000634060000080fb006300600029
:104444004400dd0092088000f1fc2f00810061002f
:1044540001007000900888005e4090006140600098
:104464000080fb00610060000000400091088000b3
:104474000110a10001007000900888007e409000a7
:10448400674060000080fb006700600022428000fb
:1044940081ff2f008100610001007000204288002c
:1044a4000108a9006e409000614060000080fb009c
:1044b400610060004800dd00014180000180a1002e
:1044c40001007000004188000a21ef000080eb0029
:1044d40070088800730137001fe1a9001e40900096
:1044e400614060000080fb00610060004d00dd0061
:1044f400f108800001d0a10001007000f0088800dc
:104504002e409000614060000080fb00610060006c
:104514004600dd00f10880000160a1000100700088
:10452400f00888003e409000634060000080fb007b
:10453400630060004400dd00f2088000f1fc2f00fd
:104544008100610001007000f00888005e40900066
:10455400614060000080fb006100600000004000da
:10456400f10880000110a10001007000f00888002b
:104574001e61a9007e409000674060000080fb003f
:10458400670060004c00dd0062428000f1ff2800fb
:104594008100610001007000604288000368a90086
:1045a4006e409000614060000080fb00610060008c
:1045b4004b00dd001141800001b0a100010070003a
:1045c400104188001421ef000080eb00d00888001f
:1045d4003401370021e1a9001e40900061406000d1
:1045e4000080fb00610060004d00dd0001098000d7
:1045f40001d0a10001007000000988002e40900045
:10460400614060000080fb00610060004600dd0046
:10461400010980000160a100010070000009880008
:104624003e409000634060000080fb006300600037
:104634004400dd0002098000f1fc2f0081006100cc
:1046440001007000000988005e4090006140600035
:104654000080fb0061006000000040000109800050
:104664000110a10001007000000988007e40900044
:10467400674060000080fb006700600072428000b9
:1046840081ff2f00810061000100700070428800ea
:104694000388a9006e409000614060000080fb0028
:1046a400610060004c00dd001141800001c0a100e8
:1046b40001007000104188001821ef000080eb0019
:1046c400e0088800f70037002de1a9001e409000a3
:1046d400614060000080fb00610060004d00dd006f
:1046e4006109800001d0a100010070006009880008
:1046f4002e409000614060000080fb00610060007b
:104704004600dd00610980000160a1000100700025
:10471400600988003e409000634060000080fb0018
:10472400630060004400dd0062098000f1fc2f009a
:104734008100610001007000600988005e40900003
:10474400614060000080fb006100600000004000e8
:10475400610980000110a100010070006009880057
:104764002c61a9007e409000674060000080fb003f
:10477400670060004c00dd00b2428000f1ff2800b9
:104784008100610001007000b042880005e8a900c2
:104794006e409000614060000080fb004f00dd002f
:1047a40022418000f1ff27008100610001007000b8
:1047b400204188002221ef000080eb00400988009e
:1047c400b80037002fe1a9001e409000614060004e
:1047d4000080fb00610060004d00dd007109800075
:1047e40001d0a10001007000700988002e409000e3
:1047f400614060000080fb00610060004600dd0055
:10480400710980000160a100010070007009880036
:104814003e409000634060000080fb006300600045
:104824004400dd0072098000f1fc2f00810061006a
:1048340001007000700988005e40900061406000d3
:104844000080fb00610060000000400071098000ee
:104854000110a10001007000700988007e409000e2
:10486400674060000080fb0067006000c242800077
:1048740081ff2f008100610001007000c0428800a8
:104884000608a9006e409000614060000080fb00b3
:1048940061006000314180000100a100010070004e
:1048a400304188002621ef000080eb005009880089
:1048b4007c0037003be1a9001e409000614060008d
:1048c4000080fb00610060004d00dd00d109800024
:1048d40001d0a10001007000d00988002e40900092
:1048e400614060000080fb00610060004600dd0064
:1048f400d10980000160a10001007000d009880086
:104904003e409000634060000080fb006300600054
:104914004400dd00d2098000f1fc2f008100610019
:1049240001007000d00988005e4090006140600082
:104934000080fb006100600000004000d10980009d
:104944000110a10001007000d00988003a61a9009b
:104954007e409000674060000080fb0067006000bc
:104964004c00dd00c2428000f1ff2800810061009c
:1049740001007000c04288000668a9006e409000e3
:10498400614060000080fb00610060004300dd00c6
:10499400314180000130a1000100700030418800e5
:1049a4003021ef000080eb00b00988003d003700a3
:1049b4003de1a9001e409000614060000080fb00c2
:1049c400610060004d00dd00e109800001d0a1001c
:1049d40001007000e00988002e40900061406000f2
:1049e4000080fb00610060004600dd00e1098000fa
:1049f4000160a10001007000e00988003e409000c1
:104a0400634060000080fb00630060004400dd0040
:104a1400e2098000f1fc2f008100610001007000b8
:104a2400e00988005e409000614060000080fb0067
:104a34006100600000004000e10980000110a10055
:104a440001007000e00988007e409000674060002b
:104a54000080fb0067006000d242800081ff2f00cd
:104a64008100610001007000d04288000688a9001e
:104a74006e409000614060000080fb0061006000b7
:104a84004400dd00314180000140a10001007000bc
:104a9400304188003421ef000080eb00c009880019
:104aa400000000000080fa00000006000200fa0086
:104ab400004f78001e80fb00e50f50001f003200fd
:104ac400e50f50000c003c00e20f500015003200ce
:104ad400e20f500003003c00e10f50000f003200d1
:104ae40020003700e30f500010003200e40f5000a4
:104af400100032001b003700e70f50001300320093
:104b0400e70f50000f003500e80f5000110032008d
:104b1400e90f5000110032001200370005e1a8002f
:104b24001000370011e1a8000e00370013e1a800bf
:104b34000c0037001fe1a8000a00370021e1a8009b
:104b4400080037002de1a800060037002fe1a80077
:104b5400040037003be1a800020037003de1a80053
:104b6400000000000080fa00000006000200fa00c5
:104b7400004f78001e80fb00e50f50001f0032003c
:104b8400e50f50000c003c00e20f5000150032000d
:104b9400e20f500003003c00e10f50000f00320010
:104ba40020003700e30f500010003200e40f5000e3
:104bb400100032001b003700e70f500013003200d2
:104bc400e70f50000f003500e80f500011003200cd
:104bd400e90f5000110032001200370005e1a9006e
:104be4001000370011e1a9000e00370013e1a900fd
:104bf4000c0037001fe1a9000a00370021e1a900d9
:104c0400080037002de1a900060037002fe1a900b4
:104c1400040037003be1a900020037003de1a90090
:104c2400000000000080fa00000006000400fa0002
:104c3400004f7800110798001e80fb00e50f50001c
:104c440023003200e50f50000c003c00e20f50003e
:104c540016003200e20f500003003c00e10f500048
:104c64000f00320029003700e30f50001200320019
:104c7400e40f50001300320024003700e70f500007
:104c840019003200e70f500014003500e80f5000ff
:104c940018003200e90f5000190032001b003700e1
:104ca4009e00900011088800180037009e009000b4
:104cb40061088800150037009e0090007108880084
:104cc400120037009e009000d10888000f003700c2
:104cd4009e009000e10888000c0037009e009000c0
:104ce40041098800090037009e009000510988009e
:104cf400060037009e009000b109880003003700c9
:104d04009e009000c1098800000000000080fa00a5
:104d1400000006000200fa00004f78001e80fb002d
:104d2400e50f50001f003200e50f50000c003c005e
:104d3400e20f500015003200e20f500003003c0067
:104d4400e10f50000f00320020003700e30f500045
:104d540010003200e40f5000100032001b00370036
:104d6400e70f500013003200e70f50000f0035002a
:104d7400e80f500011003200e90f5000110032001a
:104d8400120037002068a9001000370020e8a900ad
:104d94000e0037002108a9000c0037002368a90081
:104da4000a0037002388a9000800370025e8a90075
:104db400060037002608a900040037002668a90069
:104dc400020037002688a900000000000080fa00d5
:104dd400000006000200fa00004f78001e80fb006d
:104de400e50f50001f003200e50f50000c003c009e
:104df400e20f500015003200e20f500003003c00a7
:104e0400e10f50000f00320020003700e30f500084
:104e140010003200e40f5000100032001b00370075
:104e2400e70f500013003200e70f50000f00350069
:104e3400e80f500011003200e90f50001100320059
:104e4400120037002068a8001000370020e8a800ee
:104e54000e0037002108a8000c0037002368a800c2
:104e64000a0037002388a8000800370025e8a800b6
:104e7400060037002608a800040037002668a800aa
:104e8400020037002688a800000000000080fa0015
:104e9400000006000200fa00004f78001e80fb00ac
:104ea400e50f50001f003200e50f50000c003c00dd
:104eb400e20f500015003200e20f500003003c00e6
:104ec400e10f50000f00320020003700e30f5000c4
:104ed40010003200e40f5000100032001b003700b5
:104ee400e70f500013003200e70f50000f003500a9
:104ef400e80f500011003200e90f50001100320099
:104f0400120037000068a9001000370000e8a9006b
:104f14000e0037000108a9000c0037000368a9003f
:104f24000a0037000388a9000800370005e8a90033
:104f3400060037000608a900040037000668a90027
:104f4400020037000688a900000000000080fa0073
:104f5400000006000200fa000000eb00000f7800d9
:104f640001003700000000000080eb001e00680014
:104f740000f0a7000000ea000000ea004f00de0095
:104f8400004078001e0fe8000004e000f5ff3a003e
:104f94002172800000f02f000080600020728800e1
:104fa40034aea90015eea900348ea9000172800068
:104fb40000f02f00008060000072880030aea9006d
:104fc40011eea900308ea9002172800000f02f009c
:104fd400008060002072880021728000800320001d
:104fe40001007000207288009b0007000000eb00a5
:104ff400000f7800010037000000000010c0b3006b
:1050040071ad25001e017800810f510001003600aa
:105014000040eb001e0fe8000004e000f6ff3a0039
:105024002172800000f02f00008060002072880050
:10503400217280008003200001007000207288002b
:10504400850007000000eb00000f78000100370026
:105054000000000010c0b300a12221001e0178004e
:10506400810f5100010036000040eb001e0fe800e4
:105074000004e000f6ff3a002172800000f02f00e7
:10508400008060002072880021728000800320006c
:1050940001007000207288006f0007000000eb0020
:1050a400000f7800010037000000000010c0b300ba
:1050b400a12221001e017800810f51000100360059
:1050c4000040eb001e0fe8000004e000f6ff3a0089
:1050d40080c3b30006000700c0c0b300040007008b
:1050e40060c0b300020007000080fa000000060060
:1050f4000400fa00204798002172800000f02f007d
:1051040000806000207288002e4090008080fb00a8
:1051140020728000010070002072880034aea90063
:1051240015eea9004c0007000000eb00000f78000a
:10513400010037000000000010c0b30071ad25006d
:105144001e017800810f5100010036000040eb0081
:105154001e0fe8000004e000f6ff3a000080fa00a9
:10516400000006000200fa00004f7800217280005f
:1051740000f02f0000806000207288009e80fb00f9
:1051840020728000010070002072880034aea900f3
:1051940015eea900300007000080fa0000000600a8
:1051a4000400fa002047980034aea90015eea800c8
:1051b4002172800000f02f000080600020728800bf
:1051c4002e4090008080fb0020728000010070005f
:1051d400207288002000070015eea9000000eb00f3
:1051e400000f7800010037000000000010c0b30079
:1051f400a12221001e017800810f51000100360018
:105204000040eb001e0fe8000004e000f6ff3a0047
:105214000080fa00000006000200fa00004f780047
:1052240034aea90015eea8002172800000f02f0012
:1052340000806000207288009e80fb002072800045
:1052440001007000207288000300070015eea90019
:105254000080fa00000006000000fa00348ea80066
:10526400000000000000000000000000000000003a
:10527400348ea9000080fa00000006000200fa0043
:10528400004f78000080fa00000006000200fa00d7
:105294000040eb00004f780015eea90034aea800e2
:1052a4007172800000f02f0000806000707288002e
:1052b4004172800000f02f0000806000407288007e
:1052c4005172800000f02f0000806000507288004e
:1052d4006172800000f02f0000806000607288001e
:1052e40001728000f00f200001007000007288003d
:1052f40061728000f00f200001007000607288006d
:10530400d5ff0700117280000008200000806000b3
:105314000000e0000200320010c0b300004f78002b
:105324007172800000f02f000080600070728800ad
:105334004172800000f02f000080600040728800fd
:105344005172800000f02f000080600050728800cd
:105354006172800000f02f0000806000607288009d
:105364000172800000f02f0000806000007288004d
:1053740015eea90034aea9001e4078000080fa00a2
:10538400000006000200fa00004f78001e4078007a
:1053940083ff07000080fa00000006000200fa0004
:1053a400000f7800040037001e00780010407800d9
:1053b4001e0fe8007aff07001e00780010407800f6
:1053c4000004e000f8ff3a000080fa000000060044
:1053d4000600fa0010079800414798000040eb00cf
:1053e400004f7800060037001e80fb009e009000ee
:1053f40000804000104078001e4fe80068ff07005e
:105404004e4090009e40780080cf5000f6ff390057
:105414000080fa00000006000200fa000040eb00e1
:10542400004f7800060037001e80fb00a104210015
:105434000080400001c2b300014878001e4fe8001c
:105444001e407800ff4f5000f7ff36000080fa003e
:10545400000006000000fa008cff07000004e000d2
:1054640021003a0029d0bf00e14f50000b003a0060
:105474002ad0bf00f04f500003003a0000ccb30024
:1054840038ff07000300370020c0b30035ff0700d2
:105494002a70ef002970ef00130037002ad0bf00f4
:1054a4000080fb00a104210000804000104078002f
:1054b40059ff07002ad0bf000040e8002af0b700d7
:1054c4002ad0bf00f04f500005003200a102210095
:1054d4009140780000c2b30080cf500002003a002f
:1054e40010c0b30029f0b7000080fa0000000600e5
:1054f4000800fa0020079800614798000040eb007c
:10550400004f78006e409000e14f500003003a00d5
:10551400a0042100100798000f0037006e4090008f
:10552400e24f500020003a00a00521001007980027
:10553400090037001e80fb009e00900000804000a0
:105544009e80fb002e019000810041009140780074
:10555400014878001e4fe8001e80fb00ae0090005a
:1055640000804000104078000004e0000a0032008f
:105574001e407800ef4f5000eeff36000600370063
:105584001e80fb009e0090000080400001c2b3001a
:10559400014878001e4fe8001e407800ef4f50008d
:1055a400f7ff360001003700000000000080fa0019
:1055b400000006000200fa00000f780011c0b300da
:1055c4001e007800caff07000080fa0000000600f1
:1055d4000200fa00000f780021c0b3001e0078001a
:1055e400c3ff07000080fa00000006000200fa0072
:1055f400004f78001147980022d0bf000004e0005b
:1056040006003a0023d0bf000000fb00a1042100e3
:10561400008040001040780022f0b7002081800014
:105624000000e8002081880026d0bf000004e000cc
:105634000f003a001e409000e14f50000c003a0069
:1056440027d0bf000080fb000000e0000300320010
:10565400e10f5000040032000500370010c0b30011
:1056640027f0b700020037002770ef0000000000a9
:1056740027d0bf000080fb000000e0001a003200c9
:10568400e10f50002b003a0028d0bf000004e000d6
:105694002a003a0023d0bf00804078001e407800e2
:1056a40000c0400023f0b70023d0bf00ff4f5000dc
:1056b400010034002370ef0023d0bf000004e00099
:1056c40002003d00f0c1b30023f0b70023d0bf00b7
:1056d4000000fb00a104210000804000104078007d
:1056e40022f0b7001800370022d0bf0080407800b5
