:020000040000fa
:080000000002040000000000f2
:020000040000fa
:04000800fe020000f4
:020000040000fa
:04000c00fe020000f0
:020000040000fa
:04001000fe020000ec
:020000040000fa
:04001400fe020000e8
:020000040000fa
:04001800fe020000e4
:020000040000fa
:04001c00fe020000e0
:020000040000fa
:04002000fe020000dc
:020000040000fa
:04002400fe020000d8
:020000040000fa
:04002800fe020000d4
:020000040000fa
:04002c00fe020000d0
:020000040000fa
:04003000fe020000cc
:020000040000fa
:04003400402b00005d
:020000040000fa
:04003800fe020000c4
:020000040000fa
:04003c00fe020000c0
:020000040000fa
:04004000fe020000bc
:020000040000fa
:04004400fe020000b8
:020000040000fa
:04004800fe020000b4
:020000040000fa
:04004c00fe020000b0
:020000040000fa
:04005000fe020000ac
:020000040000fa
:04005400fe020000a8
:020000040000fa
:04005800fe020000a4
:020000040000fa
:04005c00fe020000a0
:020000040000fa
:04006000fe0200009c
:020000040000fa
:04006400fe02000098
:020000040000fa
:04006800fe02000094
:020000040000fa
:04006c00fe02000090
:020000040000fa
:04007000fe0200008c
:020000040000fa
:04007400fe02000088
:020000040000fa
:04007800fe02000084
:020000040000fa
:04007c00fe02000080
:020000040000fa
:04008000fe0200007c
:020000040000fa
:04008400fe02000078
:020000040000fa
:04008800fe02000074
:020000040000fa
:04008c00fe02000070
:020000040000fa
:04009000fe0200006c
:020000040000fa
:04009400fe02000068
:020000040000fa
:04009800fe02000064
:020000040000fa
:04009c00fe02000060
:020000040000fa
:0400a000fe0200005c
:020000040000fa
:0400a400fe02000058
:020000040000fa
:0400a800fe02000054
:020000040000fa
:0400ac00fe02000050
:020000040000fa
:0400b000fe0200004c
:020000040000fa
:0400b400fe02000048
:020000040000fa
:0400b800fe02000044
:020000040000fa
:0400bc00fe02000040
:020000040000fa
:0400c000fe0200003c
:020000040000fa
:0400c400fe02000038
:020000040000fa
:0400c800fe02000034
:020000040000fa
:0400cc00fe02000030
:020000040000fa
:0400d000fe0200002c
:020000040000fa
:0400d400fe02000028
:020000040000fa
:0400d800fe02000024
:020000040000fa
:0400dc00fe02000020
:020000040000fa
:0400e000fe0200001c
:020000040000fa
:0400e400fe02000018
:020000040000fa
:0400e800fe02000014
:020000040000fa
:0400ec00fe02000010
:020000040000fa
:0400f000fe0200000c
:020000040000fa
:0400f400fe02000008
:020000040000fa
:0400f800fe02000004
:020000040000fa
:0400fc00fe02000000
:020000040000fa
:04010000fe020000fb
:020000040000fa
:04010400fe020000f7
:020000040000fa
:04010800fe020000f3
:020000040000fa
:04010c00fe020000ef
:020000040000fa
:04011000fe020000eb
:020000040000fa
:04011400fe020000e7
:020000040000fa
:04011800fe020000e3
:020000040000fa
:04011c00fe020000df
:020000040000fa
:04012000fe020000db
:020000040000fa
:04012400fe020000d7
:020000040000fa
:04012800fe020000d3
:020000040000fa
:04012c00fe020000cf
:020000040000fa
:04013000fe020000cb
:020000040000fa
:04013400fe020000c7
:020000040000fa
:04013800fe020000c3
:020000040000fa
:04013c00fe020000bf
:020000040000fa
:04014000fe020000bb
:020000040000fa
:04014400fe020000b7
:020000040000fa
:04014800fe020000b3
:020000040000fa
:04014c00fe020000af
:020000040000fa
:04015000fe020000ab
:020000040000fa
:04015400fe020000a7
:020000040000fa
:04015800fe020000a3
:020000040000fa
:04015c00fe0200009f
:020000040000fa
:04016000fe0200009b
:020000040000fa
:04016400fe02000097
:020000040000fa
:04016800fe02000093
:020000040000fa
:04016c00fe0200008f
:020000040000fa
:04017000fe0200008b
:020000040000fa
:04017400fe02000087
:020000040000fa
:04017800fe02000083
:020000040000fa
:04017c00fe0200007f
:020000040000fa
:04018000fe0200007b
:020000040000fa
:04018400fe02000077
:020000040000fa
:04018800fe02000073
:020000040000fa
:04018c00fe0200006f
:020000040000fa
:04019000fe0200006b
:020000040000fa
:04019400fe02000067
:020000040000fa
:04019800fe02000063
:020000040000fa
:04019c00fe0200005f
:020000040000fa
:0401a000fe0200005b
:020000040000fa
:0401a400fe02000057
:020000040000fa
:0401a800fe02000053
:020000040000fa
:0401ac00fe0200004f
:020000040000fa
:0401b000fe0200004b
:020000040000fa
:0401b400fe02000047
:020000040000fa
:0401b800fe02000043
:020000040000fa
:0401bc00fe0200003f
:020000040000fa
:0401c000fe0200003b
:020000040000fa
:0401c400fe02000037
:020000040000fa
:0401c800fe02000033
:020000040000fa
:0401cc00fe0200002f
:020000040000fa
:0401d000fe0200002b
:020000040000fa
:0401d400fe02000027
:020000040000fa
:0401d800fe02000023
:020000040000fa
:0401dc00fe0200001f
:020000040000fa
:0401e000fe0200001b
:020000040000fa
:0401e400fe02000017
:020000040000fa
:0401e800fe02000013
:020000040000fa
:0401ec00fe0200000f
:020000040000fa
:0401f000fe0200000b
:020000040000fa
:0401f400fe02000007
:020000040000fa
:0401f800fe02000003
:020000040000fa
:0401fc00fe020000ff
:020000040000fa
:04020000fe020000fa
:020000040000fa
:04020400fe020000f6
:020000040000fa
:04020800fe020000f2
:020000040000fa
:04020c00fe020000ee
:020000040000fa
:04021000fe020000ea
:020000040000fa
:04021400fe020000e6
:020000040000fa
:04021800fe020000e2
:020000040000fa
:04021c00fe020000de
:020000040000fa
:04022000fe020000da
:020000040000fa
:04022400fe020000d6
:020000040000fa
:04022800fe020000d2
:020000040000fa
:04022c00fe020000ce
:020000040000fa
:04023000fe020000ca
:020000040000fa
:04023400fe020000c6
:020000040000fa
:04023800fe020000c2
:020000040000fa
:04023c00fe020000be
:020000040000fa
:04024000fe020000ba
:020000040000fa
:04024400fe020000b6
:020000040000fa
:04024800fe020000b2
:020000040000fa
:04024c00fe020000ae
:020000040000fa
:04025000fe020000aa
:020000040000fa
:04025400fe020000a6
:020000040000fa
:04025800fe020000a2
:020000040000fa
:04025c00fe0200009e
:020000040000fa
:04026000fe0200009a
:020000040000fa
:04026400fe02000096
:020000040000fa
:10040000cf0921000eff27000e0188000000000028
:10041000000020000000e000020032000001200087
:100420002002880014000700760007000000e000aa
:1004300003003a00e0ba2200010020000200370069
:100440000000200001002000810f70000100320038
:100450000f000700000020000000e0000200320052
:1004600000000200000000005e2a02000000000000
:100470000040da000000fe00600220000000e00002
:1004800002003200002020009001880000000600d9
:10049000a1028800800478000000eb001f003700f4
:1004a000e284440054a0b4009905ba00e2844400f8
:1004b00054a0b4009906ba00e284440054a0b400e9
:1004c0000006eb00476fde00fd07b200ae018800ba
:1004d000636ce10003003a000ad801000000eb0061
:1004e0000e003700606ce10008003a00004deb00a0
:1004f0000a05e800020039003420ec000af0a000f0
:100500008b05e900f9ff3e00040037006168e10057
:10051000010032000086eb000b00070019c7ba008b
:100520001905ba000e04e00003003a000a00e000da
:10053000dbff3a0000000600fe07b200ae028800b2
:100540008a047800f5ff37000cd0a300e20f4d00bd
:100550001c00390089027800354dba000a05e80010
:10056000020039003420ec000af0a0008b05e900fd
:100570000f003200254dba000a05e80002003900dc
:100580003420ec000af0a0008b05e90008003200de
:100590000c00e0000600320015cdba000a05e800a4
:1005a000020039003420ec000af0a0008b05e900bd
:1005b0008984e80054a0b4000b00e000e2ff3a0098
:1005c000000006009902ba00055d78008b05e9007d
:1005d000f7ff3200c82ade00055d78008b05e900d0
:1005e000f3ff32000c00e000f1ff320019ddba0029
:1005f000eeff3700e2050400000000000040da00d2
:100600000000fe00000005006022b8000602200085
:100610000000d0008180d2000482d2008582d20006
:100620000000a0000202520083825a000300310041
:100630000202420083824a000000a1000603e90092
:10064000f3ff3a0000000600efff07000400be00c1
:1006500000000600889fbe008a9fbe003004420052
:10066000b0844a0030054b0090854b006000b1001b
:100670000898be000a90be000440e10005c8e100f1
:1006800006d0e10007d8e100020031006800400018
:100690001008e8004f05be004f04be000000060031
:1006a000889fbe008a9fbe003004be002005be00a9
:1006b0000418540005985c0006185d0007985d005a
:1006c000110020000440e10005c8e10006d0e1006f
:1006d00007d8e100010039008000eb00108810000d
:1006e0004f05be004f04be00000006001200fa00d5
:1006f000889fbe008a9fbe008c9fbe00e0b79f000f
:10070000f1b79f0082bf9f0093bf9f000605be0008
:100710000404be000000eb00d0b79f00c0b79f00ec
:10072000b0b79f00a0b79f0090b79f000006eb00f6
:100730005fb19700cfb09700820141003fb09700b2
:100740000200e00004003d00370007007e805700f3
:10075000c0ff070003003700330007007e8057000a
:10076000cfff0700dfb697000d00e0000c0035005a
:100770006fb29700ffb297000fbb97009fbb970027
:1007800010002000010020006011b800000272007b
:100790008182720002037300838373001b000700d1
:1007a0000c06e80001042000810f5600e0ff3a002b
:1007b0000d00e00004003d000802be000a03be0078
:1007c0007e805700a3ff07005fa897000000e000ad
:1007d00005003a001fb29700afb297003fb39700f1
:1007e000cfb39700090007006fb09700ffb09700e4
:1007f0000fb997009fb997004f06be004f05be0086
:100800004f04be000080fa0000000600010007004f
:1008100000000600a4b79f00b5b79f00c6b79f00b1
:10082000d7b79f00000006004f09de0082817100eb
:10083000b3b79f004f01de008180400082807000ce
:10084000a1b79f008fb097004f09de000000400065
:100850000200700090b79f007fa897004f01de0054
:10086000818040008280700081b79f000d000700ea
:100870004f3ade000000400004007000f0af9f001f
:10088000080007000402420085824a0006034b006c
:1008900087834b00dfff07000802be000a03be008b
:1008a000000006002fb29700bfb297004fb3970029
:1008b000dfb3970000000600881f780018002000b2
:1008c000881f780089ff07008f87e9004f047800b0
:1008d00000000600801feb0084ff07008f87e900ff
:1008e00000000600889fbe008a9fbe00e00f5000f7
:1008f000e08f5800e00f5900e08f59000c003d00d8
:100900006044b8006055b8000000540081805c006d
:1009100002015d0083815d001800200015000700c2
:1009200008003d00180007000004eb000500370038
:100930000004eb000f00070002003d00120007005a
:1009400018002000dcff07000800e000060032006d
:100950006022b8006033b8000000520081805a0065
:1009600002015b0083815b004f05be004f04be00a7
:1009700000000600e00f5200e08f5a00e00f5b001d
:10098000e08f5b00000006006044b8006055b800ce
:100990000402540085825c0006035d0087835d00cd
:1009a00000000600889fbe008a9fbe008c1f780052
:1009b000e00f5000e08f5800e00f5900e08f590021
:1009c0000d003d006044b8006055b80000005400c0
:1009d00081805c0002015d0083815d001c002000bd
:1009e0000820e10009a8e1000ab0e1000bb8e1002d
:1009f0000d003d00080037000006eb00e00f52003c
:100a0000e08f5a00e00f5b00e08f5b0006003d00c6
:100a10006044b8006055b8000402540085825c0050
:100a200006035d0087835d00aaff07000c00e0005d
:100a3000060032006022b8006033b80000005200a7
:100a400081805a0002015b0083815b004f067800c1
:100a50004f05be004f04be0000000600889fbe0088
:100a60008a9fbe008c1f78000006eb00e00f50004c
:100a7000e08f5800e00f5900e08f590007003d005b
:100a80006044b8006055b8000000540081805c00ec
:100a900002015d0083815d001c002000e00f520018
:100aa000e08f5a00e00f5b00e08f5b0007003d0025
:100ab0006044b8006055b8000402540085825c00b0
:100ac00006035d0087835d000c00a2000c00070098
:100ad0000c00e000060032006022b8006033b8006d
:100ae0000000520081805a0002015b0083815b009c
:100af0004f0678004f05be004f04be000000060000
:100b0000889fbe008a9fbe008c9fbe000404b80070
:100b10000506b8008904460060854e000606b80048
:100b20000a054600e0854e000706b8008b05460022
:100b3000040eb800890446000a854e00e0854d0089
:100b4000050eb8000a0546008b854e00060eb8005b
:100b50008b0546000416b8000a0546008b854e003a
:100b60000516b8008b054600041eb8008b0546002c
:100b70000800be000a01be004f06be004f05be00c1
:100b80004f04be000000060080017800020037001c
:100b9000845978000201e9000200e00006003200fa
:100ba000314278000404e000f9ff3a000200370007
:100bb0008059eb000201e9000200e000fcff3a006e
:100bc00000000600881f7800020478000801780001
:100bd000d2010700080040004f0478000000060022
:100be0000000fa00881f780000047800ea815700ae
:100bf0003fb9970088007800205e200007000700ba
:100c00000000e0000200350000044400004ceb004e
:100c10004f0478000080fa00000006006200fa002d
:100c2000889fbe008a1f7800000578008104780044
:100c3000020478008300780080f92f000f00400044
:100c4000bc0307009a979f00a9979f000000eb0044
:100c5000b09f9f001885fb008a04fb000a05ea008c
:100c60004f55de0050022000808f54000d003200ee
:100c7000e10f55000b003a000a0178008800780067
:100c80002f9097009f91970003000100a0979f006d
:100c90000000e0008e0032003f9897000000e8005e
:100ca000b09f9f000a04440050022000808f54002f
:100cb000040032000900e000e6ff3a003f98970088
:100cc000840037000000eb00909f9f00809f9f00f2
:100cd000f0979f00e0979f00d0979f00c0979f00dc
:100ce00007003700610921000100500000004000aa
:100cf000a1082100808040005f98970011007000db
:100d0000d09f9f0088047800090478003845780057
:100d10008a00fb0060092100870107000000e00055
:100d2000f0ff3a00a1c2b300814f55000e003a0017
:100d3000cf8897000180e900c08f9f0010007800e5
:100d4000c09f9f000000e00005003d000000ea0099
:100d5000c09f9f005f9897000020a000d09f9f0039
:100d60000904e8000f003700c09f9f000000eb005f
:100d700005003700f2ff2700820f5000020032000a
:100d8000ea00b90000804000090478008804780077
:100d9000b900fb000103b100e98f5000f5ff3600f8
:100da000c09f9f00e0c2b300984f100002003200c5
:100db0000080eb0019003700a0c2b300d84f10002c
:100dc00007003a00cf8897000180e900c08f9f009c
:100dd00010007800a09f9f000804e8001000370072
:100de0000000eb00a09f9f008800780005003700fe
:100df000f3ff2700830f500002003200ea00b90021
:100e00000000410001047800880078003101fb00f7
:100e10000203b100e90f5100f5ff3600a09f9f00cb
:100e2000984478008900fb00200821004201070057
:100e30000000e000020032000804e8000100370072
:100e40008044eb00c97f9f0080c6b30080cf540070
:100e500004003a0098cf14000a003a00664050009f
:100e600006003700c0c6b30080cf540005003a002a
:100e700098cf140003003a0065404000c07f9f00f7
:100e80000804e8001801fb00e3fb2f008f814100fc
:100e900081f92f008f804000a0f92f000f00400043
:100ea000100007000000e00009003a00e1fb2f00fd
:100eb0008f804000a0f92f000f0040006102070062
:100ec0000000e000020035000804e80061ff370080
:100ed0000080eb004f0578004f04be000080fa0050
:100ee00000000600881f7800e4c6b300844f51005c
:100ef000bc00320010003c006b425200844f510095
:100f00001800320005003c0054c2b300844f510069
:100f1000f400320084c5b3000f00370044c6b300ac
:100f2000844f51001500320065424200844f510049
:100f3000ef003a001100370004c7b300844f51009e
:100f4000db0032005700350065424200844f5100fb
:100f50005400320063424200844f5100e4003a00e2
:100f6000500037001181e90082087800f0009000fd
:100f70008181410092497800e300370020629000af
:100f8000c5c6b300854f520007003a0091027800b1
:100f900064825200840878001402be004fabde0069
:100fa000860378001100370015c7b300854f520043
:100fb00003003200a5c6b300854f520006003a0078
:100fc0009102780068825200840878005403be00c1
:100fd0004402be00050037001182e9008408780051
:100fe00014027800cfa2de00612bb9000498be0085
:100ff0000690be00a060900088c6b30088cf500065
:101000000d00320028c6b30088cf500004003a001b
:101010000402fb00cfa2de00612bb90008003700fc
:1010200048c7b30088cf5000030032006644440034
:1010300088cf500004003a00cfa2de00612bb90037
:101040000498be000690be003002be002003be0021
:10105000f0009000e00f5200e08f5a00e00f5b00bc
:10106000e08f5b0003003d0001824100d5c2b30068
:101070000a003700001290000418a3000300320099
:1010800001824100b5c2b300040037000408a30088
:101090004f0032000182410005c2b300054a7800ca
:1010a0004900370020629000c5c6b300854f52004a
:1010b00006003a00910278006482520084087800a9
:1010c0001402be006033b8001100370015c7b3002a
:1010d000854f520003003200a5c6b300854f520071
:1010e00006003a0091027800688252008408780075
:1010f0005403be004402be00050037001182e9001f
:1011000084087800140278008002eb006033b80095
:101110000498be000690be00a060900088c6b30090
:1011200088cf50000d00320028c6b30088cf500091
:1011300004003a000482fb008002eb006033b80038
:101140000800370048c7b30088cf500003003200c2
:101150006644440088cf500004003a008002eb004f
:101160006033b8000498be000690be008010900066
:101170000138a300160032003002be002003be007a
:10118000e00f5200e08f5a00e00f5b00e08f5b0041
:101190000f00320081c7b300814f510003003200bd
:1011a00081c5b300814f510009003a00f000900062
:1011b0000182410005c3b300054a78008100e800c0
:1011c00001824100024a78008100e8007100980025
:1011d000f000900081814100630098008240780017
:1011e0003e003700a0619000c4c6b3001181e90041
:1011f00084cf5100220032000a003c0064425200b9
:1012000084cf51002500320004c2e80084cf510091
:10121000130032006842520084cf51001e003a0091
:101220000a00370044c7b30084cf51001b003200ce
:101230006642420084cf51001800320069425200d9
:1012400084cf510014003a0005003700820878006e
:101250009200780040589000804878002c003700b9
:101260008208780092007800600a9000cfa2de0029
:10127000612bb9008498be008690be002400370020
:10128000820878009200780060099000cf91de001b
:101290008288be001e0037001181e90082087800b4
:1012a00092007800600890008008780018003700ed
:1012b0001181e9008208780012027800cfa2de00d6
:1012c000612bb9000498be000690be00f0009000ab
:1012d000818141006300980081c7b30022000700ac
:1012e0000b003700f00090008181410005003700bd
:1012f000f0009000818141000204e00001003a000a
:1013000052c2b300824978008100e8007100980061
:101310000000eb004f047800000006008001780018
:1013200002003700b15978000201e9000200e00034
:10133000fcff3a0000000600020037000304e00052
:10134000060032000001780002007800b041780009
:1013500081cf5100f9ff3a00010037000001eb0096
:101360000200780000000600fc874700889fbe004e
:101370008a9fbe008c9fbe008e1f780000067800fa
:1013800080c5b30080cf50000a0032007740400093
:1013900080cf50000a0032006940400080cf5000ea
:1013a0000b0032001005210080bf9f00ae0020001e
:1013b0000a0037000204210082bf9f0006003700a8
:1013c0001305210083bf9f008e002000030037001b
:1013d0001405210084bf9f000e0120003c02be00c6
:1013e0002c03be000605be000404be0040c6b300c8
:1013f00080cf5000030032006540400080cf500095
:101400000b003a00e00f5200e08f5a00e00f5b0043
:10141000e08f5b0006003d006000b8006011b8007e
:10142000040450008584580006055900878559003a
:10143000e80f57000400320040002000f00f570072
:101440003a003a000100370030002000e00f54005d
:10145000e08f5c00e00f5d00e08f5d0004003a006b
:10146000dc0890008d0120000100e0000700320040
:101470008e00e900888060008fba9700818042006a
:1014800091407800f1ef9f007d01200080007800fe
:101490008100e900050033008b05d1000a85d300e7
:1014a0008984d3000884d300f9ff3700089ebe006a
:1014b0000a96be00130037008d06e9008e00e90091
:1014c000848060000fb997008100410011417800cd
:1014d00083fd2f008d81410082f779008001780023
:1014e0008301e900050033008783d1000683d30020
:1014f0008582d3000482d300f9ff3700049ebe002a
:101500000696be003c02be002c03be00e00f520057
:10151000e08f5a00e00f5b00e08f5b009100340029
:101520000d00e000e4ff3c008e0037002c609000ce
:1015300081c6b300814f50000b00320006003c0012
:101540000004e00008003200e6c05000814f500067
:1015500052003a0004003700c1c6b300814f50006a
:101560004e003a00230037000800e00004003a0073
:101570005c0890008d0120000000e00007003200b0
:10158000110009000e84d8000fba97000100420034
:1015900010407800f0ef9f007d012000110009004d
:1015a0000e84d8000b003700110009000e04d8008b
:1015b0008d06e9008e81b900020454008fb89700af
:1015c000088440009841780082fd2f000d01410001
:1015d00083777900000478000800e0000200320000
:1015e0000d00e000f0ff3c00cfc4de00614db9000b
:1015f00027003700e00f5400e08f5c0004003a0041
:101600005c0890008d0120000000e000080032001e
:101610006171b9000800be000bfc07000fba97000b
:101620008000420091407800f1ef9f007d01200092
:101630006171b9000800be00f3fb07000c00370021
:101640006171b9000800be003c0107008d06e90089
:1016500080f1b900020454008fba97000884420058
:101660009841780082fd2f000d01410083777900b9
:101670000004be00e00f5000e08f5800020032006e
:101680000d00e000eeff3c004fcdde008a05780043
:10169000089ebe000a96be0032003700e00f5400dc
:1016a000e08f5c00e00f5d00e08f5d0004003a0019
:1016b0005c0890008d0120000000e0000a0032006c
:1016c0006172b900612bb9000800be000a01be00ba
:1016d00080fc07000fba970080004200914078001c
:1016e000f1ef9f007d0120006172b900612bb9000c
:1016f0000800be000a01be006ffc07000e003700a4
:101700006172b900612bb9000800be000a01be0079
:1017100074fc07008d06e90080f2b900040454004f
:101720008fba9700088442009842780084fd2f0009
:101730000d02420085777a00009ebe000296be0030
:101740003c04be002c05be00e00f5400e08f5c009e
:10175000e00f5d00e08f5d00020034000d00e0004e
:10176000e7ff3c00e80f570010003a000c10900013
:101770000038a3000d003200f78f560006003e002f
:1017800080fd2f000d004000ef40780000c3b30043
:1017900080cf50000500320002c3b30071fd2f005e
:1017a0008d8040008d06e90082f778007881160070
:1017b000120e98006c00900083fd2f008f81410075
:1017c0008d804100d5fe07001c089000dc089000c9
:1017d000810f500006003d0000805000000e980070
:1017e0000c1090000040a100001698000f00370078
:1017f0000100e0000d003d008c109000f4806000be
:10180000f08f500009003a007c099000fc00900025
:10181000810051000c09900082805000008050002f
:101820004240a90001003400000e98004f077800e4
:101830004f06be004f05be004f04be00cf01b100f1
:10184000000006000400fa00889fbe008a9fbe00c8
:101850008c1f78000004780001067800f80d9000d5
:10186000780090008085550008089000808555001c
:101870001808900080855500280890008085550044
:1018800038089000808555004808900080855500f4
:101890000002220090bf9f0000032300a0bf9f0012
:1018a000081090000028a30015003a000b00e0008b
:1018b000130034000b0578008a047800e20f55000d
:1018c0000100360029002000c801900009017800bd
:1018d000ee8057005800900003000100500498006b
:1018e0000000e0008c003200680890000900400011
:1018f000600c9800090555004240a900eeff3c002d
:10190000780190000200e0000c003400c801900053
:101910008c007800580090000300010050049800eb
:101920008080eb000000e0007c003200e8089000be
:101930007800900000804000600c9800880c9000b7
:101940000900e0001100340009057800e28f54001e
:10195000010036002a002000c80190000a0178002a
:10196000ec805700580090000300010050049800dc
:101970000000e00068003200680890000a004000a3
:10198000600c98008a845400edff3700180990001d
:101990000200e0000c003400c8019000e800900054
:1019a0005800900003000100500498008080eb0074
:1019b0000000e00059003200e8089000180890008c
:1019c00000804000600c9800a80c90000900e00026
:1019d0001100340009057800e28f54000100360040
:1019e0002a002000c80190000a017800ec8057000e
:1019f0005800900003000100500498000000e0002f
:101a000045003200680890000a004000600c980011
:101a10008a845400edff3700380990000200e0008e
:101a20000e003400e800900018089000808040000c
:101a3000c801900058009000030001005004980075
:101a40008080eb000000e00034003200e8089000e5
:101a50003808900000804000600c9800c80c90008e
:101a60000900e0001100340009057800e28f5400fd
:101a7000010036002a002000c80190000a01780009
:101a8000ec805700580090000300010050049800bb
:101a90000000e00020003200680890000a004000ca
:101aa000600c98008a845400edff37000810900005
:101ab0008000eb000028a300180032000b00e000bb
:101ac000160034008b04780009057800e28f54007a
:101ad000010036002a002000c80190000a017800a9
:101ae000ee80570058009000030001005004980059
:101af0000000e00008003200680890000a00400082
:101b0000600c98008a8454004240a900eeff3c001b
:101b10008000eb00010037008080eb0001007800be
:101b20004f0678004f05be004f04be000080fa004b
:101b3000000006000108780000000600839f68008e
:101b40000100e00002003d0060001000e08018008d
:101b50000300e00002003d0060011100e081190077
:101b6000a9fa07004f00e00002003b0060001000ef
:081b7000e080180000000600ef
:020000040000fa
:101b7800456d000062650000646400006564000053
:101b88005379000073740000656d00007331000024
:101b980000520000756e0000746900006d65000059
:101ba80020250000326c0000753a00002532000044
:0c1bb8006c75000000000000010000003f
:020000040000fa
:101bc4000200fa00004f7800114798001e80fb00c5
:101bd4006101b9000080eb008080eb00020040004e
:101be400838048003206200003002000820f50004a
:101bf400838f58001d043e00000601006f0137006a
:101c04001c04370031033700580337007f033700c3
:101c1400180437001704370016043700150437007a
:101c24008a013700ad0137003c0237001104370048
:101c3400160237000f0437000e0437000d04370076
:101c44000c0437000b0437000a043700090437007a
:101c5400080437000704370006043700050437007a
:101c6400040437000304370002043700010437007a
:101c740000043700ff033700440037006b003700cf
:101c840092003700b9003700fa033700f903370030
:101c9400f8033700f7033700f6033700f50337007e
:101ca400f4033700f3033700c8033700f1033700a8
:101cb400f0033700ef033700ee033700ed0337007e
:101cc400ec033700eb033700ea033700e90337007e
:101cd400e8033700e7033700e6033700e50337007e
:101ce400e4033700e3033700e2033700e10337007e
:101cf400e0033700df033700de033700dd0337007e
:101d0400dc033700db033700da033700d90337007d
:101d1400d8033700d7033700d6033700d50337007d
:101d2400d4033700d3033700d2033700d10337007d
:101d3400d0033700cf033700ce0337005b033700ef
:101d44007e033700cb033700ca033700c9033700cb
:101d5400c8033700c7033700c6033700a70137009d
:101d640082013700c3033700c20337000f02370074
:101d740036023700ed003700a4003700c7003700f3
:101d84005a02370081023700a80237001e40900033
:101d94000080fb00e10f500010003200e10f500002
:101da40003003c000000e000060032001d00370084
:101db400e20f50000f003200e30f50001300320016
:101dc400180037001f0ea900190ea9001b0ea90048
:101dd4001d0ea900110ea800130037001f0ea90044
:101de400190ea9001b0ea9001d0ea800110ea800b3
:101df4000d0037001f0ea900190ea9001b0ea80024
:101e04001d0ea900110ea800070037001f0ea9001f
:101e1400190ea9001b0ea9001d0ea900110ea90080
:101e24000100370000000000930337001e409000bb
:101e34000080fb00e10f500010003200e10f500061
:101e440003003c000000e000060032001d003700e3
:101e5400e20f50000f003200e30f50001300320075
:101e6400180037001f2ea900192ea9001b2ea90047
:101e74001d2ea900112ea800130037001f2ea90043
:101e8400192ea9001b2ea9001d2ea800112ea80092
:101e94000d0037001f2ea900192ea9001b2ea80023
:101ea4001d2ea900112ea800070037001f2ea9001f
:101eb400192ea9001b2ea9001d2ea900112ea90060
:101ec40001003700000000006b0337001e40900043
:101ed4000080fb00e10f500010003200e10f5000c1
:101ee40003003c000000e000060032001d00370043
:101ef400e20f50000f003200e30f500013003200d5
:101f0400180037001f4ea900194ea9001b4ea90046
:101f14001d4ea900114ea800130037001f4ea90042
:101f2400194ea9001b4ea9001d4ea800114ea80071
:101f34000d0037001f4ea900194ea9001b4ea80022
:101f44001d4ea900114ea800070037001f4ea9001e
:101f5400194ea9001b4ea9001d4ea900114ea9003f
:101f64000100370000000000430337001e409000ca
:101f74000080fb00e10f500010003200e10f500020
:101f840003003c000000e000060032001d003700a2
:101f9400e20f50000f003200e30f50001300320034
:101fa400180037001f6ea900196ea9001b6ea90046
:101fb4001d6ea900116ea800130037001f6ea90042
:101fc400196ea9001b6ea9001d6ea800116ea80051
:101fd4000d0037001f6ea900196ea9001b6ea80022
:101fe4001d6ea900116ea800070037001f6ea9001e
:101ff400196ea9001b6ea9001d6ea900116ea9001f
:1020040001003700000000001b0337001e40900051
:102014000080fb00e10f50000f003200e10f500080
:1020240003003c000000e000060032001900370005
:10203400e20f50000d003200e30f50001000320098
:1020440014003700698ea9006b8ea9006d8ea9005b
:10205400618ea80010003700698ea9006b8ea9005c
:102064006d8ea800618ea8000b003700698ea90050
:102074006b8ea8006d8ea900618ea8000600370043
:10208400698ea9006b8ea9006d8ea900618ea900ce
:102094000100370000000000f70237001e409000e6
:1020a4000080fb00e10f50000f003200e10f5000f0
:1020b40003003c000000e000060032001900370075
:1020c400e20f50000d003200e30f50001000320008
:1020d4001400370069aea9006baea9006daea9006b
:1020e40061aea8001000370069aea9006baea9006c
:1020f4006daea80061aea8000b00370069aea90060
:102104006baea8006daea90061aea8000600370052
:1021140069aea9006baea9006daea90061aea900bd
:102124000100370000000000d30237001e40900079
:102134000080fb00e10f50000f003200e10f50005f
:1021440003003c000000e0000600320019003700e4
:10215400e20f50000d003200e30f50001000320077
:102164001400370069cea9006bcea9006dcea9007a
:1021740061cea8001000370069cea9006bcea9007b
:102184006dcea80061cea8000b00370069cea9006f
:102194006bcea8006dcea90061cea8000600370062
:1021a40069cea9006bcea9006dcea90061cea900ad
:1021b4000100370000000000af0237001e4090000d
:1021c4000080fb00e10f50000f003200e10f5000cf
:1021d40003003c000000e000060032001900370054
:1021e400e20f50000d003200e30f500010003200e7
:1021f4001400370069eea9006beea9006deea9008a
:1022040061eea8001000370069eea9006beea9008a
:102214006deea80061eea8000b00370069eea9007e
:102224006beea8006deea90061eea8000600370071
:1022340069eea9006beea9006deea90061eea9009c
:1022440001003700000000008b0237001e409000a0
:102254000080fb00e10f50000f003200e10f50003e
:1022640003003c000000e0000600320019003700c3
:10227400e20f50000d003200e30f50001000320056
:102284001400370068cea9006acea9006ccea9005c
:1022940060cea8001000370068cea9006acea9005d
:1022a4006ccea80060cea8000b00370068cea90051
:1022b4006acea8006ccea90060cea8000600370044
:1022c40068cea9006acea9006ccea90060cea90090
:1022d4000100370000000000670237001e40900034
:1022e4000080fb00e10f50000f003200e10f5000ae
:1022f40003003c000000e000060032001900370033
:10230400e20f50000d003200e30f500010003200c5
:102314001400370068eea9006aeea9006ceea9006b
:1023240060eea8001000370068eea9006aeea9006c
:102334006ceea80060eea8000b00370068eea90060
:102344006aeea8006ceea90060eea8000600370053
:1023540068eea9006aeea9006ceea90060eea9007f
:102364000100370000000000430237001e409000c7
:102374000080fb00e10f50000f003200e10f50001d
:1023840003003c000000e0000600320019003700a2
:10239400e20f50000d003200e30f50001000320035
:1023a40014003700680ea9006a0ea9006c0ea9007b
:1023b400600ea80010003700680ea9006a0ea9007c
:1023c4006c0ea800600ea8000b003700680ea90070
:1023d4006a0ea8006c0ea900600ea8000600370063
:1023e400680ea9006a0ea9006c0ea900600ea9006f
:1023f40001003700000000001f0237001e4090005b
:102404000080fb00e10f50000f003200e10f50008c
:1024140003003c000000e000060032001900370011
:10242400e20f50000d003200e30f500010003200a4
:1024340014003700682ea9006a2ea9006c2ea9008a
:10244400602ea80010003700682ea9006a2ea9008b
:102454006c2ea800602ea8000b003700682ea9007f
:102464006a2ea8006c2ea900602ea8000600370072
:10247400682ea9006a2ea9006c2ea900602ea9005e
:102484000100370000000000fb0137001e409000ef
:102494000080fb00e10f50000f003200e10f5000fc
:1024a40003003c000000e000060032001900370081
:1024b400e20f50000d003200e30f50001000320014
:1024c40014003700692ea9006b2ea9006d2ea900f7
:1024d400612ea80010003700692ea9006b2ea900f8
:1024e4006d2ea800612ea8000b003700692ea900ec
:1024f4006b2ea8006d2ea900612ea80006003700df
:10250400692ea9006b2ea9006d2ea900612ea900c9
:102514000100370000000000d70137001e40900082
:102524000080fb00e10f50000f003200e10f50006b
:1025340003003c000000e0000600320019003700f0
:10254400e20f50000d003200e30f50001000320083
:1025540014003700690ea9006b0ea9006d0ea900c6
:10256400610ea80010003700690ea9006b0ea900c7
:102574006d0ea800610ea8000b003700690ea900bb
:102584006b0ea8006d0ea900610ea80006003700ae
:10259400690ea9006b0ea9006d0ea900610ea900b9
:1025a4000100370000000000b30137001e40900016
:1025b4000080fb00e10f500010003200e10f5000da
:1025c40003003c000000e000060032001d0037005c
:1025d400e20f50000f003200e30f500013003200ee
:1025e400180037004e0ea900480ea9004a0ea90093
:1025f4004c0ea900400ea800130037004e0ea9008f
:10260400480ea9004a0ea9004c0ea800400ea800ce
:102614000d0037004e0ea900480ea9004a0ea8006e
:102624004c0ea900400ea800070037004e0ea9006a
:10263400480ea9004a0ea9004c0ea900400ea9009c
:1026440001003700000000008b0137001e4090009d
:102654000080fb00e10f500010003200e10f500039
:1026640003003c000000e000060032001d003700bb
:10267400e20f50000f003200e30f5000130032004d
:10268400180037004e2ea900482ea9004a2ea90092
:102694004c2ea900402ea800130037004e2ea9008e
:1026a400482ea9004a2ea9004c2ea800402ea800ae
:1026b4000d0037004e2ea900482ea9004a2ea8006e
:1026c4004c2ea900402ea800070037004e2ea9006a
:1026d400482ea9004a2ea9004c2ea900402ea9007c
:1026e4000100370000000000630137001e40900025
:1026f4000080fb00e10f500010003200e10f500099
:1027040003003c000000e000060032001d0037001a
:10271400e20f50000f003200e30f500013003200ac
:10272400180037004e4ea900484ea9004a4ea90091
:102734004c4ea900404ea800130037004e4ea9008d
:10274400484ea9004a4ea9004c4ea800404ea8008d
:102754000d0037004e4ea900484ea9004a4ea8006d
:102764004c4ea900404ea800070037004e4ea90069
:10277400484ea9004a4ea9004c4ea900404ea9005b
:1027840001003700000000003b0137001e409000ac
:102794000080fb00e10f500010003200e10f5000f8
:1027a40003003c000000e000060032001d0037007a
:1027b400e20f50000f003200e30f5000130032000c
:1027c400180037004e6ea900486ea9004a6ea90091
:1027d4004c6ea900406ea800130037004e6ea9008d
:1027e400486ea9004a6ea9004c6ea800406ea8006d
:1027f4000d0037004e6ea900486ea9004a6ea8006d
:102804004c6ea900406ea800070037004e6ea90068
:10281400486ea9004a6ea9004c6ea900406ea9003a
:102824000100370000000000130137001e40900033
:102834000080fb00e10f500010003200e10f500057
:1028440003003c000000e000060032001d003700d9
:10285400e20f50000f003200e30f5000130032006b
:10286400180037004e8ea900488ea9004a8ea90090
:102874004c8ea900408ea800130037004e8ea9008c
:10288400488ea9004a8ea9004c8ea800408ea8004c
:102894000d0037004e8ea900488ea9004a8ea8006c
:1028a4004c8ea900408ea800070037004e8ea90068
:1028b400488ea9004a8ea9004c8ea900408ea9001a
:1028c4000100370000000000eb0037001e409000bc
:1028d4000080fb00e10f500010003200e10f5000b7
:1028e40003003c000000e000060032001d00370039
:1028f400e20f50000f003200e30f500013003200cb
:10290400180037004eaea90048aea9004aaea9008f
:102914004caea90040aea800130037004eaea9008b
:1029240048aea9004aaea9004caea80040aea8002b
:102934000d0037004eaea90048aea9004aaea8006b
:102944004caea90040aea800070037004eaea90067
:1029540048aea9004aaea9004caea90040aea900f9
:102964000100370000000000c30037001e40900043
:102974000080fb00e10f500010003200e10f500016
:1029840003003c000000e000060032001d00370098
:10299400e20f50000f003200e30f5000130032002a
:1029a400180037004ecea90048cea9004acea9008f
:1029b4004ccea90040cea800130037004ecea9008b
:1029c40048cea9004acea9004ccea80040cea8000b
:1029d4000d0037004ecea90048cea9004acea8006b
:1029e4004ccea90040cea800070037004ecea90067
:1029f40048cea9004acea9004ccea90040cea900d9
:102a040001003700000000009b0037001e409000ca
:102a14000080fb00e10f500010003200e10f500075
:102a240003003c000000e000060032001d003700f7
:102a3400e20f50000f003200e30f50001300320089
:102a4400180037004eeea90048eea9004aeea9008e
:102a54004ceea90040eea800130037004eeea9008a
:102a640048eea9004aeea9004ceea80040eea800ea
:102a74000d0037004eeea90048eea9004aeea8006a
:102a84004ceea90040eea800070037004eeea90066
:102a940048eea9004aeea9004ceea90040eea900b8
:102aa4000100370000000000730037001e40900052
:102ab4000080fb00e10f50000f003200e10f5000d6
:102ac40003003c000000e00006003200190037005b
:102ad400e20f50000d003200e30f500010003200ee
:102ae40014003700388ea9003a8ea9003c8ea90044
:102af400308ea80010003700388ea9003a8ea90045
:102b04003c8ea800308ea8000b003700388ea90038
:102b14003a8ea8003c8ea900308ea800060037002b
:102b2400388ea9003a8ea9003c8ea900308ea900e7
:102b340001003700000000004f0037001e409000e5
:102b44000080fb00e10f50000f003200e10f500045
:102b540003003c000000e0000600320019003700ca
:102b6400e20f50000d003200e30f5000100032005d
:102b74001400370038aea9003aaea9003caea90053
:102b840030aea8001000370038aea9003aaea90054
:102b94003caea80030aea8000b00370038aea90048
:102ba4003aaea8003caea90030aea800060037003b
:102bb40038aea9003aaea9003caea90030aea900d7
:102bc40001003700000000002b0037001e40900079
:102bd4000080fb00e10f500010003200e10f5000b4
:102be40003003c000000e000060032001d00370036
:102bf400e20f50000f003200e30f500013003200c8
:102c0400180037001feea90019eea9001beea90059
:102c14001deea90011eea800130037001feea90055
:102c240019eea9001beea9001deea80011eea800e4
:102c34000d0037001feea90019eea9001beea80035
:102c44001deea90011eea800070037001feea90031
:102c540019eea9001beea9001deea90011eea900b2
:102c640001003700000000000300370000000000ee
:102c740001003700000000000080fa000000060098
:102c84000200fa00004f7800114798001e80fb00f4
:102c94006101b900d0ff2f00f1ff2f0002004000b6
:102ca400838048001206200003002000820f500099
:102cb400838f5800d3003e0000060100a7003700b0
:102cc400ad003700b3003700d0003700cf00370025
:102cd400ce003700cd003700cc003700cb003700e2
:102ce40074003700c9003700c8003700c700370038
:102cf400c6003700c5003700c4003700c3003700e2
:102d0400c2003700c1003700c0003700bf003700e1
:102d1400be003700bd003700bc003700bb003700e1
:102d2400ba003700b9003700b8003700b7003700e1
:102d3400440037004a00370050003700560037007f
:102d4400b2003700b1003700b0003700af003700e1
:102d5400ae003700ad003700ac003700ab003700e1
:102d6400a1003700a9003700a8003700a7003700ea
:102d7400a6003700a5003700a4003700a3003700e1
:102d8400a2003700a1003700a00037009f003700e1
:102d94009e0037009d0037009c0037009b003700e1
:102da4009a003700990037009800370097003700e1
:102db40096003700950037009400370093003700e1
:102dc4009200370091003700900037008f003700e1
:102dd4008e0037008d0037008c0037008b003700e1
:102de4008a003700890037008800370087003700e1
:102df400860037006e003700740037008300370008
:102e04008200370081003700800037007f003700e0
:102e14007e0037007d0037007c0037007b003700e0
:102e24007a0037002a003700300037007700370077
:102e3400760037007500370033003700390037005b
:102e44003f0037001e4090000004e00002003a00fa
:102e5400150ea9006e003700150ea8006c0037008f
:102e64001e4090000004e00002003a00152ea90064
:102e740067003700152ea800650037001e4090003b
:102e84000004e00002003a00154ea900600037007b
:102e9400154ea8005e0037001e4090000004e000bc
:102ea40002003a00156ea90059003700156ea800fb
:102eb400570037001e4090000004e00002003a0072
:102ec400650ea90052003700650ea80050003700b7
:102ed4001e4090000004e00002003a00440ea900e5
:102ee4004b003700440ea800490037001e409000f4
:102ef4000004e00002003a00442ea9004400370018
:102f0400442ea800420037001e4090000004e00058
:102f140002003a00444ea9003d003700444ea80088
:102f24003b0037001e4090000004e00002003a001d
:102f3400446ea90036003700446ea8003400370000
:102f44001e4090000004e00002003a00448ea900f4
:102f54002f003700448ea8002d0037001e4090003b
:102f64000004e00002003a0044aea9002800370043
:102f740044aea800260037001e4090000004e00084
:102f840002003a0044cea9002100370044cea80034
:102f94001f0037001e4090000004e00002003a00c9
:102fa40044eea9001a00370044eea80018003700c8
:102fb4001e4090000004e00002003a00348ea90094
:102fc40013003700348ea800110037001e40900013
:102fd4000004e00002003a0034aea9000c003700ff
:102fe40034aea8000a0037001e4090000004e00040
:102ff40002003a0015eea9000500370015eea800fe
:10300400030037000000000001003700000000004a
:103014000080fa00000006000200fa00004f780069
:103024001e80fb0011022000810f50001e003200a0
:1030340011022000810f500006003c00ec0f5000ec
:103044004300320001022000810f500008003200ca
:103054004d00370021022000810f50002000320073
:1030640031022000810f50002b003200460037004f
:1030740000c2b300460007000080fb000000e90026
:103084004f00de00004078000080fb00610060001b
:103094004800dd00a17080000180a10001007000e3
:1030a400a07088003800370010c2b3003800070051
:1030b4000080fb000000e9004f00de0000407800c3
:1030c4000080fb00610060004900dd00a170800009
:1030d4000190a10001007000a07088002a00370050
:1030e40020c2b3002a0007000080fb000000e900b2
:1030f4004f00de00004078000080fb0061006000ab
:103104004a00dd00a170800001a0a1000100700050
:10311400a07088001c00370030c2b3001c000700f8
:103124000080fb000000e9004f00de000040780052
:103134000080fb00610060004b00dd00a170800096
:1031440001b0a10001007000a07088000e003700db
:10315400c0c0b3000e0007000080fb000000e900bf
:103164004f00de00004078000080fb00610060003a
:103174004800dd00217380000180a100010070007f
:1031840020738800000000000080fa0000000600a0
:103194000200fa00004f78001e80fb006101b900b4
:1031a4000080eb008080eb00020040008380480038
:1031b4003206200003002000820f5000838f580045
:1031c400c9003e00000601006f003700c60037004a
:1031d400ad003700b0003700b3003700c20037003d
:1031e400c1003700c0003700bf0037007a00370045
:1031f4007d0037008c003700bb00370086003700a5
:10320400b9003700b8003700b7003700b600370000
:10321400b5003700b4003700b3003700b200370000
:10322400b1003700b0003700af003700ae00370000
:10323400ad003700ac003700ab003700aa00370000
:10324400a900370054003700570037005a003700f0
:103254005d003700a4003700a3003700a200370048
:10326400a1003700a00037009f0037009e00370000
:103274009d003700980037009b0037009a00370004
:103284009900370098003700970037009600370000
:103294009500370094003700930037009200370000
:1032a40091003700900037008f0037008e00370000
:1032b4008d0037008c0037008b0037008a00370000
:1032c4008900370088003700870037008600370000
:1032d4008500370084003700830037008200370000
:1032e40081003700800037007f0037007e00370000
:1032f4007d0037007c0037007b0037007a00370000
:1033040079003700780037006b0037006e00370013
:1033140075003700740037007300370072003700ff
:103324007100370070003700370037003200370073
:103334006d0037006c0037003f0037004200370053
:103344000d00370004003700070037004200370043
:103354004500370048003700107380004c00de0041
:103364006140600061003700107380004d00de0092
:10337400614060005d003700107380004e00de0085
:103384006140600059003700107380004f00de0078
:103394000040780055003700907080004800de003f
:1033a4006140600051003700907080004900de00e9
:1033b400614060004d003700907080004a00de00dc
:1033c4006140600049003700907080004b00de00cf
:1033d4006140600045003700107380004600de0045
:1033e4006140600041003700107380004700de0038
:1033f400614060003d003700107380000040780099
:103404006140600039003700107380000000d10073
:103414006140600035003700107380004900de0011
:103424006140600031003700107380004800de0006
:10343400614060002d003700107280000040780069
:103444006140600029003700107280000000d10044
:103454006140600025003700107280004200de00e9
:103464006140600021003700107280004300de00dc
:10347400614060001d003700107280004400de00cf
:103484006140600019003700107280004500de00c2
:103494006140600015003700107280004600de00b5
:1034a4006140600011003700107280004700de00a8
:1034b400614060000d003700907180004400de0020
:1034c4006140600009003700907180004500de0013
:1034d4006140600005003700907080004f00de00fe
:1034e40000407800010037000040eb000080fa0043
:1034f400000006000200fa0010c0b300004f78007c
:1035040032d0bf000080fb00e10f500014003200f5
:10351400e10f500003003c000000e0000600320010
:1035240047003700e20f500024003200e30f500040
:103534002c0032004200370000c6b30014ff07001d
:103544000004e00003003a0010c0b30032f0b700fa
:103554003430ef0010c0b300004f78003c00370057
:10356400a08180000000e800a081880000c6b300ac
:1035740007ff07000004e0000c003a00a18180006e
:10358400006f8400808f50000500390020c0b30014
:1035940032f0b7000040eb00004f78002c003700f9
:1035a40010c0b300004f7800290037003270ef00dc
:1035b40010c0b300004f78002500370000c6b300e8
:1035c400f3fe0700e14f500003003a0030c0b3009f
:1035d40032f0b7003430ef000040eb00004f7800c9
:1035e4001b003700a08180000000e800a081880053
:1035f40000c6b300e6fe0700e14f50000b003a009e
:10360400a1818000006f8400808f50000400390085
:103614003270ef0010c0b300004f78000c00370088
:103624000040eb00004f78000900370020c0b300d1
:1036340032f0b7000040eb00004f78000400370080
:103644003270ef0010c0b300004f7800000000009b
:103654001e4078000080fa00000006000c00fa000a
:10366400004f780012079800230798003407980049
:1036740045079800214f98000040eb000080fa00b5
:10368400000006000000fa000080fa0000000600b6
:103694001800fa0000579800120f9800230f9800a2
:1036a4006157980005e1a9000421a90004c1a900fb
:1036b40021088000f0fc2f00008060000050a00072
:1036c400200888000021ef000080eb00100888002b
:1036d40001428000f0ff2800008060000042880062
:1036e4000068a9002068a90005e1a8000e51900017
:1036f40061022100824878001e089000ae08900004
:1037040002402f0013002000bef307006011b80030
:10371400009fbe000297be006e5090000080fb0028
:103724008000eb006011b8003e02be002e03be0014
:10373400c9f4070044062000050020006033b800e7
:103744005cf407004007980051079800620798004e
:10375400730798004e009000108188009e00780046
:103764001081800000805000208188000080fa00d1
:10377400000006000200fa0000088000000f780034
:1037840027d0bf000004e0000d003a004081800013
:103794009e00100020818000808f500013003500af
:1037a40026d0bf0011c0b30035fd0700000880001b
:1037b4004081880010c0b30027f0b7000b00370029
:1037c400408180009e00100010818000808f500096
:1037d4000600350026d0bf008040eb0028fd07001e
:1037e40000088000408188002770ef000080fa0004
:1037f400000006001600fa00000f9800110f980050
:10380400425798000e0890009e08900002402f0036
:10381400130020007bf307006011b800009fbe0076
:103824000297be004e5090000080fb008000eb0029
:103834006011b8003e02be002e03be0086f40700ed
:1038440044062000050020006033b80019f4070086
:103854004007980051079800620798007307980082
:103864004e009000108188009e0078001081800036
:1038740000805000208188000080fa0000000600cb
:103884000800fa00004f780011479800224798007a
:103894003347980044479800554798006647980076
:1038a400774798001e80fb00e50f50001901320095
:1038b400e50f50000c003c00e20f50005a003200ab
:1038c400e20f500003003c00e10f50000f003200f3
:1038d40044023700e30f500092003200e40f50001e
:1038e400cd0032003f023700e70f5000850132005f
:1038f400e70f500044013500e80f5000bd013200cd
:10390400e90f5000fa0132003602370005e1a90040
:103914001e409000614060000080fb006100600078
:103924004d00dd002108800001d0a10001007000dd
:10393400200888002e409000614060000080fb0059
:10394400610060004600dd00210880000160a100e4
:1039540001007000200888003e4090006340600031
:103964000080fb00630060004400dd00220880004a
:10397400f1fc2f0081006100010070002008880024
:103984004e409000614060000080fb0061006000d8
:103994004200dd00210880000120a1000100700028
:1039a400200888005e409000614060000080fb00b9
:1039b4006100600000004000210880000110a100a7
:1039c40001007000200888007e409000674060007d
:1039d4000080fb00670060004c00dd0002428000b4
:1039e400f1ff28008100610001007000004288009e
:1039f4000068a9006e409000614060000080fb00f8
:103a0400610060004300dd00014180000130a1003d
:103a140001007000004188000021ef000080eb00ed
:103a240010088800ef01370011e1a9001e40900042
:103a3400614060000080fb00610060004d00dd001b
:103a44008108800001d0a100010070008008880076
:103a54002e409000614060000080fb006100600027
:103a64004600dd00810880000160a10001007000b3
:103a7400800888003e409000634060000080fb00a6
:103a8400630060004400dd0082088000f1fc2f0028
:103a94008100610001007000800888005e40900091
:103aa400614060000080fb00610060000000400095
:103ab400810880000110a1000100700080088800c6
:103ac4001061a9007e409000674060000080fb0008
:103ad400670060004c00dd0012428000f1ff280006
:103ae40081006100010070001042880000e8a90014
:103af4006e409000614060000080fb006100600047
:103b04004700dd00014180000170a1000100700048
:103b1400004188000621ef000080eb006008880067
:103b2400b001370013e1a9001e409000614060001d
:103b34000080fb00610060004d00dd009108800002
:103b440001d0a10001007000900888002e40900070
:103b5400614060000080fb00610060004600dd0001
:103b6400910880000160a1000100700090088800a5
:103b74003e409000634060000080fb0063006000f2
:103b84004400dd0092088000f1fc2f0081006100f8
:103b940001007000900888005e4090006140600061
:103ba4000080fb006100600000004000910880007c
:103bb4000110a10001007000900888007e40900070
:103bc400674060000080fb006700600022428000c4
:103bd40081ff2f00810061000100700020428800f5
:103be4000108a9006e409000614060000080fb0065
:103bf400610060004800dd00014180000180a100f7
:103c040001007000004188000a21ef000080eb00f1
:103c140070088800730137001fe1a9001e4090005e
:103c2400614060000080fb00610060004d00dd0029
:103c3400f108800001d0a10001007000f0088800a4
:103c44002e409000614060000080fb006100600035
:103c54004600dd00f10880000160a1000100700051
:103c6400f00888003e409000634060000080fb0044
:103c7400630060004400dd00f2088000f1fc2f00c6
:103c84008100610001007000f00888005e4090002f
:103c9400614060000080fb006100600000004000a3
:103ca400f10880000110a10001007000f0088800f4
:103cb4001e61a9007e409000674060000080fb0008
:103cc400670060004c00dd0062428000f1ff2800c4
:103cd4008100610001007000604288000368a9004f
:103ce4006e409000614060000080fb006100600055
:103cf4004b00dd001141800001b0a1000100700003
:103d0400104188001421ef000080eb00d0088800e7
:103d14003401370021e1a9001e4090006140600099
:103d24000080fb00610060004d00dd00010980009f
:103d340001d0a10001007000000988002e4090000d
:103d4400614060000080fb00610060004600dd000f
:103d5400010980000160a1000100700000098800d1
:103d64003e409000634060000080fb006300600000
:103d74004400dd0002098000f1fc2f008100610095
:103d840001007000000988005e40900061406000fe
:103d94000080fb0061006000000040000109800019
:103da4000110a10001007000000988007e4090000d
:103db400674060000080fb00670060007242800082
:103dc40081ff2f00810061000100700070428800b3
:103dd4000388a9006e409000614060000080fb00f1
:103de400610060004c00dd001141800001c0a100b1
:103df40001007000104188001821ef000080eb00e2
:103e0400e0088800f70037002de1a9001e4090006b
:103e1400614060000080fb00610060004d00dd0037
:103e24006109800001d0a1000100700060098800d0
:103e34002e409000614060000080fb006100600043
:103e44004600dd00610980000160a10001007000ee
:103e5400600988003e409000634060000080fb00e1
:103e6400630060004400dd0062098000f1fc2f0063
:103e74008100610001007000600988005e409000cc
:103e8400614060000080fb006100600000004000b1
:103e9400610980000110a100010070006009880020
:103ea4002c61a9007e409000674060000080fb0008
:103eb400670060004c00dd00b2428000f1ff280082
:103ec4008100610001007000b042880005e8a9008b
:103ed4006e409000614060000080fb004f00dd00f8
:103ee40022418000f1ff2700810061000100700081
:103ef400204188002221ef000080eb004009880067
:103f0400b80037002fe1a9001e4090006140600016
:103f14000080fb00610060004d00dd00710980003d
:103f240001d0a10001007000700988002e409000ab
:103f3400614060000080fb00610060004600dd001d
:103f4400710980000160a1000100700070098800ff
:103f54003e409000634060000080fb00630060000e
:103f64004400dd0072098000f1fc2f008100610033
:103f740001007000700988005e409000614060009c
:103f84000080fb00610060000000400071098000b7
:103f94000110a10001007000700988007e409000ab
:103fa400674060000080fb0067006000c242800040
:103fb40081ff2f008100610001007000c042880071
:103fc4000608a9006e409000614060000080fb007c
:103fd40061006000314180000100a1000100700017
:103fe400304188002621ef000080eb005009880052
:103ff4007c0037003be1a9001e4090006140600056
:104004000080fb00610060004d00dd00d1098000ec
:1040140001d0a10001007000d00988002e4090005a
:10402400614060000080fb00610060004600dd002c
:10403400d10980000160a10001007000d00988004e
:104044003e409000634060000080fb00630060001d
:104054004400dd00d2098000f1fc2f0081006100e2
:1040640001007000d00988005e409000614060004b
:104074000080fb006100600000004000d109800066
:104084000110a10001007000d00988003a61a90064
:104094007e409000674060000080fb006700600085
:1040a4004c00dd00c2428000f1ff28008100610065
:1040b40001007000c04288000668a9006e409000ac
:1040c400614060000080fb00610060004300dd008f
:1040d400314180000130a1000100700030418800ae
:1040e4003021ef000080eb00b00988003d0037006c
:1040f4003de1a9001e409000614060000080fb008b
:10410400610060004d00dd00e109800001d0a100e4
:1041140001007000e00988002e40900061406000ba
:104124000080fb00610060004600dd00e1098000c2
:104134000160a10001007000e00988003e40900089
:10414400634060000080fb00630060004400dd0009
:10415400e2098000f1fc2f00810061000100700081
:10416400e00988005e409000614060000080fb0030
:104174006100600000004000e10980000110a1001e
:1041840001007000e00988007e40900067406000f4
:104194000080fb0067006000d242800081ff2f0096
:1041a4008100610001007000d04288000688a900e7
:1041b4006e409000614060000080fb006100600080
:1041c4004400dd00314180000140a1000100700085
:1041d400304188003421ef000080eb00c0098800e2
:1041e400000000000080fa00000006000200fa004f
:1041f400004f78001e80fb00e50f50001f003200c6
:10420400e50f50000c003c00e20f50001500320096
:10421400e20f500003003c00e10f50000f00320099
:1042240020003700e30f500010003200e40f50006c
:10423400100032001b003700e70f5000130032005b
:10424400e70f50000f003500e80f50001100320056
:10425400e90f5000110032001200370005e1a800f8
:104264001000370011e1a8000e00370013e1a80088
:104274000c0037001fe1a8000a00370021e1a80064
:10428400080037002de1a800060037002fe1a80040
:10429400040037003be1a800020037003de1a8001c
:1042a400000000000080fa00000006000200fa008e
:1042b400004f78001e80fb00e50f50001f00320005
:1042c400e50f50000c003c00e20f500015003200d6
:1042d400e20f500003003c00e10f50000f003200d9
:1042e40020003700e30f500010003200e40f5000ac
:1042f400100032001b003700e70f5000130032009b
:10430400e70f50000f003500e80f50001100320095
:10431400e90f5000110032001200370005e1a90036
:104324001000370011e1a9000e00370013e1a900c5
:104334000c0037001fe1a9000a00370021e1a900a1
:10434400080037002de1a900060037002fe1a9007d
:10435400040037003be1a900020037003de1a90059
:10436400000000000080fa00000006000400fa00cb
:10437400004f7800110798001e80fb00e50f5000e5
:1043840023003200e50f50000c003c00e20f500007
:1043940016003200e20f500003003c00e10f500011
:1043a4000f00320029003700e30f500012003200e2
:1043b400e40f50001300320024003700e70f5000d0
:1043c40019003200e70f500014003500e80f5000c8
:1043d40018003200e90f5000190032001b003700aa
:1043e4009e00900011088800180037009e0090007d
:1043f40061088800150037009e009000710888004d
:10440400120037009e009000d10888000f0037008a
:104414009e009000e10888000c0037009e00900088
:1044240041098800090037009e0090005109880066
:10443400060037009e009000b10988000300370091
:104444009e009000c1098800000000000080fa006e
:10445400000006000200fa00004f78001e80fb00f6
:10446400e50f50001f003200e50f50000c003c0027
:10447400e20f500015003200e20f500003003c0030
:10448400e10f50000f00320020003700e30f50000e
:1044940010003200e40f5000100032001b003700ff
:1044a400e70f500013003200e70f50000f003500f3
:1044b400e80f500011003200e90f500011003200e3
:1044c400120037002068a9001000370020e8a90076
:1044d4000e0037002108a9000c0037002368a9004a
:1044e4000a0037002388a9000800370025e8a9003e
:1044f400060037002608a900040037002668a90032
:10450400020037002688a900000000000080fa009d
:10451400000006000200fa00004f78001e80fb0035
:10452400e50f50001f003200e50f50000c003c0066
:10453400e20f500015003200e20f500003003c006f
:10454400e10f50000f00320020003700e30f50004d
:1045540010003200e40f5000100032001b0037003e
:10456400e70f500013003200e70f50000f00350032
:10457400e80f500011003200e90f50001100320022
:10458400120037002068a8001000370020e8a800b7
:104594000e0037002108a8000c0037002368a8008b
:1045a4000a0037002388a8000800370025e8a8007f
:1045b400060037002608a800040037002668a80073
:1045c400020037002688a800000000000080fa00de
:1045d400000006000200fa00004f78001e80fb0075
:1045e400e50f50001f003200e50f50000c003c00a6
:1045f400e20f500015003200e20f500003003c00af
:10460400e10f50000f00320020003700e30f50008c
:1046140010003200e40f5000100032001b0037007d
:10462400e70f500013003200e70f50000f00350071
:10463400e80f500011003200e90f50001100320061
:10464400120037000068a9001000370000e8a90034
:104654000e0037000108a9000c0037000368a90008
:104664000a0037000388a9000800370005e8a900fc
:10467400060037000608a900040037000668a900f0
:10468400020037000688a900000000000080fa003c
:10469400000006000200fa000000eb00000f7800a2
:1046a40001003700000000000080eb001e006800dd
:1046b40000f0a7000000ea000000ea004f00de005e
:1046c400004078001e0fe8000004e000f5ff3a0007
:1046d4002172800000f02f000080600020728800aa
:1046e40034aea90015eea900348ea9000172800031
:1046f40000f02f00008060000072880030aea90036
:1047040011eea900308ea9002172800000f02f0064
:1047140000806000207288002172800080032000e5
:1047240001007000207288007d0007000000eb008b
:10473400000f7800010037000000000010c0b30033
:1047440071ad25001e017800810f51000100360073
:104754000040eb001e0fe8000004e000f6ff3a0002
:104764002172800000f02f00008060002072880019
:1047740021728000800320000100700020728800f4
:10478400670007000000eb00000f7800010037000d
:104794000000000010c0b300a12221001e01780017
:1047a400810f5100010036000040eb001e0fe800ad
:1047b4000004e000f6ff3a002172800000f02f00b0
:1047c4000080600020728800217280008003200035
:1047d4000100700020728800510007000000eb0007
:1047e400000f7800010037000000000010c0b30083
:1047f400a12221001e017800810f51000100360022
:104804000040eb001e0fe8000004e000f6ff3a0051
:1048140080c3b30006000700c0c0b3000400070053
:1048240060c0b300020007000080fa000000060028
:104834000400fa00204798002172800000f02f0045
:1048440000806000207288002e4090008080fb0071
:1048540020728000010070002072880034aea9002c
:1048640015eea9002e0007000000eb00000f7800f1
:10487400010037000000000010c0b30071ad250036
:104884001e017800810f5100010036000040eb004a
:104894001e0fe8000004e000f6ff3a000080fa0072
:1048a400000006000200fa00004f78002172800028
:1048b40000f02f0000806000207288009e80fb00c2
:1048c40020728000010070002072880034aea900bc
:1048d40015eea900120007000080fa00000006008f
:1048e4000200fa00004f780034aea90015eea800cb
:1048f4002172800000f02f00008060002072880088
:104904009e80fb00207280000100700020728800ed
:104914000300070015eea9000080fa00000006005d
:104924000000fa00348ea80000000000000000001f
:104934000000000000000000348ea9000080fa008e
:10494400000006000200fa00004f78000080fa0020
:10495400000006000200fa000040eb00004f78005f
:1049640015eea90034aea8007172800000f02f008b
:1049740000806000707288004172800000f02f0097
:1049840000806000407288005172800000f02f00a7
:1049940000806000507288006172800000f02f0077
:1049a400008060006072880001728000f00f2000b7
:1049b400010070000072880061728000f00f200016
:1049c4000100700060728800d5ff0700117280003a
:1049d40000082000008060000000e00002003200b7
:1049e40010c0b300004f78007172800000f02f00f7
:1049f40000806000707288004172800000f02f0017
:104a040000806000407288005172800000f02f0026
:104a140000806000507288006172800000f02f00f6
:104a240000806000607288000172800000f02f0036
:104a3400008060000072880015eea90034aea90061
:104a44009e40780061c060000080fb00610060004f
:104a54004800dd00a17080000180a1000100700009
:104a6400a07088001e4078000080fa000000060054
:104a74000200fa00004f78001e40780098ff0700fb
:104a84000080fa00000006000200fa00000f78001f
:104a9400040037001e007800104078001e0fe80064
:104aa4008fff07001e007800104078000004e0002b
:104ab400f8ff3a000080fa00000006000600fa0041
:104ac40010079800414798000040eb00004f780021
:104ad400060037001e80fb009e009000008040000e
:104ae400104078001e4fe8007dff07004e40900004
:104af4009e40780080cf5000f6ff39000080fa0015
:104b0400000006000000fa00200621008040eb00af
:104b140001487800200721008040eb00014878001c
:104b24000080fa00000006000000fa0089ff070078
:104b34000004e00062003a003ed0bf000080fb00a9
:104b4400e10f500039003200e10f500003003c0037
:104b54000000e000060032005a003700e20f500067
:104b640022003200e30f50004700320055003700a6
:104b74003fd0bf000080fb002106210000804000e0
:104b8400104078000004e0000d0032003fd0bf0068
:104b9400ef4f50000a003e003fd0bf000080fb00f2
:104ba4002106210000804000104078004cff0700df
:104bb4003fd0bf000040e8003ff0b700410037009d
:104bc4003fd0bf00f04f500005003a0000ccb300c6
:104bd40034ff070010c0b3003ef0b70039003700bf
:104be40020c0b3003ef0b700360037003fd0bf000e
:104bf400ef4f500006003e0000c2b30038ff07002c
:104c04003fd0bf000040e8003ff0b7002d00370060
:104c140000ccb30023ff070010c0b3003ef0b70080
:104c240000c1b3003ff0b700260037003fd0bf00fb
:104c34000080fb0021062100008040001040780025
:104c44000004e0000d0032003fd0bf00ff4f5000d1
:104c54000a003e003fd0bf000080fb002106210077
:104c640000804000104078001dff07003fd0bf00c7
:104c74000040e8003ff0b7001200370030c0b30036
:104c84003ef0b7000f0037003fd0bf00ff4f500089
:104c940006003e0000c2b30011ff07003fd0bf0072
:104ca4000040e8003ff0b7000600370020c0b30022
:104cb400fcfe07003e70ef003f70ef00010037007c
:104cc400000000000080fa00000006000200fa0064
:104cd400000f7800b0818000020120009e0078005f
:104ce400a8ef07000080fa00000006000200fa00a6
:104cf400000f7800c0818000020120009e0078002f
:104d0400a0ef07000080fa00000006000200fa008d
:104d1400000f78001e0078000000e00005003a0053
:104d24001630ef008040eb0000c2b300d4f7070058
:104d340009003700b08080000000e800b0808800df
:104d4400b08080009e0f5000030039001630ef0041
:104d540000c2b300b0f807000080fa0000000600ab
:104d64000200fa00000f78001e0078000000e00046
:104d740005003a001430ef008040eb0010c2b3008d
:104d8400bff7070009003700a08080000000e8009a
:104d9400a0808800a08080009e0f5000030039008e
:104da4001430ef0010c2b3009bf807000080fa0033
:104db400000006000200fa00000f78001e007800d0
:104dc4000000e00005003a001230ef008040eb00e4
:104dd40020c2b300aaf707000900370090808000c2
:104de4000000e80090808800908080009e0f5000b2
:104df400030039001230ef0020c2b30086f8070028
:104e04000080fa00000006000200fa00000f78009b
:104e14001e0078000000e00005003a001030ef00aa
:104e24008040eb0030c2b30095f70700090037005b
:104e3400808080000000e8008080880080808000fe
:104e44009e0f5000030039001030ef0030c2b30051
:104e540071f807000080fa00000006000000fa0064
:104e640000c6b300caf807000004e00006003a00d8
:104e74000cd0bf000004e00003003a000e30ef0045
:104e840010c0b3000cf0b7000cd0bf00e14f5000cd
:104e940008003a00708080000000e80070808800fc
:104ea40000c6b300baf80700e14f500001003a0011
:104eb4000c70ef00708080000080fa000000060093
:104ec4000000fa0010c6b300b1f807000004e000c7
:104ed40006003a0008d0bf000004e00003003a00d6
:104ee4000a30ef0010c0b30008f0b70008d0bf00cc
:104ef400e14f500008003a00508080000000e800b4
:104f04005080880010c6b300a1f80700e14f50009c
:104f140001003a000870ef00508080000080fa0021
:104f2400000006000000fa00f0c5b30098f807007e
:104f34000004e00006003a0004d0bf000004e000d2
:104f440003003a000630ef0010c0b30004f0b700cd
:104f540004d0bf00e14f500008003a0030808000c8
:104f64000000e80030808800f0c5b30088f807002e
:104f7400e14f500001003a000470ef0030808000df
:104f84000080fa00000006000000fa0010c0b30020
:104f94007ff807000004e00006003a0000d0bf00dc
:104fa4000004e00003003a000230ef0010c0b30038
:104fb40000f0b70000d0bf00e14f500008003a00f5
:104fc400108080000000e8001080880010c0b3004a
:104fd4006ff80700e14f500001003a000070ef0045
:104fe400108080000080fa00000006000200fa0031
:104ff400004f78001e80fb00f1052000810f500057
:1050040011003200f1052000810f500003003c0024
:10501400e10f50000e0032000f003700010620009f
:10502400810f50000400320011062000810f50004f
:10503400030032000800370088ff0700070037002c
:105044009fff070005003700b6ff07000300370085
:10505400cdff0700010037000000eb000080fa00dc
:10506400000006000400fa00004f780011079800c1
:105074001e80fb0011022000810f5000110032003d
:1050840011022000810f500004003c0001022000a6
:10509400810f500008003200130037002102200065
:1050a400810f50000a00320031022000810f5000ad
:1050b4000a0032000c0037001e00900013ff0700a6
:1050c400090037001e00900025ff07000600370086
:1050d4001e00900037ff0700030037001e009000f9
:1050e40049ff0700000000000080fa0000000600ed
:1050f4000200fa00004f78003dd0bf00e14f50009d
:1051040005003a001e4078000004e00002003a0066
:1051140000c2b300c0f707001e417800d10321008c
:10512400824878000080fa00000006000200fa00bd
:10513400004f78003cd0bf00e14f50001a003a0005
:105144001e4078000004e00017003a0030d0bf0091
:105154000040e80030f0b70030d0bf00614060008c
:105164008040780000c2b300c5f6070030d0bf000d
:10517400624060008040780010c2b300c0f60700af
:1051840030d0bf00644060008040780020c2b3008b
:10519400bbf6070030d0bf00684060008040780054
:1051a40030c2b300b6f607001e417800c1032100e7
:1051b400824878000080fa00000006000c00fa0023
:1051c4002047980031479800220798003307980039
:1051d40044079800550798003ad0bf00e14f5000ab
:1051e4000a003a002e4090000004e00007003a0054
:1051f4002c30ef002e30ef0011c0b3003e40900081
:105204009ff607003b70ef004b0037003bd0bf0018
:105214000080fb00e10f500040003200e20f50001c
:10522400140032000000e0003e003a00608180007b
:105234007181800061004000e08048006081880046
:105244007181880062818000738180002e0090004b
:10525400be009000800f5100818f59003300390047
:105264002c30ef002e30ef0020c0b3003bf0b7002d
:10527400310037006081800071818000610040004e
:10528400e08048006081880071818800608180002e
:1052940071818000420620008289b900e002b900d1
:1052a4008401780003014100430620000300b80094
:1052b40001014100820078004e019000de0190005f
:1052c400d0ec0700004f780040c6b3001e405000e9
:1052d4000041780091c1b3003e4090001b000700dc
:1052e40062818000738180004e009000de00900097
:1052f400800f5100818f59000e0039002c30ef00cf
:105304002e30ef008040eb003e4090005cf607003a
:1053140010c0b3003bf0b7000700370000000000e6
:105324000500370000000000030037000000000003
:1053340001003700000000002e419000a10321006d
:10534400824878000080fa00000006000800fa0095
:105354004047980051479800624798004e4090009b
:105364008bf70700004f78005e4090008080fb00c0
:105374006e4090000080fb008088b90080007800b7
:105384004006200000017800110009008280d80046
:1053940010479800de4090001e40900000c050006e
:1053a400204798002ad0bf000040e8002af0b70048
:1053b4001e407800e14f50000a003a00a10221008b
:1053c400914078001e40900080cf50000e003900bc
:1053d4008040eb004e40900029f607002a70ef0051
:1053e40009003700a1022100914078002e4090006e
:1053f40080cf50000400390011c0b3004e4090002b
:105404001ff607002a70ef000080fa000000060073
:105414000000fa0040042000303a8800213a80005d
:10542400f0f32f0000806000203a8800213a8000c9
:1054340000fe2f0000806000203a88003200200027
:1054440080072000a10920003374200080497800df
:105454008149780082497800103a80000001780080
:105464000200a000600420007105200023742000c5
:105474008049780081497800824978000000000062
:10548400113a8000000027008080600000002300a3
:10549400808f5000faff3a0000000000113a8000ab
:1054a40000022000008060000000e000fbff3200ea
:1054b4000080fa00000006001400fa00889fbe0075
:1054c400d3ff070031c0b30000c2b300bcf1070032
:1054d40031c0b30010c2b300b9f1070031c0b3004a
:1054e40020c2b300b6f1070031c0b30030c2b3002c
:1054f400b3f107008040eb0000c2b300e0f5070001
:105504008040eb0010c2b300ddf507008040eb00e3
:1055140020c2b300daf507008040eb0030c2b300cc
:10552400d7f5070021c0b30000c6b300a4f10700fb
:1055340021c0b30010c6b300a1f1070021c0b3001d
:10554400f0c5b3009ef1070021c0b30010c0b30042
:105554009bf107004ffc070010c0b300b4fc070028
:1055640068fd07002f000700c0db2800d7fd0700f7
:1055740055000700008fbe00152ea8001e00be00b7
:10558400823e2000030020002eec0700e00f5000b4
:10559400e08f580016003a001e00be00823e200034
:1055a4000300200017ec0700c203200003002000c2
:1055b40024ec07000004be001e00be0002a62e005c
:1055c400030020000fec070064014700889fbe0021
:1055d400809fbe00d0dc2800801f78000200780085
:1055e4007eed0700ea87570064004700bffd07000f
:1055f4004dfd070012002000030020001e0f410093
:105604005e974900152ea900010037000060fe00d6
:105614002d000700be0f5000ae8f5800fbff39006d
:10562400d5ff37000000fa0005e1a9000421a90014
:1056340004c1a90021088000f0fc2f000080600054
:105644000040a000200888000021ef00d0222200a2
:105654001008880001428000f0ff280000806000ec
:1056640000c0a000004288000068a9002068a800cb
:1056740005e1a8000080fa0000000600809fbe003b
:105684000000fa00c0808000d180800061004000ea
:10569400e0804800c0808800d18088001cd0bf0012
:1056a400e14f500003003a0010c0b3001df0b700f2
:1056b400010037001d70ef000068a9000080fa00a7
:1056c4004f00be00004006000400fa006000b8006d
:1056d400008fbe0010c0b3001cf0b700c280800071
:1056e400d3808000028fbe001c70ef001dd0bf006d
