:020000040000fa
:080000000002040000000000f2
:020000040000fa
:04000800fe020000f4
:020000040000fa
:04000c00fe020000f0
:020000040000fa
:04001000fe020000ec
:020000040000fa
:04001400fe020000e8
:020000040000fa
:04001800fe020000e4
:020000040000fa
:04001c00fe020000e0
:020000040000fa
:04002000fe020000dc
:020000040000fa
:04002400fe020000d8
:020000040000fa
:04002800fe020000d4
:020000040000fa
:04002c00fe020000d0
:020000040000fa
:04003000fe020000cc
:020000040000fa
:04003400d4510000a3
:020000040000fa
:04003800fe020000c4
:020000040000fa
:04003c00fe020000c0
:020000040000fa
:04004000fe020000bc
:020000040000fa
:04004400fe020000b8
:020000040000fa
:04004800fe020000b4
:020000040000fa
:04004c00fe020000b0
:020000040000fa
:04005000fe020000ac
:020000040000fa
:04005400fe020000a8
:020000040000fa
:04005800fe020000a4
:020000040000fa
:04005c00fe020000a0
:020000040000fa
:04006000fe0200009c
:020000040000fa
:04006400fe02000098
:020000040000fa
:04006800fe02000094
:020000040000fa
:04006c00fe02000090
:020000040000fa
:04007000fe0200008c
:020000040000fa
:04007400fe02000088
:020000040000fa
:04007800fe02000084
:020000040000fa
:04007c00fe02000080
:020000040000fa
:04008000fe0200007c
:020000040000fa
:04008400fe02000078
:020000040000fa
:04008800fe02000074
:020000040000fa
:04008c00fe02000070
:020000040000fa
:04009000fe0200006c
:020000040000fa
:04009400fe02000068
:020000040000fa
:04009800fe02000064
:020000040000fa
:04009c00fe02000060
:020000040000fa
:0400a000fe0200005c
:020000040000fa
:0400a400fe02000058
:020000040000fa
:0400a800fe02000054
:020000040000fa
:0400ac00fe02000050
:020000040000fa
:0400b000fe0200004c
:020000040000fa
:0400b400fe02000048
:020000040000fa
:0400b800fe02000044
:020000040000fa
:0400bc00fe02000040
:020000040000fa
:0400c000fe0200003c
:020000040000fa
:0400c400fe02000038
:020000040000fa
:0400c800fe02000034
:020000040000fa
:0400cc00fe02000030
:020000040000fa
:0400d000fe0200002c
:020000040000fa
:0400d400fe02000028
:020000040000fa
:0400d800fe02000024
:020000040000fa
:0400dc00fe02000020
:020000040000fa
:0400e000fe0200001c
:020000040000fa
:0400e400fe02000018
:020000040000fa
:0400e800fe02000014
:020000040000fa
:0400ec00fe02000010
:020000040000fa
:0400f000fe0200000c
:020000040000fa
:0400f400fe02000008
:020000040000fa
:0400f800fe02000004
:020000040000fa
:0400fc00fe02000000
:020000040000fa
:04010000fe020000fb
:020000040000fa
:04010400fe020000f7
:020000040000fa
:04010800fe020000f3
:020000040000fa
:04010c00fe020000ef
:020000040000fa
:04011000fe020000eb
:020000040000fa
:04011400fe020000e7
:020000040000fa
:04011800fe020000e3
:020000040000fa
:04011c00fe020000df
:020000040000fa
:04012000fe020000db
:020000040000fa
:04012400fe020000d7
:020000040000fa
:04012800fe020000d3
:020000040000fa
:04012c00fe020000cf
:020000040000fa
:04013000fe020000cb
:020000040000fa
:04013400fe020000c7
:020000040000fa
:04013800fe020000c3
:020000040000fa
:04013c00fe020000bf
:020000040000fa
:04014000fe020000bb
:020000040000fa
:04014400fe020000b7
:020000040000fa
:04014800fe020000b3
:020000040000fa
:04014c00fe020000af
:020000040000fa
:04015000fe020000ab
:020000040000fa
:04015400fe020000a7
:020000040000fa
:04015800fe020000a3
:020000040000fa
:04015c00fe0200009f
:020000040000fa
:04016000fe0200009b
:020000040000fa
:04016400fe02000097
:020000040000fa
:04016800fe02000093
:020000040000fa
:04016c00fe0200008f
:020000040000fa
:04017000fe0200008b
:020000040000fa
:04017400fe02000087
:020000040000fa
:04017800fe02000083
:020000040000fa
:04017c00fe0200007f
:020000040000fa
:04018000fe0200007b
:020000040000fa
:04018400fe02000077
:020000040000fa
:04018800fe02000073
:020000040000fa
:04018c00fe0200006f
:020000040000fa
:04019000fe0200006b
:020000040000fa
:04019400fe02000067
:020000040000fa
:04019800fe02000063
:020000040000fa
:04019c00fe0200005f
:020000040000fa
:0401a000fe0200005b
:020000040000fa
:0401a400fe02000057
:020000040000fa
:0401a800fe02000053
:020000040000fa
:0401ac00fe0200004f
:020000040000fa
:0401b000fe0200004b
:020000040000fa
:0401b400fe02000047
:020000040000fa
:0401b800fe02000043
:020000040000fa
:0401bc00fe0200003f
:020000040000fa
:0401c000fe0200003b
:020000040000fa
:0401c400fe02000037
:020000040000fa
:0401c800fe02000033
:020000040000fa
:0401cc00fe0200002f
:020000040000fa
:0401d000fe0200002b
:020000040000fa
:0401d400fe02000027
:020000040000fa
:0401d800fe02000023
:020000040000fa
:0401dc00fe0200001f
:020000040000fa
:0401e000fe0200001b
:020000040000fa
:0401e400fe02000017
:020000040000fa
:0401e800fe02000013
:020000040000fa
:0401ec00fe0200000f
:020000040000fa
:0401f000fe0200000b
:020000040000fa
:0401f400fe02000007
:020000040000fa
:0401f800fe02000003
:020000040000fa
:0401fc00fe020000ff
:020000040000fa
:04020000fe020000fa
:020000040000fa
:04020400fe020000f6
:020000040000fa
:04020800fe020000f2
:020000040000fa
:04020c00fe020000ee
:020000040000fa
:04021000fe020000ea
:020000040000fa
:04021400fe020000e6
:020000040000fa
:04021800fe020000e2
:020000040000fa
:04021c00fe020000de
:020000040000fa
:04022000fe020000da
:020000040000fa
:04022400fe020000d6
:020000040000fa
:04022800fe020000d2
:020000040000fa
:04022c00fe020000ce
:020000040000fa
:04023000fe020000ca
:020000040000fa
:04023400fe020000c6
:020000040000fa
:04023800fe020000c2
:020000040000fa
:04023c00fe020000be
:020000040000fa
:04024000fe020000ba
:020000040000fa
:04024400fe020000b6
:020000040000fa
:04024800fe020000b2
:020000040000fa
:04024c00fe020000ae
:020000040000fa
:04025000fe020000aa
:020000040000fa
:04025400fe020000a6
:020000040000fa
:04025800fe020000a2
:020000040000fa
:04025c00fe0200009e
:020000040000fa
:04026000fe0200009a
:020000040000fa
:04026400fe02000096
:020000040000fa
:100400000f1a21000eff27000e01880000000000d7
:10041000000020000000e000020032000001200087
:100420002002880014000700760007000000e000aa
:1004300003003a00202425000100200002003700bc
:100440000000200001002000810f70000100320038
:100450000f000700000020000000e0000200320052
:1004600000000200000000006250020000000000d6
:100470000040da000000fe00000220000000e00062
:1004800002003200002020009001880000000600d9
:10049000a1028800800478000000eb001f003700f4
:1004a000e284440054a0b4009905ba00e2844400f8
:1004b00054a0b4009906ba00e284440054a0b400e9
:1004c0000006eb00476fde00fd07b200ae018800ba
:1004d000636ce10003003a000ad801000000eb0061
:1004e0000e003700606ce10008003a00004deb00a0
:1004f0000a05e800020039003420ec000af0a000f0
:100500008b05e900f9ff3e00040037006168e10057
:10051000010032000086eb000b00070019c7ba008b
:100520001905ba000e04e00003003a000a00e000da
:10053000dbff3a0000000600fe07b200ae028800b2
:100540008a047800f5ff37000cd0a300e20f4d00bd
:100550001c00390089027800354dba000a05e80010
:10056000020039003420ec000af0a0008b05e900fd
:100570000f003200254dba000a05e80002003900dc
:100580003420ec000af0a0008b05e90008003200de
:100590000c00e0000600320015cdba000a05e800a4
:1005a000020039003420ec000af0a0008b05e900bd
:1005b0008984e80054a0b4000b00e000e2ff3a0098
:1005c000000006009902ba00055d78008b05e9007d
:1005d000f7ff3200c82ade00055d78008b05e900d0
:1005e000f3ff32000c00e000f1ff320019ddba0029
:1005f000eeff3700d20c0400000000000040da00db
:100600000000fe000000050003f0a200889fbe006d
:100610008a9fbe008c1f7800f5000700fc003300a5
:100620006450e1004f0032006420e10052003200cb
:1006300003826c0007003b000905d0000306d000d0
:10064000820f54000c065d000200390002003200e7
:1006500089017800030678008582550004003d007a
:100660000003fd008103fd008502ea008b85420046
:10067000840f720002003b0060001000e080180050
:100680006011b8000005eb007a28e1000a0039008b
:1006900006007800c75ddd00f707b20087807500af
:1006a0002d003700828171000a0178006105600029
:1006b0008180d1000080d3008502e900f9ff3b0072
:1006c000060440008784480002003b0060041400d8
:1006d000e0841c000988a300070032008a817100b1
:1006e00082817100610164008904d1000884d30013
:1006f0008b05e800170037000978a30013003a00c3
:100700000b00e000130034008b05e90008044400ee
:1007100089844c000a4474000978a3000d003a0053
:100720000b00e000070034008b05e90008044400da
:1007300089844c0001003a000b0020000978a300d6
:10074000f7ff32000001eb000200370082817100e8
:100750000a0178006b0007000cf0a70001f0a00070
:10076000b40037006420e10002003a00838f6c007f
:10077000b40033000801be000200be00ad00370027
:10078000889fbe008a9fbe008c1f780098000700db
:100790009f00330003866c006450e1002e0032009d
:1007a0006420e100330032006150e1002f0032008c
:1007b0006120e1003100320085855500eb07b00073
:1007c0000900200008042000050037000804440048
:1007d00089844c000a0031000603430087834b00e4
:1007e0000001530081815b00f8ff33000203be006b
:1007f0000800a0000804440089844c00f6ff39007a
:10080000c639dd00830173000100320013002000af
:100810008904d1000884d3000998a30005003200a0
:100820000800a7000300a0008904d1000884d300b9
:100830008b05e8008904d1000884d3000001eb0097
:100840000281d2002f00070001f0a1000cf0a700e8
:1008500001f0a000770037006420e1007900320049
:100860000801be000200be00f7ff37006120e10072
:10087000740032006000b800f3ff37000000200071
:1008800001f82700f0ff37000001be004300070019
:100890000470a70003f0a10003f8a30013003a00be
:1008a0006509b10010003200090035006928e10037
:1008b0000200350001002800000005000000400093
:1008c000818048008502e900fcff3a000000060034
:1008d000f88f4200050035008100d1000080d30070
:1008e0008502e800fcff3a00000006008000eb00f3
:1008f000000005006011b800690237006011b800ff
:100900009202370081002000618055000b003d00fd
:100910000b00200061fe2f000100e1001d003400eb
:1009200082817100610164008904d1000884d300d0
:100930000000e800faff3a00710020006100640046
:1009400003007000020060000900320061044400ee
:10095000e0844c000988a500050032008b05e80002
:100960006808e10002003a008904d1000884d3003d
:10097000f20f20000258e10005003d00c75ddd00d8
:10098000f907b200898075000800780000000600b1
:100990000bf827008b00780000000500c70ade0076
:1009a000f107b200f50fb20008003200e1cf4200bb
:1009b000020032000170a00024000500810f7000c9
:1009c000010032000408050044000500810f70009a
:1009d00002003a00140005008502e9000000400012
:1009e00081c04800fcff3b000170a000240005000e
:1009f0000004be00e9ff07000003be000405be00be
:100a00000200be00e5ff0700844f750000000600ed
:100a10000200be006450e100050036006420e100e1
:100a2000020036000968a30001003a000800be0079
:100a30000160a0004f0678004f05be004f04be00c5
:100a400000000600f0ff2f00f1ff2700f9ff37003c
:100a5000889fbe008a9fbe008c1f7800e4ff0700bd
:100a6000ebff330003866c006450e1002400320089
:100a70006420e100270032006150e10022003200d2
:100a80006120e100210032008b854200eb07b100bc
:100a90000134b800003ab8000804420089844a00d2
:100aa000013ab8000030b8008880400009014a00cf
:100ab000040033000000400081804800020149002a
:100ac0008b05e900c909dd008301700001003200d7
:100ad00013002000c814de004814dd004709de00c2
:100ae0001200b200c808de000884700085ff07000d
:100af00001f0a1000cf0a70001f0a000cdff37002d
:100b00006120e100cfff32000801be000200be00fc
:100b1000f7ff37006150e100fcff3a00c9ff3700e2
:100b20000001eb0038023700889fbe008a9fbe009c
:100b30008c1f78000004be0098ff07000478a30013
:100b400026003a006120e1002500320009f8a300e8
:100b500025003a006420e10021003200f507b100d1
:100b60000508a30002003200000040008180480018
:100b70006044b80003102000020020000000400084
:100b8000818048000805440089854c000a05410021
:100b90008b8549000a0550008b85580003003300ff
:100ba0000a00be0002047400838474008301d10033
:100bb0000281d300830f7100f0ff3a008904d10055
:100bc0000884d3006001490082017800c1adde00d5
:100bd000fb07b0004bff070096ff37000960a0003d
:100be0000800be0093ff37001202200052838800e5
:100bf000f0ff2f00f1ff27008eff37001400fa00ee
:100c0000889fbe008a9fbe008c9fbe000005be006c
:100c10000206be00680047000c90be000a90be00ad
:100c20005f0107006400e1001a00320016003e0078
:100c30006100e1001a0032006e049000fe04900092
:100c40000e0b90009e0b90006011b8009e05900066
:100c50000b38b100d5012000828171006101640070
:100c60008703d1000683d3008984d3000884d3008e
:100c70008502e900f8ff3a0022ff07000df0a70007
:100c800001f0a00081013700f1ff2700f0ff2f00e5
:100c90007e01370001f8270000002000f7ff370031
:100ca0006000b800f5ff37006022b800060220009f
:100cb0000000d0008180d2000482d2008582d20060
:100cc0000000a0000202520083825a00030031009b
:100cd0000202420083824a000000a1000603e900ec
:100ce000f3ff3a0000000600efff07000400be001b
:100cf00000000600889fbe008a9fbe0030044200ac
:100d0000b0844a0030054b0090854b006000b10074
:100d10000898be000a90be000440e10005c8e1004a
:100d200006d0e10007d8e100020031006800400071
:100d30001008e8004f05be004f04be00000006008a
:100d4000889fbe008a9fbe003004be002005be0002
:100d50000418540005985c0006185d0007985d00b3
:100d6000110020000440e10005c8e10006d0e100c8
:100d700007d8e100010039008000eb001088100066
:100d80004f05be004f04be00000006001200fa002e
:100d9000889fbe008a9fbe008c9fbe00e0b79f0068
:100da000f1b79f0082bf9f0093bf9f000605be0062
:100db0000404be000000eb00d0b79f00c0b79f0046
:100dc000b0b79f00a0b79f0090b79f000006eb0050
:100dd0005fb19700cfb09700820141003fb097000c
:100de0000200e00004003d00370007007e8057004d
:100df000c0ff070003003700330007007e80570064
:100e0000cfff0700dfb697000d00e0000c003500b3
:100e10006fb29700ffb297000fbb97009fbb970080
:100e200010002000010020006011b80000027200d4
:100e30008182720002037300838373001b0007002a
:100e40000c06e80001042000810f5600e0ff3a0084
:100e50000d00e00004003d000802be000a03be00d1
:100e60007e805700a3ff07005fa897000000e00006
:100e700005003a001fb29700afb297003fb397004a
:100e8000cfb39700090007006fb09700ffb097003d
:100e90000fb997009fb997004f06be004f05be00df
:100ea0004f04be000080fa000000060001000700a9
:100eb00000000600a4b79f00b5b79f00c6b79f000b
:100ec000d7b79f00000006004f09de008281710045
:100ed000b3b79f004f01de00818040008280700028
:100ee000a1b79f008fb097004f09de0000004000bf
:100ef0000200700090b79f007fa897004f01de00ae
:100f0000818040008280700081b79f000d00070043
:100f10004f3ade000000400004007000f0af9f0078
:100f2000080007000402420085824a0006034b00c5
:100f300087834b00dfff07000802be000a03be00e4
:100f4000000006002fb29700bfb297004fb3970082
:100f5000dfb3970000000600881f7800180020000b
:100f6000881f780089ff07008f87e9004f04780009
:100f700000000600801feb0084ff07008f87e90058
:100f800000000600889fbe008a9fbe00e00f500050
:100f9000e08f5800e00f5900e08f59000c003d0031
:100fa0006044b8006055b8000000540081805c00c7
:100fb00002015d0083815d0018002000150007001c
:100fc00008003d00180007000004eb000500370092
:100fd0000004eb000f00070002003d0012000700b4
:100fe00018002000dcff07000800e00006003200c7
:100ff0006022b8006033b8000000520081805a00bf
:1010000002015b0083815b004f05be004f04be0000
:1010100000000600e00f5200e08f5a00e00f5b0076
:10102000e08f5b00000006006044b8006055b80027
:101030000402540085825c0006035d0087835d0026
:1010400000000600889fbe008a9fbe008c1f7800ab
:10105000e00f5000e08f5800e00f5900e08f59007a
:101060000d003d006044b8006055b8000000540019
:1010700081805c0002015d0083815d001c00200016
:101080000820e10009a8e1000ab0e1000bb8e10086
:101090000d003d00080037000006eb00e00f520095
:1010a000e08f5a00e00f5b00e08f5b0006003d0020
:1010b0006044b8006055b8000402540085825c00aa
:1010c00006035d0087835d00aaff07000c00e000b7
:1010d000060032006022b8006033b8000000520001
:1010e00081805a0002015b0083815b004f0678001b
:1010f0004f05be004f04be0000000600889fbe00e2
:101100008a9fbe008c1f78000006eb00e00f5000a5
:10111000e08f5800e00f5900e08f590007003d00b4
:101120006044b8006055b8000000540081805c0045
:1011300002015d0083815d001c002000e00f520071
:10114000e08f5a00e00f5b00e08f5b0007003d007e
:101150006044b8006055b8000402540085825c0009
:1011600006035d0087835d000c00a2000f010700ed
:101170000c00e000060032006022b8006033b800c6
:101180000000520081805a0002015b0083815b00f5
:101190004f0678004f05be004f04be000000060059
:1011a000800078005002be005003be004439de00cb
:1011b000f700b200f37f2000030161000900320054
:1011c0000218e10016003a008501720083017300e5
:1011d000838173000008200015003a0040002000c1
:1011e000130037008501720083017300838173004f
:1011f00005003a0004a8be0006a8be0010002000aa
:101200000b0037000201e9000402420085824a0017
:1012100006034b0087834b000748a300f9ff320009
:101220000740a00004a8be0006a8be0020002000c1
:1012300080009800920098000000060068044700b3
:101240000294be000094be00fc0447008694be00d9
:101250008494be0009007800d1ff070008007800e0
:10126000cfff070099007800814f70000b003b0012
:101270000800be001b0107004f00b100030037004b
:10128000f3ff2700f2ff2f006110b9004f06be00e8
:101290004f05be004f04be000080fa0000000600ab
:1012a000889fbe00008270000402710004827100f9
:1012b0002400320036432000c50020008383cf0085
:1012c0000a0039000541b1008283cf0007003900d0
:1012d0000541b1008183cf00040039000541b10010
:1012e0008083cf00010039000541b10085c3530060
:1012f0006022b800120032000a003b0084827200b3
:10130000610260008301d1000281d3008180d3009b
:101310000080d3000603e8008743e800f7ff3a00a7
:1013200007003700000040008180480002014900aa
:10133000838149000603e9008743e900f9ff3a0089
:10134000bc0007004f04be0000000600889fbe00de
:101350008a9fbe0000827000040271000482710046
:10136000260032000004be000200be006011b8007a
:101370006b092000950220000182cf000a0039008d
:101380000541b1000082cf00070039000541b100de
:101390000982cf00040039000541b1000882cf0066
:1013a000010039000541b10005425200120032002f
:1013b0000a003b0082817100610164008100d1005c
:1013c0000080d3008984d3000884d3008b05e80013
:1013d0000442e800f7ff3a00070037000804440021
:1013e00089844c0000004800818048008b05e9009a
:1013f0000442e900f9ff3a0042fd07004f05be0034
:101400004f04be0000000600889fbe008a9fbe00f9
:101410008c9fbe00820578000004be005ffd0700bf
:101420000800be006420e1000700390002003a0015
:10143000f1ff2700f0ff2f000160a0001202200042
:1014400052838800550037006120e10003003a0014
:101450000b00a70001f823005000370001f0a100a5
:101460000200210093642400ac0007000800be00c5
:1014700004003500b2fd2000930c2400cd000700cd
:101480000004be000005eb000b00a6004f0dde00bf
:1014900001f0a1000004be0032982f0023ea2300cf
:1014a0006bfd07000001eb0003f023000b00a70019
:1014b00003f8230055fc07009a0007000000a7006e
:1014c0000a00a200b80007000b00e0000300320091
:1014d0000200200003f023004bfc070001f0a200f3
:1014e0000006be00020020009304240058fd0700ff
:1014f0000801be0045fc0700809fbe000c00be0036
:1015000022a22a00d3a7230051fd07004f01be00ed
:101510003efc07000004be0001f0a1000200200014
:10152000039823007d0007000800be001900350065
:101530000001be0046fd07000006be00b2c529003e
:10154000e362230042fd070022222b00f3942b00cc
:101550002efc07000c01be003dfd0700e2732800d1
:1015600083c0230029fc07000c01be0038fd0700e2
:1015700042aa2a00a3e22b0024fc07000c01be00b3
:1015800033fd07000801be0031fd07000801be0061
:101590001efc07000a00a70001f0a2004f06be00d3
:1015a0004f05be004f04be0000000600889fbe002d
:1015b0008a9fbe008c9fbe000404b8000506b800d8
:1015c0008904460060854e000606b8000a054600fc
:1015d000e0854e000706b8008b054600040eb800f3
:1015e000890446000a854e00e0854d00050eb800ce
:1015f0000a0546008b854e00060eb8008b05460096
:101600000416b8000a0546008b854e000516b80082
:101610008b054600041eb8008b0546000800be007e
:101620000a01be004f06be004f05be004f04be00bb
:101630000000060018002000570020000804530096
:101640000d003d000600200097fc2f000740e10040
:101650001e00340084827200610260008301d100a8
:101660000281d3008180d3000080d3000804e80009
:10167000f8ff3a0047002000610460000504740090
:10168000040464000d00320061004000e080480066
:1016900060014900e081490003b8a500070032005d
:1016a0000603e8006538e10004003a008301d10038
:1016b0000281d3008180d3000080d300f87f200016
:1016c0000830e10003003500080378006000b8002e
:1016d0006011b8004433dd00f300b20083017300f1
:1016e00000000600e48240001078a30007003200ea
:1016f000640240001178a3003400be001401be0053
:10170000040032000330a700000006003500be00d0
:101710001501be000330a0000000060014002000e8
:10172000750037000001be009cfc07000470a70094
:1017300003f0a1006509b100160032000d0035006c
:101740006828e10006003500f0ff2f00f1ff2700b8
:101750000300e00013003b0001002800000005002a
:1017600000004000818048008502e900fcff3a004b
:1017700008003700f88f420002003c008000eb00b8
:10178000000005008100d1000080d3008502e80040
:10179000fcff3a000300e00002003b006000100084
:1017a000e0801800000006004f89de00820178000a
:1017b0006c0037000400200000003700889fbe0046
:1017c0008a9fbe008c1f78004f26dd0088fc070032
:1017d0008ffc33006120e100430032006250e100e1
:1017e00041003e003e0039006420e1003c00320030
:1017f000058255000f003b000402e80038003a0063
:10180000800f5300818f5b00350034000800be005c
:1018100003f0a10001f0a60003f0a0000cf0a70067
:101820007afb070083fc37000603430087834b00e5
:101830000c4646000005530081855b000200330022
:101840000a03be000c00a0000402e900f6ff3b0002
:10185000850578000602430087824b0004003a00a9
:101860006000b80009f0a70001f0a00071fc37008b
:101870000002520081825a000704e0000400330095
:101880000603430087834b008b05e900faff37000e
:10189000090578000604be000203be006011b8000e
:1018a00018fc0700e00f5200e08f5a0007003500d7
:1018b00002003c000c08a300040032000601be0038
:1018c00003f0a0000cf0a70050fb07000a85680099
:1018d00001f0a1000af0a70001f0a00055fc3700bc
:1018e0000800be0053fc3700100220000cf0a600d8
:1018f0005083880053fc3700889fbe008a9fbe003b
:10190000841f78003afc07004f0078001100330074
:10191000f0ff2f00838f6c0006003b00040565007c
:101920000a00a7000800370009f0a60010002000f8
:1019300008003700820f5400838f5c0003003900d9
:101940001000200001003e000000200009f0a70068
:101950000000ea004f05be004f04be000000e0009a
:1019600000000600881f7800030478000300e000f0
:1019700007003d0060001000e080180060011900c1
:10198000e081190002003b0001f02d000300370048
:101990006efe070008f0a70001f0a0004f047800d9
:1019a00000000600881f7800020478000801780013
:1019b000d2010700080040004f0478000000060034
:1019c0000000fa00881f780000047800ea815700c0
:1019d0003fb997008800780020cd2000070007005d
:1019e0000000e0000200350000044400004ceb0061
:1019f0004f0478000080fa00000006006200fa0040
:101a0000889fbe008a1f7800000578008104780056
:101a1000020478008300780080f92f000f00400056
:101a2000bc0307009a979f00a9979f000000eb0056
:101a3000b09f9f001885fb008a04fb000a05ea009e
:101a40004f55de0050022000808f54000d00320000
:101a5000e10f55000b003a000a0178008800780079
:101a60002f9097009f91970003000100a0979f007f
:101a70000000e0008e0032003f9897000000e80070
:101a8000b09f9f000a04440050022000808f540041
:101a9000040032000900e000e6ff3a003f9897009a
:101aa000840037000000eb00909f9f00809f9f0004
:101ab000f0979f00e0979f00d0979f00c0979f00ee
:101ac00007003700a118210001005000000040006d
:101ad000e1172100808040005f989700110070009e
:101ae000d09f9f008804780009047800384578006a
:101af0008a00fb00a0182100870107000000e00019
:101b0000f0ff3a00a1c2b300814f55000e003a0029
:101b1000cf8897000180e900c08f9f0010007800f7
:101b2000c09f9f000000e00005003d000000ea00ab
:101b3000c09f9f005f9897000020a000d09f9f004b
:101b40000904e8000f003700c09f9f000000eb0071
:101b500005003700f2ff2700820f5000020032001c
:101b6000ea00b90000804000090478008804780089
:101b7000b900fb000103b100e98f5000f5ff36000a
:101b8000c09f9f00e0c2b300984f100002003200d7
:101b90000080eb0019003700a0c2b300d84f10003e
:101ba00007003a00cf8897000180e900c08f9f00ae
:101bb00010007800a09f9f000804e8001000370084
:101bc0000000eb00a09f9f00880078000500370010
:101bd000f3ff2700830f500002003200ea00b90033
:101be0000000410001047800880078003101fb000a
:101bf0000203b100e90f5100f5ff3600a09f9f00de
:101c0000984478008900fb0060172100420107001a
:101c10000000e000020032000804e8000100370084
:101c20008044eb00c97f9f0080c6b30080cf540082
:101c300004003a0098cf14000a003a0066405000b1
:101c400006003700c0c6b30080cf540005003a003c
:101c500098cf140003003a0065404000c07f9f0009
:101c60000804e8001801fb00e3fb2f008f8141000e
:101c700081f92f008f804000a0f92f000f00400055
:101c8000100007000000e00009003a00e1fb2f000f
:101c90008f804000a0f92f000f0040006102070074
:101ca0000000e000020035000804e80061ff370092
:101cb0000080eb004f0578004f04be000080fa0062
:101cc00000000600881f7800e4c6b300844f51006e
:101cd000bc00320010003c006b425200844f5100a7
:101ce0001800320005003c0054c2b300844f51007c
:101cf000f400320084c5b3000f00370044c6b300bf
:101d0000844f51001500320065424200844f51005b
:101d1000ef003a001100370004c7b300844f5100b0
:101d2000db0032005700350065424200844f51000d
:101d30005400320063424200844f5100e4003a00f4
:101d4000500037001181e90082087800f00090000f
:101d50008181410092497800e300370020629000c1
:101d6000c5c6b300854f520007003a0091027800c3
:101d700064825200840878001402be004fabde007b
:101d8000860378001100370015c7b300854f520055
:101d900003003200a5c6b300854f520006003a008a
:101da0009102780068825200840878005403be00d3
:101db0004402be00050037001182e9008408780063
:101dc00014027800cfa2de00612bb9000498be0097
:101dd0000690be00a060900088c6b30088cf500077
:101de0000d00320028c6b30088cf500004003a002e
:101df0000402fb00cfa2de00612bb900080037000f
:101e000048c7b30088cf5000030032006644440046
:101e100088cf500004003a00cfa2de00612bb90049
:101e20000498be000690be003002be002003be0033
:101e3000f0009000e00f5200e08f5a00e00f5b00ce
:101e4000e08f5b0003003d0001824100d5c2b3007a
:101e50000a003700001290000418a30003003200ab
:101e600001824100b5c2b300040037000408a3009a
:101e70004f0032000182410005c2b300054a7800dc
:101e80004900370020629000c5c6b300854f52005c
:101e900006003a00910278006482520084087800bb
:101ea0001402be006033b8001100370015c7b3003c
:101eb000854f520003003200a5c6b300854f520083
:101ec00006003a0091027800688252008408780087
:101ed0005403be004402be00050037001182e90031
:101ee00084087800140278008002eb006033b800a8
:101ef0000498be000690be00a060900088c6b300a3
:101f000088cf50000d00320028c6b30088cf5000a3
:101f100004003a000482fb008002eb006033b8004a
:101f20000800370048c7b30088cf500003003200d4
:101f30006644440088cf500004003a008002eb0061
:101f40006033b8000498be000690be008010900078
:101f50000138a300160032003002be002003be008c
:101f6000e00f5200e08f5a00e00f5b00e08f5b0053
:101f70000f00320081c7b300814f510003003200cf
:101f800081c5b300814f510009003a00f000900074
:101f90000182410005c3b300054a78008100e800d2
:101fa00001824100024a78008100e8007100980037
:101fb000f000900081814100630098008240780029
:101fc0003e003700a0619000c4c6b3001181e90053
:101fd00084cf5100220032000a003c0064425200cb
:101fe00084cf51002500320004c2e80084cf5100a4
:101ff000130032006842520084cf51001e003a00a4
:102000000a00370044c7b30084cf51001b003200e0
:102010006642420084cf51001800320069425200eb
:1020200084cf510014003a00050037008208780080
:102030009200780040589000804878002c003700cb
:102040008208780092007800600a9000cfa2de003b
:10205000612bb9008498be008690be002400370032
:10206000820878009200780060099000cf91de002d
:102070008288be001e0037001181e90082087800c6
:1020800092007800600890008008780018003700ff
:102090001181e9008208780012027800cfa2de00e8
:1020a000612bb9000498be000690be00f0009000bd
:1020b000818141006300980081c7b30022000700be
:1020c0000b003700f00090008181410005003700cf
:1020d000f0009000818141000204e00001003a001c
:1020e00052c2b300824978008100e8007100980074
:1020f0000000eb004f04780000000600800178002b
:1021000002003700b15978000201e9000200e00046
:10211000fcff3a0000000600020037000304e00064
:10212000060032000001780002007800b04178001b
:1021300081cf5100f9ff3a00010037000001eb00a8
:102140000200780000000600fc874700889fbe0060
:102150008a9fbe008c9fbe008e1f7800000678000c
:1021600080c5b30080cf50000a00320077404000a5
:1021700080cf50000a0032006940400080cf5000fc
:102180000b0032005014210080bf9f00ae002000e1
:102190000a0037004213210082bf9f00060037006b
:1021a0005314210083bf9f008e00200003003700de
:1021b0005414210084bf9f000e0120003c02be0089
:1021c0002c03be000605be000404be0040c6b300da
:1021d00080cf5000030032006540400080cf5000a7
:1021e0000b003a00e00f5200e08f5a00e00f5b0056
:1021f000e08f5b0006003d006000b8006011b80091
:10220000040450008584580006055900878559004c
:10221000e80f57000400320040002000f00f570084
:102220003a003a000100370030002000e00f54006f
:10223000e08f5c00e00f5d00e08f5d0004003a007d
:10224000dc0890008d0120000100e0000700320052
:102250008e00e900888060008fba9700818042007c
:1022600091407800f1ef9f007d0120008000780010
:102270008100e900050033008b05d1000a85d300f9
:102280008984d3000884d300f9ff3700089ebe007c
:102290000a96be00130037008d06e9008e00e900a3
:1022a000848060000fb997008100410011417800df
:1022b00083fd2f008d81410082f779008001780035
:1022c0008301e900050033008783d1000683d30032
:1022d0008582d3000482d300f9ff3700049ebe003c
:1022e0000696be003c02be002c03be00e00f52006a
:1022f000e08f5a00e00f5b00e08f5b00910034003c
:102300000d00e000e4ff3c008e0037002c609000e0
:1023100081c6b300814f50000b00320006003c0024
:102320000004e00008003200e6c05000814f500079
:1023300052003a0004003700c1c6b300814f50007c
:102340004e003a00230037000800e00004003a0085
:102350005c0890008d0120000000e00007003200c2
:10236000110009000e84d8000fba97000100420046
:1023700010407800f0ef9f007d012000110009005f
:102380000e84d8000b003700110009000e04d8009d
:102390008d06e9008e81b900020454008fb89700c1
:1023a000088440009841780082fd2f000d01410013
:1023b00083777900000478000800e0000200320012
:1023c0000d00e000f0ff3c00cfc4de00614db9001d
:1023d00027003700e00f5400e08f5c0004003a0053
:1023e0005c0890008d0120000000e0000800320031
:1023f0006171b9000800be003bfa07000fba9700f0
:102400008000420091407800f1ef9f007d012000a4
:102410006171b9000800be0023fa07000c00370004
:102420006171b9000800be003c0107008d06e9009b
:1024300080f1b900020454008fba9700088442006a
:102440009841780082fd2f000d01410083777900cb
:102450000004be00e00f5000e08f58000200320080
:102460000d00e000eeff3c004fcdde008a05780055
:10247000089ebe000a96be0032003700e00f5400ee
:10248000e08f5c00e00f5d00e08f5d0004003a002b
:102490005c0890008d0120000000e0000a0032007e
:1024a0006172b900612bb9000800be000a01be00cc
:1024b000b0fa07000fba9700800042009140780000
:1024c000f1ef9f007d0120006172b900612bb9001e
:1024d0000800be000a01be009ffa07000e00370088
:1024e0006172b900612bb9000800be000a01be008c
:1024f000a4fa07008d06e90080f2b9000404540034
:102500008fba9700088442009842780084fd2f001b
:102510000d02420085777a00009ebe000296be0042
:102520003c04be002c05be00e00f5400e08f5c00b0
:10253000e00f5d00e08f5d00020034000d00e00060
:10254000e7ff3c00e80f570010003a000c10900025
:102550000038a3000d003200f78f560006003e0041
:1025600080fd2f000d004000ef40780000c3b30055
:1025700080cf50000500320002c3b30071fd2f0070
:102580008d8040008d06e90082f778007881160082
:10259000120e98006c00900083fd2f008f81410087
:1025a0008d804100d5fe07001c089000dc089000db
:1025b000810f500006003d0000805000000e980082
:1025c0000c1090000040a100001698000f0037008a
:1025d0000100e0000d003d008c109000f4806000d0
:1025e000f08f500009003a007c099000fc00900038
:1025f000810051000c099000828050000080500042
:102600004240a90001003400000e98004f077800f6
:102610004f06be004f05be004f04be00cf01b10003
:10262000000006000400fa00889fbe008a9fbe00da
:102630008c1f78000004780001067800f80d9000e7
:10264000780090008085550008089000808555002e
:102650001808900080855500280890008085550056
:102660003808900080855500480890008085550006
:102670000002220090bf9f0000032300a0bf9f0024
:10268000081090000028a30015003a000b00e0009d
:10269000130034000b0578008a047800e20f55001f
:1026a0000100360029002000c801900009017800cf
:1026b000ee8057005800900003000100500498007d
:1026c0000000e0008c003200680890000900400023
:1026d000600c9800090555004240a900eeff3c003f
:1026e000780190000200e0000c003400c801900066
:1026f0008c007800580090000300010050049800fe
:102700008080eb000000e0007c003200e8089000d0
:102710007800900000804000600c9800880c9000c9
:102720000900e0001100340009057800e28f540030
:10273000010036002a002000c80190000a0178003c
:10274000ec805700580090000300010050049800ee
:102750000000e00068003200680890000a004000b5
:10276000600c98008a845400edff3700180990002f
:102770000200e0000c003400c8019000e800900066
:102780005800900003000100500498008080eb0086
:102790000000e00059003200e8089000180890009e
:1027a00000804000600c9800a80c90000900e00038
:1027b0001100340009057800e28f54000100360052
:1027c0002a002000c80190000a017800ec80570020
:1027d0005800900003000100500498000000e00041
:1027e00045003200680890000a004000600c980024
:1027f0008a845400edff3700380990000200e000a1
:102800000e003400e800900018089000808040001e
:10281000c801900058009000030001005004980087
:102820008080eb000000e00034003200e8089000f7
:102830003808900000804000600c9800c80c9000a0
:102840000900e0001100340009057800e28f54000f
:10285000010036002a002000c80190000a0178001b
:10286000ec805700580090000300010050049800cd
:102870000000e00020003200680890000a004000dc
:10288000600c98008a845400edff37000810900017
:102890008000eb000028a300180032000b00e000cd
:1028a000160034008b04780009057800e28f54008c
:1028b000010036002a002000c80190000a017800bb
:1028c000ee8057005800900003000100500498006b
:1028d0000000e00008003200680890000a00400094
:1028e000600c98008a8454004240a900eeff3c002e
:1028f0008000eb00010037008080eb0001007800d1
:102900004f0678004f05be004f04be000080fa005d
:10291000000006000108780000000600839f6800a0
:102920000100e00002003d0060001000e08018009f
:102930000300e00002003d0060011100e081190089
:10294000d9f807004f00e00002003b0060001000d3
:08295000e08018000000060001
:020000040000fa
:1029580025300000326c0000753a00002530000078
:10296800326c0000753a000025300000336c00001e
:102978007500000001000000256c000075200000b3
:102988006973000020500000726900006d000000ab
:020000040000fa
:102998001000fa00604f9800714f98006e48900040
:1029a80004030700000f78006e4890009c0707009a
:1029b800100798006e489000df080700200798006d
:1029c8006e489000220a0700300798006e48900071
:1029d800650b0700400798006e489000c70607007f
:1029e800500798006e489000b00c070060079800e8
:1029f8007e4890000080fb00cf80de00920020001f
:102a080003002000820f5000838f580095013e007c
:102a180000060100090037005e0037003200370069
:102a280087003700b100370006013700da003700a9
:102a38002f01370059013700830137006e48900095
:102a4800c10107000041eb00804078004e00900073
:102a5800650c07006e489000bb01070012c0b30068
:102a6800804078001e0078005f0c07006e489000d8
:102a7800b50107000041eb00804078001e0090007f
:102a8800590c07006e489000af0107000041eb00a9
:102a9800804078002e009000530c07006e4890008c
:102aa800a90107000041eb00804078003e0090003b
:102ab8004d0c07006e489000a30107000041eb0091
:102ac800804078005e009000470c07006e48900038
:102ad800b00c07000041eb00804078006e009000c9
:102ae800410c0700600137006e489000960107000e
:102af8000041eb00804078004e0090003a0c07003f
:102b08006e4890009001070012c0b3008040780022
:102b18001e007800340c07006e4890008a010700f8
:102b28000041eb00804078001e0090002e0c07004a
:102b38006e4890008401070012c0b30080407800fe
:102b48002e009000280c07006e4890007e010700b8
:102b58000041eb00804078003e009000220c070006
:102b68006e489000780107000041eb008040780033
:102b78005e0090001c0c07006e489000850c070052
:102b88000041eb00804078006e009000160c0700b2
:102b9800350137006e4890006b0107000041eb00db
:102ba800804078004e0090000f0c07006e4890009f
:102bb8006501070012c0b300804078001e0078004d
:102bc800090c07006e4890005f0107000041eb0008
:102bd800804078001e009000030c07006e489000ab
:102be800590107000041eb00804078002e0090005a
:102bf800fd0b07006e4890005301070012c0b30098
:102c0800804078003e009000f70b07006e48900067
:102c18004d0107000041eb00804078005e00900005
:102c2800f10b07006e4890005a0c07000041eb00ba
:102c3800804078006e009000eb0b07000a01370017
:102c48006e489000400107000041eb00804078008a
:102c58004e009000e40b07006e4890003a01070010
:102c68000041eb00804078001e007800de0b070072
:102c78006e489000340107000041eb008040780066
:102c88001e009000d80b07006e4890002e01070028
:102c98000041eb00804078002e009000d20b070026
:102ca8006e489000280107000041eb008040780042
:102cb8003e009000cc0b07006e48900022010700f0
:102cc8000041eb00804078005e009000c60b0700d2
:102cd8006e4890002f0c07000041eb008040780000
:102ce8006e009000c00b0700df0037006e489000b0
:102cf800150107000041eb00804078004e0090006d
:102d0800b90b07006e4890000f0107000041eb0067
:102d1800804078001e007800b30b07006e489000d2
:102d2800090107000041eb00804078001e00900078
:102d3800ad0b07006e489000030107000041eb004f
:102d4800804078002e009000a70b07006e48900086
:102d5800fd0007000041eb00804078003e00900035
:102d6800a10b07006e489000f700070012c0b300df
:102d7800804078005e0090009b0b07006e48900032
:102d8800040c07000041eb00804078006e009000c2
:102d9800950b0700b40037006e489000ea00070062
:102da80012c0b300804078004e0090008e0b0700e0
:102db8006e489000e40007000041eb008040780076
:102dc8001e007800880b07006e489000de000700a0
:102dd8000041eb00804078001e009000820b070045
:102de8006e489000d80007000041eb008040780052
:102df8002e0090007c0b07006e489000d200070060
:102e08000041eb00804078003e009000760b070000
:102e18006e489000cc0007000041eb00804078002d
:102e28005e009000700b07006e489000d90b0700f9
:102e38000041eb00804078006e0090006a0b0700ac
:102e4800890037006e489000bf00070012c0b30029
:102e5800804078004e009000630b07006e48900099
:102e6800b900070012c0b300804078001e00780047
:102e78005d0b07006e489000b30007000041eb00af
:102e8800804078001e009000570b07006e489000a5
:102e9800ad0007000041eb00804078002e00900054
:102ea800510b07006e489000a70007000041eb0097
:102eb800804078003e0090004b0b07006e48900061
:102ec800a10007000041eb00804078005e00900000
:102ed800450b07006e489000ae0b07000041eb0061
:102ee800804078006e0090003f0b07005e003700be
:102ef8006e4890009400070012c0b300804078002c
:102f08004e009000380b07006e4890008e000700b6
:102f180012c0b300804078001e007800320b070012
:102f28006e489000880007000041eb008040780060
:102f38001e0090002c0b07006e48900082000700ce
:102f48000041eb00804078002e009000260b07001f
:102f58006e4890007c00070012c0b30080407800e3
:102f68003e009000200b07006e4890007600070096
:102f78000041eb00804078005e0090001a0b0700cb
:102f88006e489000830b07000041eb0080407800fa
:102f98006e009000140b0700330037006e48900055
:102fa8006900070012c0b300804078004e0090000e
:102fb8000d0b07006e4890006300070012c0b300b5
:102fc800804078001e007800070b07006e489000cc
:102fd8005d0007000041eb00804078001e00900073
:102fe800010b07006e4890005700070012c0b3009d
:102ff800804078002e009000fb0a07006e48900081
:10300800510007000041eb00804078003e0090002e
:10301800f50a07006e4890004b0007000041eb00de
:10302800804078005e009000ef0a07006e4890002c
:10303800580b07000041eb00804078006e009000bc
:10304800e90a0700080037006e489000510b070096
:1030580012c0b300804078006e009000e20a0700ba
:1030680001003700000000000080fa0000000600a0
:103078000200fa00881f7800004f78001147980076
:103088001e4090000004e000090032001e40780055
:103098002d000700004478001e407800d103070087
:1030a80012c0b30088407800cf0a07000800370034
:1030b8001e40780024000700004478001e40780075
:1030c800c80307000041eb0088407800c60a0700e3
:1030d8004f0478000080fa00000006000200fa00a1
:1030e800004f78001e407800090007000080fb00b0
:1030f8000000e9004f00de000040780080407800c2
:103108001e407800daff07000080fa000000060081
:103118000200fa00881f7800004f78001e407800ef
:1031280009000700004478001e4078006702070085
:103138001000780088407800ce0a07004f04780015
:103148000080fa00000006000200fa00004f780034
:103158001e80fb006101b9000080eb008080eb005d
:10316800020040008380480032062000030020004f
:10317800820f5000838f58000b013e0000060100ab
:103188000701370008013700d3003700d4003700a3
:10319800d5003700960037009700370098003700b1
:1031a80099003700f0003700f1003700f2003700cf
:1031b800fd003700f2003700fb003700fa00370047
:1031c80053003700ca003700cb00370072003700c1
:1031d8006f0037006c003700690037006600370061
:1031e800630037006e0037006f0037005800370063
:1031f80059003700ec003700eb0037006c0037004f
:103208006d0037006e0037006f003700e6003700aa
:10321800e500370040003700c9003700c600370016
:103228006b0037006c0037006d0037006e00370008
:10323800dd003700dc003700990037009a003700be
:10324800b7003700b8003700b3003700b0003700c8
:10325800b7003700d4003700d3003700c00037006c
:10326800bd0037002e0037002f0037003000370030
:1032780031003700cc003700650037006a0037009e
:10328800c9003700360037003700370078003700ac
:10329800790037007a0037007b0037006400370078
:1032a8005d0037005e003700bf003700620037005e
:1032b8006300370064003700750037007600370078
:1032c8006300370064003700650037006600370088
:1032d800b5003700b4003700890037008a0037008e
:1032e8009b0037009800370015003700160037009c
:1032f8006f00370070003700a7003700a2003700c2
:10330800a30037006e0037006f00370070003700e9
:103318000040eb00a500370010c0b300a300370041
:1033280020c0b300a100370030c0b3009f003700b1
:1033380040c0b3009d00370050c0b3009b00370069
:1033480060c0b3009900370070c0b3009700370021
:1033580090c0b30095003700a0c0b30093003700b9
:10336800e0c0b30091003700f0c0b3008f00370011
:103378000040eb008d00370010c0b3008b00370011
:1033880020c0b3008900370030c0b3008700370081
:1033980040c0b3008500370050c0b3008300370039
:1033a80060c0b3008100370070c0b3007f003700f1
:1033b80080c0b3007d00370090c0b3007b003700a9
:1033c800a0c0b30079003700b0c0b3007700370061
:1033d800c0c0b30075003700d0c0b3007300370019
:1033e800e0c0b30071003700f0c0b3006f003700d1
:1033f80010c0b3006d00370020c0b3006b00370069
:1034080030c0b3006900370040c0b3006700370020
:10341800c0c0b30065003700d0c0b30063003700f8
:10342800e0c0b30061003700f0c0b3005f003700b0
:103438000040eb005d00370010c0b3005b003700b0
:1034480020c0b3005900370030c0b3005700370020
:1034580040c0b3005500370050c0b30053003700d8
:1034680060c0b3005100370070c0b3004f00370090
:1034780080c0b3004d00370090c0b3004b00370048
:10348800a0c0b30049003700b0c0b3004700370000
:10349800c0c0b30045003700d0c0b30043003700b8
:1034a800e0c0b30041003700f0c0b3003f00370070
:1034b8000040eb003d00370010c0b3003b00370070
:1034c80020c0b3003900370030c0b30037003700e0
:1034d80040c0b3003500370050c0b3003300370098
:1034e80060c0b3003100370070c0b3002f00370050
:1034f80080c0b3002d00370090c0b3002b00370008
:103508000040eb002900370010c0b3002700370047
:1035180020c0b3002500370030c0b30023003700b7
:1035280040c0b3002100370050c0b3001f0037006f
:1035380080c0b3001d003700c0c0b3001b003700b7
:10354800d0c0b300190037000040eb001700370067
:1035580010c0b3001500370020c0b30013003700b7
:1035680030c0b3001100370060c0b3000f0037004f
:1035780070c0b3000d00370080c0b3000b003700e7
:1035880090c0b30009003700c0c0b300070037007f
:10359800d0c0b30005003700e0c0b3000300370017
:1035a800f0c0b300010037000040eb000080fa00d3
:1035b800000006000200fa00004f78001e40780064
:1035c800f14f50002a00320060c2b3009e407800dc
:1035d80080cf500026003200a0c3b3009e40780080
:1035e80080cf500022003200b0c3b3009e40780064
:1035f80080cf50001e003200c0c3b3009e40780048
:1036080080cf50001a003200d0c3b3009e4078002b
:1036180080cf500016003200b0c5b3009e4078003d
:1036280080cf500012003200c0c5b3009e40780021
:1036380080cf50000e0032001e407800fc4f500032
:103648000b0032001e407800fd4f50000800320089
:1036580020c4b3009e40780080cf500004003200a0
:1036680030c4b3009e40780080cf500002003a007a
:1036780000e02000130137001e407800f94f500089
:10368800350032001e407800f84f500032003200fa
:103698001e407800f74f50002f0032001e4078007f
:1036a800f64f50002c0032001e407800f54f5000b5
:1036b800290032001e407800f44f500026003200e6
:1036c8001e407800fa4f5000230032001e40780058
:1036d800fb4f50002000320000c2b3009e4078002b
:1036e80080cf50001c00320010c2b3009e4078000a
:1036f80080cf50001800320020c2b3009e407800ee
:1037080080cf50001400320030c2b3009e407800d1
:1037180080cf50001000320090c2b3009e40780065
:1037280080cf50000c003200a0c2b3009e40780049
:1037380080cf500008003200b0c2b3009e4078002d
:1037480080cf500004003200c0c2b3009e40780011
:1037580080cf500002003a0000e12000d900370075
:103768001e407800e64f5000190032001e407800d5
:10377800e74f5000160032001e407800e84f500016
:10378800130032001e407800e94f5000100032004c
:10379800f0c3b3009e40780080cf50000c00320088
:1037a80090c4b3009e40780080cf500008003200db
:1037b800a0c4b3009e40780080cf500004003200bf
:1037c80000c4b3009e40780080cf500002003a0049
:1037d80000e22000bb00370080c4b3009e407800a0
:1037e80080cf50003c003200c0c4b3009e40780037
:1037f80080cf500038003200d0c4b3009e4078001b
:1038080080cf500034003200e0c4b3009e407800fe
:1038180080cf50003000320010c5b3009e407800c1
:1038280080cf50002c00320020c5b3009e407800a5
:1038380080cf50002800320030c5b3009e40780089
:1038480080cf50002400320040c5b3009e4078006d
:1038580080cf50002000320040c4b3009e40780062
:1038680080cf50001c00320050c4b3009e40780046
:1038780080cf50001800320060c4b3009e4078002a
:1038880080cf50001400320070c4b3009e4078000e
:1038980080cf500010003200f0c4b3009e40780082
:1038a80080cf50000c00320000c5b3009e40780065
:1038b80080cf500008003200f0c2b3009e4078006c
:1038c80080cf50000400320000c3b3009e4078004f
:1038d80080cf500002003a0000e320007900370052
:1038e800d0c5b3009e40780080cf50001f00320042
:1038f800e0c5b3009e40780080cf50001b00320026
:1039080020c6b3009e40780080cf500017003200d8
:1039180030c6b3009e40780080cf500013003200bc
:1039280040c6b3009e40780080cf50000f003200a0
:103938001e407800e34f50000c0032001e40780013
:10394800e44f5000090032001e407800e54f500057
:10395800060032001e407800f24f5000030032008b
:103968001e407800f34f500002003a0000e42000a7
:103978005400370070c5b3009e40780080cf5000d7
:103988002000320080c5b3009e40780080cf5000f0
:103998001c00320040c3b3009e40780080cf500026
:1039a8001800320030c3b3009e40780080cf50002a
:1039b8001400320010c3b3009e40780080cf50003e
:1039c8001000320020c3b3009e40780080cf500022
:1039d8000c00320050c3b3009e40780080cf5000e6
:1039e8000800320080c2b3009e40780080cf5000ab
:1039f8000400320070c2b3009e40780080cf5000af
:103a080002003a0000e520002e003700a0c5b300f0
:103a18009e40780080cf50002700320090c5b30048
:103a28009e40780080cf50002300320090c3b3003e
:103a38009e40780080cf50001f00320080c3b30042
:103a48009e40780080cf50001b0032001e40780056
:103a5800ea4f5000180032001e407800eb4f50002b
:103a6800150032001e407800ec4f50001200320062
:103a78001e407800ee4f50000f00320000c6b30021
:103a88009e40780080cf50000b00320010c6b30073
:103a98009e40780080cf500007003200f0c5b30088
:103aa8009e40780080cf5000030032001e4078000e
:103ab800e14f500002003a0000e620000100370004
:103ac8000000eb000080fa00000006000200fa0087
:103ad800004f78001e407800f14f50002a00320055
:103ae80060c2b3009e40780080cf500026003200ac
:103af800a0c3b3009e40780080cf5000220032005f
:103b0800b0c3b3009e40780080cf50001e00320042
:103b1800c0c3b3009e40780080cf50001a00320026
:103b2800d0c3b3009e40780080cf5000160032000a
:103b3800b0c5b3009e40780080cf5000120032001c
:103b4800c0c5b3009e40780080cf50000e00320000
:103b58001e407800fc4f50000b0032001e407800d9
:103b6800fd4f50000800320020c4b3009e4078008a
:103b780080cf50000400320030c4b3009e4078006b
:103b880080cf500002003a0020e0200013013700e7
:103b98001e407800f94f5000350032001e40780072
:103ba800f84f5000320032001e407800f74f5000a6
:103bb8002f0032001e407800f64f50002c003200d3
:103bc8001e407800f54f5000290032001e40780052
:103bd800f44f5000260032001e407800fa4f500083
:103be800230032001e407800fb4f500020003200b6
:103bf80000c2b3009e40780080cf50001c00320005
:103c080010c2b3009e40780080cf500018003200e8
:103c180020c2b3009e40780080cf500014003200cc
:103c280030c2b3009e40780080cf500010003200b0
:103c380090c2b3009e40780080cf50000c00320044
:103c4800a0c2b3009e40780080cf50000800320028
:103c5800b0c2b3009e40780080cf5000040032000c
:103c6800c0c2b3009e40780080cf500002003a00e6
:103c780020e12000d90037001e407800e64f5000b0
:103c8800190032001e407800e74f5000160032003d
:103c98001e407800e84f5000130032001e407800a4
:103ca800e94f500010003200f0c3b3009e40780086
:103cb80080cf50000c00320090c4b3009e407800c2
:103cc80080cf500008003200a0c4b3009e407800a6
:103cd80080cf50000400320000c4b3009e4078003a
:103ce80080cf500002003a0020e22000bb003700dd
:103cf80080c4b3009e40780080cf50003c00320062
:103d0800c0c4b3009e40780080cf50003800320015
:103d1800d0c4b3009e40780080cf500034003200f9
:103d2800e0c4b3009e40780080cf500030003200dd
:103d380010c5b3009e40780080cf50002c003200a0
:103d480020c5b3009e40780080cf50002800320084
:103d580030c5b3009e40780080cf50002400320068
:103d680040c5b3009e40780080cf5000200032004c
:103d780040c4b3009e40780080cf50001c00320041
:103d880050c4b3009e40780080cf50001800320025
:103d980060c4b3009e40780080cf50001400320009
:103da80070c4b3009e40780080cf500010003200ed
:103db800f0c4b3009e40780080cf50000c00320061
:103dc80000c5b3009e40780080cf50000800320044
:103dd800f0c2b3009e40780080cf5000040032004b
:103de80000c3b3009e40780080cf500002003a0024
:103df80020e3200079003700d0c5b3009e4078004a
:103e080080cf50001f003200e0c5b3009e4078000c
:103e180080cf50001b00320020c6b3009e407800bf
:103e280080cf50001700320030c6b3009e407800a3
:103e380080cf50001300320040c6b3009e40780087
:103e480080cf50000f0032001e407800e34f500032
:103e58000c0032001e407800e44f50000900320088
:103e68001e407800e54f5000060032001e407800e2
:103e7800f24f5000030032001e407800f34f50000c
:103e880002003a0020e420005400370070c5b30057
:103e98009e40780080cf50002000320080c5b300db
:103ea8009e40780080cf50001c00320040c3b30011
:103eb8009e40780080cf50001800320030c3b30015
:103ec8009e40780080cf50001400320010c3b30029
:103ed8009e40780080cf50001000320020c3b3000d
:103ee8009e40780080cf50000c00320050c3b300d1
:103ef8009e40780080cf50000800320080c2b30096
:103f08009e40780080cf50000400320070c2b30099
:103f18009e40780080cf500002003a0020e5200043
:103f28002e003700a0c5b3009e40780080cf500017
:103f38002700320090c5b3009e40780080cf500023
:103f48002300320090c3b3009e40780080cf500019
:103f58001f00320080c3b3009e40780080cf50001d
:103f68001b0032001e407800ea4f50001800320053
:103f78001e407800eb4f5000150032001e407800bc
:103f8800ec4f5000120032001e407800ee4f5000f7
:103f98000f00320000c6b3009e40780080cf50006a
:103fa8000b00320010c6b3009e40780080cf50004e
:103fb80007003200f0c5b3009e40780080cf500063
:103fc800030032001e407800e14f500002003a0022
:103fd80020e62000010037000000eb000080fa0016
:103fe800000006000200fa00004f78001e4078002a
:103ff800f14f50002a00320060c2b3009e407800a2
:1040080080cf500026003200a0c3b3009e40780045
:1040180080cf500022003200b0c3b3009e40780029
:1040280080cf50001e003200c0c3b3009e4078000d
:1040380080cf50001a003200d0c3b3009e407800f1
:1040480080cf500016003200b0c5b3009e40780003
:1040580080cf500012003200c0c5b3009e407800e7
:1040680080cf50000e0032001e407800fc4f5000f8
:104078000b0032001e407800fd4f5000080032004f
:1040880020c4b3009e40780080cf50000400320066
:1040980030c4b3009e40780080cf500002003a0040
:1040a80040e02000130137001e407800f94f50000f
:1040b800350032001e407800f84f500032003200c0
:1040c8001e407800f74f50002f0032001e40780045
:1040d800f64f50002c0032001e407800f54f50007b
:1040e800290032001e407800f44f500026003200ac
:1040f8001e407800fa4f5000230032001e4078001e
:10410800fb4f50002000320000c2b3009e407800f0
:1041180080cf50001c00320010c2b3009e407800cf
:1041280080cf50001800320020c2b3009e407800b3
:1041380080cf50001400320030c2b3009e40780097
:1041480080cf50001000320090c2b3009e4078002b
:1041580080cf50000c003200a0c2b3009e4078000f
:1041680080cf500008003200b0c2b3009e407800f3
:1041780080cf500004003200c0c2b3009e407800d7
:1041880080cf500002003a0040e12000d9003700fb
:104198001e407800e64f5000190032001e4078009b
:1041a800e74f5000160032001e407800e84f5000dc
:1041b800130032001e407800e94f50001000320012
:1041c800f0c3b3009e40780080cf50000c0032004e
:1041d80090c4b3009e40780080cf500008003200a1
:1041e800a0c4b3009e40780080cf50000400320085
:1041f80000c4b3009e40780080cf500002003a000f
:1042080040e22000bb00370080c4b3009e40780025
:1042180080cf50003c003200c0c4b3009e407800fc
:1042280080cf500038003200d0c4b3009e407800e0
:1042380080cf500034003200e0c4b3009e407800c4
:1042480080cf50003000320010c5b3009e40780087
:1042580080cf50002c00320020c5b3009e4078006b
:1042680080cf50002800320030c5b3009e4078004f
:1042780080cf50002400320040c5b3009e40780033
:1042880080cf50002000320040c4b3009e40780028
:1042980080cf50001c00320050c4b3009e4078000c
:1042a80080cf50001800320060c4b3009e407800f0
:1042b80080cf50001400320070c4b3009e407800d4
:1042c80080cf500010003200f0c4b3009e40780048
:1042d80080cf50000c00320000c5b3009e4078002b
:1042e80080cf500008003200f0c2b3009e40780032
:1042f80080cf50000400320000c3b3009e40780015
:1043080080cf500002003a0040e3200079003700d7
:10431800d0c5b3009e40780080cf50001f00320007
:10432800e0c5b3009e40780080cf50001b003200eb
:1043380020c6b3009e40780080cf5000170032009e
:1043480030c6b3009e40780080cf50001300320082
:1043580040c6b3009e40780080cf50000f00320066
:104368001e407800e34f50000c0032001e407800d9
:10437800e44f5000090032001e407800e54f50001d
:10438800060032001e407800f24f50000300320051
:104398001e407800f34f500002003a0040e420002d
:1043a8005400370070c5b3009e40780080cf50009d
:1043b8002000320080c5b3009e40780080cf5000b6
:1043c8001c00320040c3b3009e40780080cf5000ec
:1043d8001800320030c3b3009e40780080cf5000f0
:1043e8001400320010c3b3009e40780080cf500004
:1043f8001000320020c3b3009e40780080cf5000e8
:104408000c00320050c3b3009e40780080cf5000ab
:104418000800320080c2b3009e40780080cf500070
:104428000400320070c2b3009e40780080cf500074
:1044380002003a0040e520002e003700a0c5b30076
:104448009e40780080cf50002700320090c5b3000e
:104458009e40780080cf50002300320090c3b30004
:104468009e40780080cf50001f00320080c3b30008
:104478009e40780080cf50001b0032001e4078001c
:10448800ea4f5000180032001e407800eb4f5000f1
:10449800150032001e407800ec4f50001200320028
:1044a8001e407800ee4f50000f00320000c6b300e7
:1044b8009e40780080cf50000b00320010c6b30039
:1044c8009e40780080cf500007003200f0c5b3004e
:1044d8009e40780080cf5000030032001e407800d4
:1044e800e14f500002003a0040e62000010037008a
:1044f8000000eb000080fa00000006000200fa004d
:10450800004f78001e407800f14f50002a0032001a
:1045180060c2b3009e40780080cf50002600320071
:10452800a0c3b3009e40780080cf50002200320024
:10453800b0c3b3009e40780080cf50001e00320008
:10454800c0c3b3009e40780080cf50001a003200ec
:10455800d0c3b3009e40780080cf500016003200d0
:10456800b0c5b3009e40780080cf500012003200e2
:10457800c0c5b3009e40780080cf50000e003200c6
:104588001e407800fc4f50000b0032001e4078009f
:10459800fd4f50000800320020c4b3009e40780050
:1045a80080cf50000400320030c4b3009e40780031
:1045b80080cf500002003a0060e0200096003700eb
:1045c80080c4b3009e40780080cf50003c00320089
:1045d800c0c4b3009e40780080cf5000380032003d
:1045e800d0c4b3009e40780080cf50003400320021
:1045f800e0c4b3009e40780080cf50003000320005
:1046080010c5b3009e40780080cf50002c003200c7
:1046180020c5b3009e40780080cf500028003200ab
:1046280030c5b3009e40780080cf5000240032008f
:1046380040c5b3009e40780080cf50002000320073
:1046480040c4b3009e40780080cf50001c00320068
:1046580050c4b3009e40780080cf5000180032004c
:1046680060c4b3009e40780080cf50001400320030
:1046780070c4b3009e40780080cf50001000320014
:10468800f0c4b3009e40780080cf50000c00320088
:1046980000c5b3009e40780080cf5000080032006b
:1046a800f0c2b3009e40780080cf50000400320072
:1046b80000c3b3009e40780080cf500002003a004b
:1046c80060e320005400370070c5b3009e407800b6
:1046d80080cf50002000320080c5b3009e40780093
:1046e80080cf50001c00320040c3b3009e407800c9
:1046f80080cf50001800320030c3b3009e407800cd
:1047080080cf50001400320010c3b3009e407800e0
:1047180080cf50001000320020c3b3009e407800c4
:1047280080cf50000c00320050c3b3009e40780088
:1047380080cf50000800320080c2b3009e4078004d
:1047480080cf50000400320070c2b3009e40780051
:1047580080cf500002003a0060e520002e003700ac
:10476800a0c5b3009e40780080cf500027003200db
:1047780090c5b3009e40780080cf500023003200df
:1047880090c3b3009e40780080cf50001f003200d5
:1047980080c3b3009e40780080cf50001b003200d9
:1047a8001e407800ea4f5000180032001e40780082
:1047b800eb4f5000150032001e407800ec4f5000bf
:1047c800120032001e407800ee4f50000f003200f9
:1047d80000c6b3009e40780080cf50000b00320026
:1047e80010c6b3009e40780080cf5000070032000a
:1047f800f0c5b3009e40780080cf5000030032001f
:104808001e407800e14f500002003a0060e62000a8
:10481800010037000000eb000080fa0000000600ed
:104828000200fa00004f78001e407800f14f500057
:104838002a00320060c2b3009e40780080cf50004a
:1048480026003200a0c3b3009e40780080cf5000fd
:1048580022003200b0c3b3009e40780080cf5000e1
:104868001e003200c0c3b3009e40780080cf5000c5
:104878001a003200d0c3b3009e40780080cf5000a9
:1048880016003200b0c5b3009e40780080cf5000bb
:1048980012003200c0c5b3009e40780080cf50009f
:1048a8000e0032001e407800fc4f50000b00320012
:1048b8001e407800fd4f50000800320020c4b300ad
:1048c8009e40780080cf50000400320030c4b3000e
:1048d8009e40780080cf500002003a0080e020001f
:1048e800130137001e407800f94f500035003200a0
:1048f8001e407800f84f5000320032001e40780009
:10490800f74f50002f0032001e407800f64f50003d
:104918002c0032001e407800f54f5000290032006c
:104928001e407800f44f5000260032001e407800e8
:10493800fa4f5000230032001e407800fb4f500011
:104948002000320000c2b3009e40780080cf5000a3
:104958001c00320010c2b3009e40780080cf500087
:104968001800320020c2b3009e40780080cf50006b
:104978001400320030c2b3009e40780080cf50004f
:104988001000320090c2b3009e40780080cf5000e3
:104998000c003200a0c2b3009e40780080cf5000c7
:1049a80008003200b0c2b3009e40780080cf5000ab
:1049b80004003200c0c2b3009e40780080cf50008f
:1049c80002003a0080e12000d90037001e4078003c
:1049d800e64f5000190032001e407800e74f5000a3
:1049e800160032001e407800e84f500013003200d5
:1049f8001e407800e94f500010003200f0c3b300a9
:104a08009e40780080cf50000c00320090c4b30064
:104a18009e40780080cf500008003200a0c4b30048
:104a28009e40780080cf50000400320000c4b300dc
:104a38009e40780080cf500002003a0080e22000bb
:104a4800bb00370080c4b3009e40780080cf500080
:104a58003c003200c0c4b3009e40780080cf5000b4
:104a680038003200d0c4b3009e40780080cf500098
:104a780034003200e0c4b3009e40780080cf50007c
:104a88003000320010c5b3009e40780080cf50003f
:104a98002c00320020c5b3009e40780080cf500023
:104aa8002800320030c5b3009e40780080cf500007
:104ab8002400320040c5b3009e40780080cf5000eb
:104ac8002000320040c4b3009e40780080cf5000e0
:104ad8001c00320050c4b3009e40780080cf5000c4
:104ae8001800320060c4b3009e40780080cf5000a8
:104af8001400320070c4b3009e40780080cf50008c
:104b080010003200f0c4b3009e40780080cf5000ff
:104b18000c00320000c5b3009e40780080cf5000e2
:104b280008003200f0c2b3009e40780080cf5000e9
:104b38000400320000c3b3009e40780080cf5000cc
:104b480002003a0080e3200079003700d0c5b300a6
:104b58009e40780080cf50001f003200e0c5b300af
:104b68009e40780080cf50001b00320020c6b30062
:104b78009e40780080cf50001700320030c6b30046
:104b88009e40780080cf50001300320040c6b3002a
:104b98009e40780080cf50000f0032001e40780001
:104ba800e34f50000c0032001e407800e44f5000e4
:104bb800090032001e407800e54f50000600320020
:104bc8001e407800f24f5000030032001e4078006b
:104bd800f34f500002003a0080e4200054003700f0
:104be80070c5b3009e40780080cf5000200032008e
:104bf80080c5b3009e40780080cf50001c00320072
:104c080040c3b3009e40780080cf500018003200a7
:104c180030c3b3009e40780080cf500014003200ab
:104c280010c3b3009e40780080cf500010003200bf
:104c380020c3b3009e40780080cf50000c003200a3
:104c480050c3b3009e40780080cf50000800320067
:104c580080c2b3009e40780080cf5000040032002c
:104c680070c2b3009e40780080cf500002003a0026
:104c780080e520002e003700a0c5b3009e407800d4
:104c880080cf50002700320090c5b3009e407800c6
:104c980080cf50002300320090c3b3009e407800bc
:104ca80080cf50001f00320080c3b3009e407800c0
:104cb80080cf50001b0032001e407800ea4f5000a1
:104cc800180032001e407800eb4f500015003200eb
:104cd8001e407800ec4f5000120032001e40780051
:104ce800ee4f50000f00320000c6b3009e4078001f
:104cf80080cf50000b00320010c6b3009e407800f1
:104d080080cf500007003200f0c5b3009e40780005
:104d180080cf5000030032001e407800e14f500061
:104d280002003a0080e62000010037000000eb0096
:104d38000080fa00000006000200fa00004f780028
:104d48001e407800f14f50002a00320060c2b300c4
:104d58009e40780080cf500026003200a0c3b300e8
:104d68009e40780080cf500022003200b0c3b300cc
:104d78009e40780080cf50001e003200c0c3b300b0
:104d88009e40780080cf50001a003200d0c3b30094
:104d98009e40780080cf500016003200b0c5b300a6
:104da8009e40780080cf500012003200c0c5b3008a
:104db8009e40780080cf50000e0032001e407800e0
:104dc800fc4f50000b0032001e407800fd4f500091
:104dd8000800320020c4b3009e40780080cf500005
:104de8000400320030c4b3009e40780080cf5000e9
:104df80002003a00a0e02000130137001e407800ae
:104e0800f94f5000350032001e407800f84f50002e
:104e1800320032001e407800f74f50002f00320059
:104e28001e407800f64f50002c0032001e407800db
:104e3800f54f5000290032001e407800f44f500012
:104e4800260032001e407800fa4f5000230032003e
:104e58001e407800fb4f50002000320000c2b30013
:104e68009e40780080cf50001c00320010c2b30072
:104e78009e40780080cf50001800320020c2b30056
:104e88009e40780080cf50001400320030c2b3003a
:104e98009e40780080cf50001000320090c2b300ce
:104ea8009e40780080cf50000c003200a0c2b300b2
:104eb8009e40780080cf500008003200b0c2b30096
:104ec8009e40780080cf500004003200c0c2b3007a
:104ed8009e40780080cf500002003a00a0e12000f8
:104ee800d90037001e407800e64f50001900320004
:104ef8001e407800e74f5000160032001e40780030
:104f0800e84f5000130032001e407800e94f50006f
:104f180010003200f0c3b3009e40780080cf5000ec
:104f28000c00320090c4b3009e40780080cf50003f
:104f380008003200a0c4b3009e40780080cf500023
:104f48000400320000c4b3009e40780080cf5000b7
:104f580002003a00a0e22000bb00370080c4b30082
:104f68009e40780080cf50003c003200c0c4b3009f
:104f78009e40780080cf500038003200d0c4b30083
:104f88009e40780080cf500034003200e0c4b30067
:104f98009e40780080cf50003000320010c5b3002a
:104fa8009e40780080cf50002c00320020c5b3000e
:104fb8009e40780080cf50002800320030c5b300f2
:104fc8009e40780080cf50002400320040c5b300d6
:104fd8009e40780080cf50002000320040c4b300cb
:104fe8009e40780080cf50001c00320050c4b300af
:104ff8009e40780080cf50001800320060c4b30093
:105008009e40780080cf50001400320070c4b30076
:105018009e40780080cf500010003200f0c4b300ea
:105028009e40780080cf50000c00320000c5b300cd
:105038009e40780080cf500008003200f0c2b300d4
:105048009e40780080cf50000400320000c3b300b7
:105058009e40780080cf500002003a00a0e3200074
:1050680079003700d0c5b3009e40780080cf50004b
:105078001f003200e0c5b3009e40780080cf50008a
:105088001b00320020c6b3009e40780080cf50003d
:105098001700320030c6b3009e40780080cf500021
:1050a8001300320040c6b3009e40780080cf500005
:1050b8000f0032001e407800e34f50000c00320011
:1050c8001e407800e44f5000090032001e4078006e
:1050d800e54f5000060032001e407800f24f5000a5
:1050e800030032001e407800f34f500002003a00df
:1050f800a0e420005400370070c5b3009e4078003b
:1051080080cf50002000320080c5b3009e40780058
:1051180080cf50001c00320040c3b3009e4078008e
:1051280080cf50001800320030c3b3009e40780092
:1051380080cf50001400320010c3b3009e407800a6
:1051480080cf50001000320020c3b3009e4078008a
:1051580080cf50000c00320050c3b3009e4078004e
:1051680080cf50000800320080c2b3009e40780013
:1051780080cf50000400320070c2b3009e40780017
:1051880080cf500002003a00a0e520002e00370032
:10519800a0c5b3009e40780080cf500027003200a1
:1051a80090c5b3009e40780080cf500023003200a5
:1051b80090c3b3009e40780080cf50001f0032009b
:1051c80080c3b3009e40780080cf50001b0032009f
:1051d8001e407800ea4f5000180032001e40780048
:1051e800eb4f5000150032001e407800ec4f500085
:1051f800120032001e407800ee4f50000f003200bf
:1052080000c6b3009e40780080cf50000b003200eb
:1052180010c6b3009e40780080cf500007003200cf
:10522800f0c5b3009e40780080cf500003003200e4
:105238001e407800e14f500002003a00a0e620002e
:10524800010037000000eb000080fa0000000600b3
:105258000200fa00004f78001e407800f14f50001d
:105268002a00320060c2b3009e40780080cf500010
:1052780026003200a0c3b3009e40780080cf5000c3
:1052880022003200b0c3b3009e40780080cf5000a7
:105298001e003200c0c3b3009e40780080cf50008b
:1052a8001a003200d0c3b3009e40780080cf50006f
:1052b80016003200b0c5b3009e40780080cf500081
:1052c80012003200c0c5b3009e40780080cf500065
:1052d8000e0032001e407800fc4f50000b003200d8
:1052e8001e407800fd4f50000800320020c4b30073
:1052f8009e40780080cf50000400320030c4b300d4
:105308009e40780080cf500002003a00c0e02000a4
:10531800130137001e407800f94f50003500320065
:105328001e407800f84f5000320032001e407800ce
:10533800f74f50002f0032001e407800f64f500003
:105348002c0032001e407800f54f50002900320032
:105358001e407800f44f5000260032001e407800ae
:10536800fa4f5000230032001e407800fb4f5000d7
:105378002000320000c2b3009e40780080cf500069
:105388001c00320010c2b3009e40780080cf50004d
:105398001800320020c2b3009e40780080cf500031
:1053a8001400320030c2b3009e40780080cf500015
:1053b8001000320090c2b3009e40780080cf5000a9
:1053c8000c003200a0c2b3009e40780080cf50008d
:1053d80008003200b0c2b3009e40780080cf500071
:1053e80004003200c0c2b3009e40780080cf500055
:1053f80002003a00c0e12000d90037001e407800c2
:10540800e64f5000190032001e407800e74f500068
:10541800160032001e407800e84f5000130032009a
:105428001e407800e94f500010003200f0c3b3006e
:105438009e40780080cf50000c00320090c4b3002a
:105448009e40780080cf500008003200a0c4b3000e
:105458009e40780080cf50000400320000c4b300a2
:105468009e40780080cf500002003a00c0e2200041
:10547800bb00370080c4b3009e40780080cf500046
:105488003c003200c0c4b3009e40780080cf50007a
:1054980038003200d0c4b3009e40780080cf50005e
:1054a80034003200e0c4b3009e40780080cf500042
:1054b8003000320010c5b3009e40780080cf500005
:1054c8002c00320020c5b3009e40780080cf5000e9
:1054d8002800320030c5b3009e40780080cf5000cd
:1054e8002400320040c5b3009e40780080cf5000b1
:1054f8002000320040c4b3009e40780080cf5000a6
:105508001c00320050c4b3009e40780080cf500089
:105518001800320060c4b3009e40780080cf50006d
:105528001400320070c4b3009e40780080cf500051
:1055380010003200f0c4b3009e40780080cf5000c5
:105548000c00320000c5b3009e40780080cf5000a8
:1055580008003200f0c2b3009e40780080cf5000af
:105568000400320000c3b3009e40780080cf500092
:1055780002003a00c0e3200079003700d0c5b3002c
:105588009e40780080cf50001f003200e0c5b30075
:105598009e40780080cf50001b00320020c6b30028
:1055a8009e40780080cf50001700320030c6b3000c
:1055b8009e40780080cf50001300320040c6b300f0
:1055c8009e40780080cf50000f0032001e407800c7
:1055d800e34f50000c0032001e407800e44f5000aa
:1055e800090032001e407800e54f500006003200e6
:1055f8001e407800f24f5000030032001e40780031
:10560800f34f500002003a00c0e420005400370075
:1056180070c5b3009e40780080cf50002000320053
:1056280080c5b3009e40780080cf50001c00320037
:1056380040c3b3009e40780080cf5000180032006d
:1056480030c3b3009e40780080cf50001400320071
:1056580010c3b3009e40780080cf50001000320085
:1056680020c3b3009e40780080cf50000c00320069
:1056780050c3b3009e40780080cf5000080032002d
:1056880080c2b3009e40780080cf500004003200f2
:1056980070c2b3009e40780080cf500002003a00ec
:1056a800c0e520002e003700a0c5b3009e4078005a
:1056b80080cf50002700320090c5b3009e4078008c
:1056c80080cf50002300320090c3b3009e40780082
:1056d80080cf50001f00320080c3b3009e40780086
:1056e80080cf50001b0032001e407800ea4f500067
