:020000040000fa
:080000000002040000000000f2
:020000040000fa
:04000800fa020000f8
:020000040000fa
:04000c00fa020000f4
:020000040000fa
:04001000fa020000f0
:020000040000fa
:04001400fa020000ec
:020000040000fa
:04001800fa020000e8
:020000040000fa
:04001c00fa020000e4
:020000040000fa
:04002000fa020000e0
:020000040000fa
:04002400fa020000dc
:020000040000fa
:04002800fa020000d8
:020000040000fa
:04002c00fa020000d4
:020000040000fa
:04003000fa020000d0
:020000040000fa
:04003400fa020000cc
:020000040000fa
:04003800fa020000c8
:020000040000fa
:04003c00fa020000c4
:020000040000fa
:04004000fa020000c0
:020000040000fa
:04004400fa020000bc
:020000040000fa
:04004800fa020000b8
:020000040000fa
:04004c00fa020000b4
:020000040000fa
:04005000fa020000b0
:020000040000fa
:04005400fa020000ac
:020000040000fa
:04005800fa020000a8
:020000040000fa
:04005c00fa020000a4
:020000040000fa
:04006000fa020000a0
:020000040000fa
:04006400fa0200009c
:020000040000fa
:04006800fa02000098
:020000040000fa
:04006c00fa02000094
:020000040000fa
:04007000fa02000090
:020000040000fa
:04007400fa0200008c
:020000040000fa
:04007800fa02000088
:020000040000fa
:04007c00fa02000084
:020000040000fa
:04008000fa02000080
:020000040000fa
:04008400fa0200007c
:020000040000fa
:04008800fa02000078
:020000040000fa
:04008c00fa02000074
:020000040000fa
:04009000fa02000070
:020000040000fa
:04009400fa0200006c
:020000040000fa
:04009800fa02000068
:020000040000fa
:04009c00fa02000064
:020000040000fa
:0400a000fa02000060
:020000040000fa
:0400a400fa0200005c
:020000040000fa
:0400a800fa02000058
:020000040000fa
:0400ac00fa02000054
:020000040000fa
:0400b000fa02000050
:020000040000fa
:0400b400fa0200004c
:020000040000fa
:0400b800fa02000048
:020000040000fa
:0400bc00fa02000044
:020000040000fa
:0400c000fa02000040
:020000040000fa
:0400c400fa0200003c
:020000040000fa
:0400c800fa02000038
:020000040000fa
:0400cc00fa02000034
:020000040000fa
:0400d000fa02000030
:020000040000fa
:0400d400fa0200002c
:020000040000fa
:0400d800fa02000028
:020000040000fa
:0400dc00fa02000024
:020000040000fa
:0400e000fa02000020
:020000040000fa
:0400e400fa0200001c
:020000040000fa
:0400e800fa02000018
:020000040000fa
:0400ec00fa02000014
:020000040000fa
:0400f000fa02000010
:020000040000fa
:0400f400fa0200000c
:020000040000fa
:0400f800fa02000008
:020000040000fa
:0400fc00fa02000004
:020000040000fa
:04010000fa020000ff
:020000040000fa
:04010400fa020000fb
:020000040000fa
:04010800fa020000f7
:020000040000fa
:04010c00fa020000f3
:020000040000fa
:04011000fa020000ef
:020000040000fa
:04011400fa020000eb
:020000040000fa
:04011800fa020000e7
:020000040000fa
:04011c00fa020000e3
:020000040000fa
:04012000fa020000df
:020000040000fa
:04012400fa020000db
:020000040000fa
:04012800fa020000d7
:020000040000fa
:04012c00fa020000d3
:020000040000fa
:04013000fa020000cf
:020000040000fa
:04013400fa020000cb
:020000040000fa
:04013800fa020000c7
:020000040000fa
:04013c00fa020000c3
:020000040000fa
:04014000fa020000bf
:020000040000fa
:04014400fa020000bb
:020000040000fa
:04014800fa020000b7
:020000040000fa
:04014c00fa020000b3
:020000040000fa
:04015000fa020000af
:020000040000fa
:04015400fa020000ab
:020000040000fa
:04015800fa020000a7
:020000040000fa
:04015c00fa020000a3
:020000040000fa
:04016000fa0200009f
:020000040000fa
:04016400fa0200009b
:020000040000fa
:04016800fa02000097
:020000040000fa
:04016c00fa02000093
:020000040000fa
:04017000fa0200008f
:020000040000fa
:04017400fa0200008b
:020000040000fa
:04017800fa02000087
:020000040000fa
:04017c00fa02000083
:020000040000fa
:04018000fa0200007f
:020000040000fa
:04018400fa0200007b
:020000040000fa
:04018800fa02000077
:020000040000fa
:04018c00fa02000073
:020000040000fa
:04019000fa0200006f
:020000040000fa
:04019400fa0200006b
:020000040000fa
:04019800fa02000067
:020000040000fa
:04019c00fa02000063
:020000040000fa
:0401a000fa0200005f
:020000040000fa
:0401a400fa0200005b
:020000040000fa
:0401a800fa02000057
:020000040000fa
:0401ac00fa02000053
:020000040000fa
:0401b000fa0200004f
:020000040000fa
:0401b400fa0200004b
:020000040000fa
:0401b800fa02000047
:020000040000fa
:0401bc00fa02000043
:020000040000fa
:0401c000fa0200003f
:020000040000fa
:0401c400fa0200003b
:020000040000fa
:0401c800fa02000037
:020000040000fa
:0401cc00fa02000033
:020000040000fa
:0401d000fa0200002f
:020000040000fa
:0401d400fa0200002b
:020000040000fa
:0401d800fa02000027
:020000040000fa
:0401dc00fa02000023
:020000040000fa
:0401e000fa0200001f
:020000040000fa
:0401e400fa0200001b
:020000040000fa
:0401e800fa02000017
:020000040000fa
:0401ec00fa02000013
:020000040000fa
:0401f000fa0200000f
:020000040000fa
:0401f400fa0200000b
:020000040000fa
:0401f800fa02000007
:020000040000fa
:0401fc00fa02000003
:020000040000fa
:04020000fa020000fe
:020000040000fa
:04020400fa020000fa
:020000040000fa
:04020800fa020000f6
:020000040000fa
:04020c00fa020000f2
:020000040000fa
:04021000fa020000ee
:020000040000fa
:04021400fa020000ea
:020000040000fa
:04021800fa020000e6
:020000040000fa
:04021c00fa020000e2
:020000040000fa
:04022000fa020000de
:020000040000fa
:04022400fa020000da
:020000040000fa
:04022800fa020000d6
:020000040000fa
:04022c00fa020000d2
:020000040000fa
:04023000fa020000ce
:020000040000fa
:04023400fa020000ca
:020000040000fa
:04023800fa020000c6
:020000040000fa
:04023c00fa020000c2
:020000040000fa
:04024000fa020000be
:020000040000fa
:04024400fa020000ba
:020000040000fa
:04024800fa020000b6
:020000040000fa
:04024c00fa020000b2
:020000040000fa
:04025000fa020000ae
:020000040000fa
:04025400fa020000aa
:020000040000fa
:04025800fa020000a6
:020000040000fa
:04025c00fa020000a2
:020000040000fa
:04026000fa0200009e
:020000040000fa
:04026400fa0200009a
:020000040000fa
:100400000f0021000eff2d000e01880000000000eb
:10041000000020000000e000020032000001200087
:100420002002880014000700740007000000e000ac
:1004300003003a0000002000010020000200370005
:100440000000200001002000810f70000100320038
:100450000f000700000020000000e0000200320052
:10046000000002000000000014060200000000006e
:100470000040da000000fe00200020000000e00044
:1004800002003200100020009001880000000600e9
:10049000a1028800800478000000eb001f003700f4
:1004a000e284440054a0b4009905ba00e2844400f8
:1004b00054a0b4009906ba00e284440054a0b400e9
:1004c0000006eb00476fde00fd07b200ae018800ba
:1004d000636ce10003003a000ad801000000eb0061
:1004e0000e003700606ce10008003a00004deb00a0
:1004f0000a05e800020039003420ec000af0a000f0
:100500008b05e900f9ff3e00040037006168e10057
:10051000010032000086eb000b00070019c7ba008b
:100520001905ba000e04e00003003a000a00e000da
:10053000dbff3a0000000600fe07b200ae028800b2
:100540008a047800f5ff37000cd0a300e20f4d00bd
:100550001c00390089027800354dba000a05e80010
:10056000020039003420ec000af0a0008b05e900fd
:100570000f003200254dba000a05e80002003900dc
:100580003420ec000af0a0008b05e90008003200de
:100590000c00e0000600320015cdba000a05e800a4
:1005a000020039003420ec000af0a0008b05e900bd
:1005b0008984e80054a0b4000b00e000e2ff3a0098
:1005c000000006009902ba00055d78008b05e9007d
:1005d000f7ff3200c82ade00055d78008b05e900d0
:1005e000f3ff32000c00e000f1ff320019ddba0029
:1005f000eeff37000040da000000fe0000000500ba
:020000040000fa
:100600000200fa00004f7800114798001e80fb009e
:1006100021022000810f50004f00320021022000f3
:10062000810f500009003c0001022000810f5000a2
:100630001700320001022000810f50002d003c0005
:10064000e10f5000e200320004013700f105200004
:10065000810f5000ba003200f1052000810f5000d8
:1006600004003c0031022000810f50005300320092
:10067000fa00370001062000810f500068003200a8
:1006800011062000810f500089003200f30037006e
:100690001e4090000080fb00e10f50000b00320074
:1006a000e10f500003003c000000e00006003200b3
:1006b0000e003700e20f500005003200e30f50003b
:1006c0000400320009003700090037000800370035
:1006d000070037001f0ea900190ea9001b0ea90064
:1006e0001d0ea900110ea900010037000000000036
:1006f000da0037001e4090000080fb00e10f500040
:100700000b003200e10f500003003c000000e0004d
:10071000060032000e003700e20f500005003200e4
:10072000e30f5000040032000900370009003700d1
:1007300008003700070037001f2ea900192ea90056
:100740001b2ea9001d2ea900112ea90001003700a3
:1007500000000000c10037001e4090000080fb0038
:10076000e10f50000b003200e10f500003003c008d
:100770000000e000060032000e003700e20f5000db
:1007800005003200e30f500004003200090037007a
:100790000900370008003700070037001f4ea90086
:1007a000194ea9001b4ea9001d4ea900114ea9000b
:1007b0000100370000000000a80037001e40900034
:1007c0000080fb00e10f50000b003200e10f5000f1
:1007d00003003c000000e000060032000e0037007d
:1007e000e20f500005003200e30f50000400320019
:1007f00009003700090037000800370007003700fc
:100800001f6ea900196ea9001b6ea9001d6ea9001c
:10081000116ea90001003700000000008f003700b2
:100820001e4090000080fb00e10f50000f003200de
:10083000e10f500003003c000000e0000600320021
:1008400019003700e20f50000d003200e30f500096
:100850001000320014003700698ea9006b8ea900c9
:100860006d8ea900618ea80010003700698ea90066
:100870006b8ea9006d8ea800618ea8000b0037005a
:10088000698ea9006b8ea8006d8ea900618ea800ec
:1008900006003700698ea9006b8ea9006d8ea90035
:1008a000618ea90001003700000000006b003700d6
:1008b0001e4090000080fb00e10f50000f0032004e
:1008c000e10f500003003c000000e0000600320091
:1008d00019003700e20f50000d003200e30f500006
:1008e000100032001400370069aea9006baea900f9
:1008f0006daea90061aea8001000370069aea90076
:100900006baea9006daea80061aea8000b00370069
:1009100069aea9006baea8006daea90061aea800db
:100920000600370069aea9006baea9006daea90044
:1009300061aea90001003700000000004700370049
:100940001e4090000080fb00e10f50000f003200bd
:10095000e10f500003003c000000e0000600320000
:1009600019003700e20f50000d003200e30f500075
:10097000100032001400370069cea9006bcea90028
:100980006dcea90061cea8001000370069cea90085
:100990006bcea9006dcea80061cea8000b00370079
:1009a00069cea9006bcea8006dcea90061cea800cb
:1009b0000600370069cea9006bcea9006dcea90054
:1009c00061cea900010037000000000023003700bd
:1009d0001e4090000080fb00e10f50000f0032002d
:1009e000e10f500003003c000000e0000600320070
:1009f00019003700e20f50000d003200e30f5000e5
:100a0000100032001400370069eea9006beea90057
:100a10006deea90061eea8000f00370069eea90095
:100a20006beea9006deea80061eea8000a00370089
:100a300069eea9006beea8006deea90061eea800ba
:100a40000500370069eea9006beea9006deea90064
:100a500061eea90000000000000000000080fa0024
:100a6000000006000200fa00004f780011479800cd
:100a70001e80fb0011022000810f50001500320083
:100a800011022000810f500004003c0001022000f0
:100a9000810f50000800320023003700210220009f
:100aa000810f50001200320031022000810f5000ef
:100ab000160032001c0037001e4090000004e000c9
:100ac00002003a00150ea90017003700150ea80005
:100ad000150037001e4090000004e00002003a00bc
:100ae000152ea90010003700152ea8000e003700a3
:100af0001e4090000004e00002003a00154ea900dc
:100b000009003700154ea800070037001e4090006e
:100b10000004e00002003a00156ea9000200370050
:100b2000156ea800000000000080fa00000006001a
:100b30000200fa00004f78001e80fb00f105200043
:100b4000810f500015003200f1052000810f500088
:100b500003003c00e10f5000140032001700370082
:100b600001062000810f5000040032001106200011
:100b7000810f500005003200100037001073800014
:100b80004c00de00614060000d00370010738000f3
:100b90004d00de00614060000900370010738000e6
:100ba0004e00de00614060000500370010738000d9
:100bb0004f00de0000407800010037000040eb00ed
:100bc0000080fa00000006000400fa0010079800f8
:100bd0000000eb00000f78000e0037000000eb0073
:100be000000f780004003700000000000000000043
:100bf000000000001e0fe800a01420009e007800f6
:100c0000808f5000f8ff36001e0090000000e900c1
:100c1000100798001e0090000000e000efff3a006f
:100c20000080fa00000006000000fa00701c20009e
:100c3000303a8800213a8000f0f32f0000806000f5
:100c40000070a000203a8800213a800000fe2f00aa
:100c5000008060000010a000203a880031c0b3007e
:100c600000c2b30066fe070031c0b30010c2b3007b
:100c700063fe070031c0b30020c2b30060fe07006e
:100c800031c0b30030c2b3005dfe070021c0b30025
:100c900000c6b3005afe070021c0b30010c6b3005f
:100ca00057fe070021c0b300f0c5b30054fe070093
:100cb00021c0b30010c0b30051fe07008040eb001c
:100cc00000c2b30067ff070011c0b30000c2b30049
:080cd00064ff0700f9ff370083
:020000040000fa
:0200000401f009
:04000c00fbff0000f6
:020000040000fa
:0200000401f009
:04001000feff0000ef
:00000001FF
